{"contracts/MillionJackpot.sol":{"MillionJackpot":{"abi":[{"inputs":[{"internalType":"address payable","name":"_admin","type":"address"}],"stateMutability":"nonpayable","type":"constructor"},{"anonymous":false,"inputs":[{"indexed":true,"internalType":"uint256","name":"id","type":"uint256"}],"name":"Flip","type":"event"},{"anonymous":false,"inputs":[{"indexed":true,"internalType":"uint256","name":"id","type":"uint256"},{"indexed":false,"internalType":"uint256","name":"number","type":"uint256"}],"name":"FlipResult","type":"event"},{"anonymous":false,"inputs":[{"indexed":true,"internalType":"address","name":"previousOwner","type":"address"},{"indexed":true,"internalType":"address","name":"newOwner","type":"address"}],"name":"OwnershipTransferred","type":"event"},{"inputs":[{"internalType":"uint256","name":"number","type":"uint256"}],"name":"convertIntToWinningNumbers","outputs":[{"internalType":"uint256[]","name":"","type":"uint256[]"}],"stateMutability":"view","type":"function"},{"inputs":[],"name":"decideWinners","outputs":[],"stateMutability":"nonpayable","type":"function"},{"inputs":[],"name":"getNewDrawEligibileBlockNumber","outputs":[{"internalType":"uint256","name":"","type":"uint256"}],"stateMutability":"view","type":"function"},{"inputs":[],"name":"getWinningNumbers","outputs":[{"internalType":"uint256[]","name":"","type":"uint256[]"}],"stateMutability":"view","type":"function"},{"inputs":[],"name":"getWinningPhaseOneEndBlockNumber","outputs":[{"internalType":"uint256","name":"","type":"uint256"}],"stateMutability":"view","type":"function"},{"inputs":[],"name":"getWinningPhaseTwoEndBlockNumber","outputs":[{"internalType":"uint256","name":"","type":"uint256"}],"stateMutability":"view","type":"function"},{"inputs":[],"name":"owner","outputs":[{"internalType":"address","name":"","type":"address"}],"stateMutability":"view","type":"function"},{"inputs":[],"name":"randomizer","outputs":[{"internalType":"contract IRandomizer","name":"","type":"address"}],"stateMutability":"view","type":"function"},{"inputs":[{"internalType":"uint256","name":"_id","type":"uint256"},{"internalType":"bytes32","name":"_value","type":"bytes32"}],"name":"randomizerCallback","outputs":[],"stateMutability":"nonpayable","type":"function"},{"inputs":[{"internalType":"address","name":"_randomizer","type":"address"},{"internalType":"uint256","name":"amount","type":"uint256"}],"name":"randomizerWithdraw","outputs":[],"stateMutability":"nonpayable","type":"function"},{"inputs":[],"name":"renounceOwnership","outputs":[],"stateMutability":"nonpayable","type":"function"},{"inputs":[{"internalType":"address","name":"newOwner","type":"address"}],"name":"transferOwnership","outputs":[],"stateMutability":"nonpayable","type":"function"},{"inputs":[{"internalType":"address payable","name":"_admin","type":"address"}],"name":"updateAdmin","outputs":[],"stateMutability":"nonpayable","type":"function"},{"inputs":[{"internalType":"uint256","name":"blocks","type":"uint256"}],"name":"updateBlockPerDay","outputs":[],"stateMutability":"nonpayable","type":"function"},{"inputs":[{"internalType":"uint256","name":"minBalance","type":"uint256"}],"name":"updateMinUSDCDrawBalance","outputs":[],"stateMutability":"nonpayable","type":"function"},{"inputs":[{"internalType":"uint256","name":"eligibleDays","type":"uint256"}],"name":"updateNewDrawEligibileDays","outputs":[],"stateMutability":"nonpayable","type":"function"},{"inputs":[{"internalType":"uint256","name":"phaseOneDays","type":"uint256"}],"name":"updatePhaseOneDays","outputs":[],"stateMutability":"nonpayable","type":"function"},{"inputs":[{"internalType":"uint256","name":"phaseTwoDays","type":"uint256"}],"name":"updatePhaseTwoDays","outputs":[],"stateMutability":"nonpayable","type":"function"},{"inputs":[{"internalType":"address","name":"vrfAddress","type":"address"}],"name":"updateVRFAddress","outputs":[],"stateMutability":"nonpayable","type":"function"}],"evm":{"bytecode":{"linkReferences":{},"object":"608060405273d87ba7a50b2e7e660f678a895e4b72e7cb4ccd9c600160006101000a81548173ffffffffffffffffffffffffffffffffffffffff021916908373ffffffffffffffffffffffffffffffffffffffff16021790555073923096da90a3b60eb7e12723fa2e1547ba9236bc600260006101000a81548173ffffffffffffffffffffffffffffffffffffffff021916908373ffffffffffffffffffffffffffffffffffffffff1602179055506409c8702b60600355348015620000c457600080fd5b5060405162001b8b38038062001b8b8339818101604052810190620000ea919062000383565b6200010a620000fe6200023760201b60201c565b6200023f60201b60201c565b80600560006101000a81548173ffffffffffffffffffffffffffffffffffffffff021916908373ffffffffffffffffffffffffffffffffffffffff16021790555064e8d4a51000600681905550640ba43b7400600781905550632cb41780600881905550632cb417806009819055506302160ec0600a819055506302faf080600b8190555062e4e1c0600c8190555062989680600d819055506402540be4006015819055506000601081905550616f056016819055506007600f81905550600260118190555060016013819055506040518060c00160405280600060ff168152602001600060ff168152602001600060ff168152602001600060ff168152602001600060ff168152602001600060ff1681525060179060066200022f92919062000303565b505062000408565b600033905090565b60008060009054906101000a900473ffffffffffffffffffffffffffffffffffffffff169050816000806101000a81548173ffffffffffffffffffffffffffffffffffffffff021916908373ffffffffffffffffffffffffffffffffffffffff1602179055508173ffffffffffffffffffffffffffffffffffffffff168173ffffffffffffffffffffffffffffffffffffffff167f8be0079c531659141344cd1fd0a4f28419497f9722a3daafe3b4186f6b6457e060405160405180910390a35050565b82600681019282156200033a579160200282015b8281111562000339578251829060ff1690559160200191906001019062000317565b5b5090506200034991906200034d565b5090565b5b80821115620003685760008160009055506001016200034e565b5090565b6000815190506200037d81620003ee565b92915050565b6000602082840312156200039c576200039b620003e9565b5b6000620003ac848285016200036c565b91505092915050565b6000620003c282620003c9565b9050919050565b600073ffffffffffffffffffffffffffffffffffffffff82169050919050565b600080fd5b620003f981620003b5565b81146200040557600080fd5b50565b61177380620004186000396000f3fe608060405234801561001057600080fd5b50600436106101215760003560e01c8063b21443f6116100ad578063e2f273bd11610071578063e2f273bd14610294578063ebe93caf146102b0578063f04a9dca146102cc578063f10fb584146102fc578063f2fde38b1461031a57610121565b8063b21443f614610218578063be37e18a14610234578063c3058dc514610250578063d56e64a21461025a578063d72db90f1461027857610121565b80634e1c0a4a116100f45780634e1c0a4a14610198578063715018a6146101b657806384350e1d146101c05780638da5cb5b146101de5780639f09a908146101fc57610121565b80630bd4013f146101265780631bc187bf146101445780631dc69a57146101605780633c7d612b1461017c575b600080fd5b61012e610336565b60405161013b9190611202565b60405180910390f35b61015e60048036038101906101599190610d96565b610340565b005b61017a60048036038101906101759190610e79565b61038c565b005b61019660048036038101906101919190610e79565b61039e565b005b6101a06103b0565b6040516101ad9190611202565b60405180910390f35b6101be6103ba565b005b6101c86103ce565b6040516101d591906110ea565b60405180910390f35b6101e661042d565b6040516101f391906110a6565b60405180910390f35b61021660048036038101906102119190610e79565b610456565b005b610232600480360381019061022d9190610df0565b610468565b005b61024e60048036038101906102499190610e79565b6104e1565b005b6102586104f3565b005b6102626105de565b60405161026f9190611202565b60405180910390f35b610292600480360381019061028d9190610e79565b6105e8565b005b6102ae60048036038101906102a99190610dc3565b6105fa565b005b6102ca60048036038101906102c59190610ed3565b610646565b005b6102e660048036038101906102e19190610e79565b6109e6565b6040516102f391906110ea565b60405180910390f35b610304610a9b565b604051610311919061110c565b60405180910390f35b610334600480360381019061032f9190610d96565b610ac1565b005b6000601054905090565b610348610b45565b80600460006101000a81548173ffffffffffffffffffffffffffffffffffffffff021916908373ffffffffffffffffffffffffffffffffffffffff16021790555050565b610394610b45565b8060118190555050565b6103a6610b45565b8060168190555050565b6000601454905090565b6103c2610b45565b6103cc6000610bc3565b565b60608060005b600681101561042557601781600681106103f1576103f0611542565b5b015482828151811061040657610405611542565b5b602002602001018181525050808061041d9061146a565b9150506103d4565b508091505090565b60008060009054906101000a900473ffffffffffffffffffffffffffffffffffffffff16905090565b61045e610b45565b80600f8190555050565b610470610b45565b8173ffffffffffffffffffffffffffffffffffffffff16632465f8f533836040518363ffffffff1660e01b81526004016104ab9291906110c1565b600060405180830381600087803b1580156104c557600080fd5b505af11580156104d9573d6000803e3d6000fd5b505050505050565b6104e9610b45565b8060138190555050565b6104fb610b45565b6000600260009054906101000a900473ffffffffffffffffffffffffffffffffffffffff1673ffffffffffffffffffffffffffffffffffffffff1663d845a4b361c3506040518263ffffffff1660e01b815260040161055a9190611127565b602060405180830381600087803b15801561057457600080fd5b505af1158015610588573d6000803e3d6000fd5b505050506040513d601f19601f820116820180604052508101906105ac9190610ea6565b9050807ffc25ee6cef1e5b8c4e7a2f8d3bbb15ca76bb693b8b5644b3b481e1831c09530b60405160405180910390a250565b6000601254905090565b6105f0610b45565b8060158190555050565b610602610b45565b80600560006101000a81548173ffffffffffffffffffffffffffffffffffffffff021916908373ffffffffffffffffffffffffffffffffffffffff16021790555050565b3373ffffffffffffffffffffffffffffffffffffffff16600260009054906101000a900473ffffffffffffffffffffffffffffffffffffffff1673ffffffffffffffffffffffffffffffffffffffff16146106d6576040517f08c379a00000000000000000000000000000000000000000000000000000000081526004016106cd906111e2565b60405180910390fd5b6000600160009054906101000a900473ffffffffffffffffffffffffffffffffffffffff1673ffffffffffffffffffffffffffffffffffffffff166370a08231306040518263ffffffff1660e01b815260040161073391906110a6565b60206040518083038186803b15801561074b57600080fd5b505afa15801561075f573d6000803e3d6000fd5b505050506040513d601f19601f820116820180604052508101906107839190610ea6565b90506015548110156107ca576040517f08c379a00000000000000000000000000000000000000000000000000000000081526004016107c1906111c2565b60405180910390fd5b601054431161080e576040517f08c379a000000000000000000000000000000000000000000000000000000000815260040161080590611142565b60405180910390fd5b6014544311610852576040517f08c379a0000000000000000000000000000000000000000000000000000000008152600401610849906111a2565b60405180910390fd5b827f987867a7321bbfcd6e0481b5db1ba3b9c6f8ea97e988708a6f91ea2b27bce2458360001c6040516108859190611202565b60405180910390a260003073ffffffffffffffffffffffffffffffffffffffff1663f04a9dca8460001c6040518263ffffffff1660e01b81526004016108cb9190611202565b60006040518083038186803b1580156108e357600080fd5b505afa1580156108f7573d6000803e3d6000fd5b505050506040513d6000823e3d601f19601f820116820180604052508101906109209190610e30565b905060005b81518110156109755781818151811061094157610940611542565b5b60200260200101516017826006811061095d5761095c611542565b5b0181905550808061096d9061146a565b915050610925565b5081600e81905550600f5460165461098d919061133f565b4361099891906112b8565b6010819055506011546016546109ae919061133f565b436109b991906112b8565b6012819055506013546016546109cf919061133f565b436109da91906112b8565b60148190555050505050565b6060806000600354846109f991906114b3565b9050601981610a0891906114b3565b82600581518110610a1c57610a1b611542565b5b602002602001018181525050601981610a35919061130e565b905060005b60048111610a9057604682610a4f91906114b3565b838281518110610a6257610a61611542565b5b602002602001018181525050604682610a7b919061130e565b91508080610a889061146a565b915050610a3a565b508192505050919050565b600260009054906101000a900473ffffffffffffffffffffffffffffffffffffffff1681565b610ac9610b45565b600073ffffffffffffffffffffffffffffffffffffffff168173ffffffffffffffffffffffffffffffffffffffff161415610b39576040517f08c379a0000000000000000000000000000000000000000000000000000000008152600401610b3090611162565b60405180910390fd5b610b4281610bc3565b50565b610b4d610c87565b73ffffffffffffffffffffffffffffffffffffffff16610b6b61042d565b73ffffffffffffffffffffffffffffffffffffffff1614610bc1576040517f08c379a0000000000000000000000000000000000000000000000000000000008152600401610bb890611182565b60405180910390fd5b565b60008060009054906101000a900473ffffffffffffffffffffffffffffffffffffffff169050816000806101000a81548173ffffffffffffffffffffffffffffffffffffffff021916908373ffffffffffffffffffffffffffffffffffffffff1602179055508173ffffffffffffffffffffffffffffffffffffffff168173ffffffffffffffffffffffffffffffffffffffff167f8be0079c531659141344cd1fd0a4f28419497f9722a3daafe3b4186f6b6457e060405160405180910390a35050565b600033905090565b6000610ca2610c9d84611242565b61121d565b90508083825260208201905082856020860282011115610cc557610cc46115a5565b5b60005b85811015610cf55781610cdb8882610d81565b845260208401935060208301925050600181019050610cc8565b5050509392505050565b600081359050610d0e816116e1565b92915050565b600081359050610d23816116f8565b92915050565b600082601f830112610d3e57610d3d6115a0565b5b8151610d4e848260208601610c8f565b91505092915050565b600081359050610d668161170f565b92915050565b600081359050610d7b81611726565b92915050565b600081519050610d9081611726565b92915050565b600060208284031215610dac57610dab6115af565b5b6000610dba84828501610cff565b91505092915050565b600060208284031215610dd957610dd86115af565b5b6000610de784828501610d14565b91505092915050565b60008060408385031215610e0757610e066115af565b5b6000610e1585828601610cff565b9250506020610e2685828601610d6c565b9150509250929050565b600060208284031215610e4657610e456115af565b5b600082015167ffffffffffffffff811115610e6457610e636115aa565b5b610e7084828501610d29565b91505092915050565b600060208284031215610e8f57610e8e6115af565b5b6000610e9d84828501610d6c565b91505092915050565b600060208284031215610ebc57610ebb6115af565b5b6000610eca84828501610d81565b91505092915050565b60008060408385031215610eea57610ee96115af565b5b6000610ef885828601610d6c565b9250506020610f0985828601610d57565b9150509250929050565b6000610f1f8383611088565b60208301905092915050565b610f3481611399565b82525050565b6000610f458261127e565b610f4f8185611296565b9350610f5a8361126e565b8060005b83811015610f8b578151610f728882610f13565b9750610f7d83611289565b925050600181019050610f5e565b5085935050505092915050565b610fa1816113f1565b82525050565b610fb081611403565b82525050565b6000610fc36014836112a7565b9150610fce826115c5565b602082019050919050565b6000610fe66026836112a7565b9150610ff1826115ee565b604082019050919050565b60006110096020836112a7565b91506110148261163d565b602082019050919050565b600061102c6017836112a7565b915061103782611666565b602082019050919050565b600061104f601e836112a7565b915061105a8261168f565b602082019050919050565b6000611072600e836112a7565b915061107d826116b8565b602082019050919050565b611091816113e7565b82525050565b6110a0816113e7565b82525050565b60006020820190506110bb6000830184610f2b565b92915050565b60006040820190506110d66000830185610f2b565b6110e36020830184611097565b9392505050565b600060208201905081810360008301526111048184610f3a565b905092915050565b60006020820190506111216000830184610f98565b92915050565b600060208201905061113c6000830184610fa7565b92915050565b6000602082019050818103600083015261115b81610fb6565b9050919050565b6000602082019050818103600083015261117b81610fd9565b9050919050565b6000602082019050818103600083015261119b81610ffc565b9050919050565b600060208201905081810360008301526111bb8161101f565b9050919050565b600060208201905081810360008301526111db81611042565b9050919050565b600060208201905081810360008301526111fb81611065565b9050919050565b60006020820190506112176000830184611097565b92915050565b6000611227611238565b90506112338282611439565b919050565b6000604051905090565b600067ffffffffffffffff82111561125d5761125c611571565b5b602082029050602081019050919050565b6000819050602082019050919050565b600081519050919050565b6000602082019050919050565b600082825260208201905092915050565b600082825260208201905092915050565b60006112c3826113e7565b91506112ce836113e7565b9250827fffffffffffffffffffffffffffffffffffffffffffffffffffffffffffffffff03821115611303576113026114e4565b5b828201905092915050565b6000611319826113e7565b9150611324836113e7565b92508261133457611333611513565b5b828204905092915050565b600061134a826113e7565b9150611355836113e7565b9250817fffffffffffffffffffffffffffffffffffffffffffffffffffffffffffffffff048311821515161561138e5761138d6114e4565b5b828202905092915050565b60006113a4826113c7565b9050919050565b60006113b6826113c7565b9050919050565b6000819050919050565b600073ffffffffffffffffffffffffffffffffffffffff82169050919050565b6000819050919050565b60006113fc82611415565b9050919050565b600061140e826113e7565b9050919050565b600061142082611427565b9050919050565b6000611432826113c7565b9050919050565b611442826115b4565b810181811067ffffffffffffffff8211171561146157611460611571565b5b80604052505050565b6000611475826113e7565b91507fffffffffffffffffffffffffffffffffffffffffffffffffffffffffffffffff8214156114a8576114a76114e4565b5b600182019050919050565b60006114be826113e7565b91506114c9836113e7565b9250826114d9576114d8611513565b5b828206905092915050565b7f4e487b7100000000000000000000000000000000000000000000000000000000600052601160045260246000fd5b7f4e487b7100000000000000000000000000000000000000000000000000000000600052601260045260246000fd5b7f4e487b7100000000000000000000000000000000000000000000000000000000600052603260045260246000fd5b7f4e487b7100000000000000000000000000000000000000000000000000000000600052604160045260246000fd5b600080fd5b600080fd5b600080fd5b600080fd5b6000601f19601f8301169050919050565b7f43616e2774207374617274206472617720796574000000000000000000000000600082015250565b7f4f776e61626c653a206e6577206f776e657220697320746865207a65726f206160008201527f6464726573730000000000000000000000000000000000000000000000000000602082015250565b7f4f776e61626c653a2063616c6c6572206973206e6f7420746865206f776e6572600082015250565b7f5374696c6c20636c616d696e67206c6173742067616d65000000000000000000600082015250565b7f446f6e2774206861766520656e6f756768205553444320626c616e6163650000600082015250565b7f6e6f742d72616e646f6d697a6572000000000000000000000000000000000000600082015250565b6116ea81611399565b81146116f557600080fd5b50565b611701816113ab565b811461170c57600080fd5b50565b611718816113bd565b811461172357600080fd5b50565b61172f816113e7565b811461173a57600080fd5b5056fea26469706673582212206252fe49a07af16df7a127a0ab8a24c86c6b890458a4b52dabba64a9b683ce6564736f6c63430008070033","opcodes":"PUSH1 0x80 PUSH1 0x40 MSTORE PUSH20 0xD87BA7A50B2E7E660F678A895E4B72E7CB4CCD9C PUSH1 0x1 PUSH1 0x0 PUSH2 0x100 EXP DUP2 SLOAD DUP2 PUSH20 0xFFFFFFFFFFFFFFFFFFFFFFFFFFFFFFFFFFFFFFFF MUL NOT AND SWAP1 DUP4 PUSH20 0xFFFFFFFFFFFFFFFFFFFFFFFFFFFFFFFFFFFFFFFF AND MUL OR SWAP1 SSTORE POP PUSH20 0x923096DA90A3B60EB7E12723FA2E1547BA9236BC PUSH1 0x2 PUSH1 0x0 PUSH2 0x100 EXP DUP2 SLOAD DUP2 PUSH20 0xFFFFFFFFFFFFFFFFFFFFFFFFFFFFFFFFFFFFFFFF MUL NOT AND SWAP1 DUP4 PUSH20 0xFFFFFFFFFFFFFFFFFFFFFFFFFFFFFFFFFFFFFFFF AND MUL OR SWAP1 SSTORE POP PUSH5 0x9C8702B60 PUSH1 0x3 SSTORE CALLVALUE DUP1 ISZERO PUSH3 0xC4 JUMPI PUSH1 0x0 DUP1 REVERT JUMPDEST POP PUSH1 0x40 MLOAD PUSH3 0x1B8B CODESIZE SUB DUP1 PUSH3 0x1B8B DUP4 CODECOPY DUP2 DUP2 ADD PUSH1 0x40 MSTORE DUP2 ADD SWAP1 PUSH3 0xEA SWAP2 SWAP1 PUSH3 0x383 JUMP JUMPDEST PUSH3 0x10A PUSH3 0xFE PUSH3 0x237 PUSH1 0x20 SHL PUSH1 0x20 SHR JUMP JUMPDEST PUSH3 0x23F PUSH1 0x20 SHL PUSH1 0x20 SHR JUMP JUMPDEST DUP1 PUSH1 0x5 PUSH1 0x0 PUSH2 0x100 EXP DUP2 SLOAD DUP2 PUSH20 0xFFFFFFFFFFFFFFFFFFFFFFFFFFFFFFFFFFFFFFFF MUL NOT AND SWAP1 DUP4 PUSH20 0xFFFFFFFFFFFFFFFFFFFFFFFFFFFFFFFFFFFFFFFF AND MUL OR SWAP1 SSTORE POP PUSH5 0xE8D4A51000 PUSH1 0x6 DUP2 SWAP1 SSTORE POP PUSH5 0xBA43B7400 PUSH1 0x7 DUP2 SWAP1 SSTORE POP PUSH4 0x2CB41780 PUSH1 0x8 DUP2 SWAP1 SSTORE POP PUSH4 0x2CB41780 PUSH1 0x9 DUP2 SWAP1 SSTORE POP PUSH4 0x2160EC0 PUSH1 0xA DUP2 SWAP1 SSTORE POP PUSH4 0x2FAF080 PUSH1 0xB DUP2 SWAP1 SSTORE POP PUSH3 0xE4E1C0 PUSH1 0xC DUP2 SWAP1 SSTORE POP PUSH3 0x989680 PUSH1 0xD DUP2 SWAP1 SSTORE POP PUSH5 0x2540BE400 PUSH1 0x15 DUP2 SWAP1 SSTORE POP PUSH1 0x0 PUSH1 0x10 DUP2 SWAP1 SSTORE POP PUSH2 0x6F05 PUSH1 0x16 DUP2 SWAP1 SSTORE POP PUSH1 0x7 PUSH1 0xF DUP2 SWAP1 SSTORE POP PUSH1 0x2 PUSH1 0x11 DUP2 SWAP1 SSTORE POP PUSH1 0x1 PUSH1 0x13 DUP2 SWAP1 SSTORE POP PUSH1 0x40 MLOAD DUP1 PUSH1 0xC0 ADD PUSH1 0x40 MSTORE DUP1 PUSH1 0x0 PUSH1 0xFF AND DUP2 MSTORE PUSH1 0x20 ADD PUSH1 0x0 PUSH1 0xFF AND DUP2 MSTORE PUSH1 0x20 ADD PUSH1 0x0 PUSH1 0xFF AND DUP2 MSTORE PUSH1 0x20 ADD PUSH1 0x0 PUSH1 0xFF AND DUP2 MSTORE PUSH1 0x20 ADD PUSH1 0x0 PUSH1 0xFF AND DUP2 MSTORE PUSH1 0x20 ADD PUSH1 0x0 PUSH1 0xFF AND DUP2 MSTORE POP PUSH1 0x17 SWAP1 PUSH1 0x6 PUSH3 0x22F SWAP3 SWAP2 SWAP1 PUSH3 0x303 JUMP JUMPDEST POP POP PUSH3 0x408 JUMP JUMPDEST PUSH1 0x0 CALLER SWAP1 POP SWAP1 JUMP JUMPDEST PUSH1 0x0 DUP1 PUSH1 0x0 SWAP1 SLOAD SWAP1 PUSH2 0x100 EXP SWAP1 DIV PUSH20 0xFFFFFFFFFFFFFFFFFFFFFFFFFFFFFFFFFFFFFFFF AND SWAP1 POP DUP2 PUSH1 0x0 DUP1 PUSH2 0x100 EXP DUP2 SLOAD DUP2 PUSH20 0xFFFFFFFFFFFFFFFFFFFFFFFFFFFFFFFFFFFFFFFF MUL NOT AND SWAP1 DUP4 PUSH20 0xFFFFFFFFFFFFFFFFFFFFFFFFFFFFFFFFFFFFFFFF AND MUL OR SWAP1 SSTORE POP DUP2 PUSH20 0xFFFFFFFFFFFFFFFFFFFFFFFFFFFFFFFFFFFFFFFF AND DUP2 PUSH20 0xFFFFFFFFFFFFFFFFFFFFFFFFFFFFFFFFFFFFFFFF AND PUSH32 0x8BE0079C531659141344CD1FD0A4F28419497F9722A3DAAFE3B4186F6B6457E0 PUSH1 0x40 MLOAD PUSH1 0x40 MLOAD DUP1 SWAP2 SUB SWAP1 LOG3 POP POP JUMP JUMPDEST DUP3 PUSH1 0x6 DUP2 ADD SWAP3 DUP3 ISZERO PUSH3 0x33A JUMPI SWAP2 PUSH1 0x20 MUL DUP3 ADD JUMPDEST DUP3 DUP2 GT ISZERO PUSH3 0x339 JUMPI DUP3 MLOAD DUP3 SWAP1 PUSH1 0xFF AND SWAP1 SSTORE SWAP2 PUSH1 0x20 ADD SWAP2 SWAP1 PUSH1 0x1 ADD SWAP1 PUSH3 0x317 JUMP JUMPDEST JUMPDEST POP SWAP1 POP PUSH3 0x349 SWAP2 SWAP1 PUSH3 0x34D JUMP JUMPDEST POP SWAP1 JUMP JUMPDEST JUMPDEST DUP1 DUP3 GT ISZERO PUSH3 0x368 JUMPI PUSH1 0x0 DUP2 PUSH1 0x0 SWAP1 SSTORE POP PUSH1 0x1 ADD PUSH3 0x34E JUMP JUMPDEST POP SWAP1 JUMP JUMPDEST PUSH1 0x0 DUP2 MLOAD SWAP1 POP PUSH3 0x37D DUP2 PUSH3 0x3EE JUMP JUMPDEST SWAP3 SWAP2 POP POP JUMP JUMPDEST PUSH1 0x0 PUSH1 0x20 DUP3 DUP5 SUB SLT ISZERO PUSH3 0x39C JUMPI PUSH3 0x39B PUSH3 0x3E9 JUMP JUMPDEST JUMPDEST PUSH1 0x0 PUSH3 0x3AC DUP5 DUP3 DUP6 ADD PUSH3 0x36C JUMP JUMPDEST SWAP2 POP POP SWAP3 SWAP2 POP POP JUMP JUMPDEST PUSH1 0x0 PUSH3 0x3C2 DUP3 PUSH3 0x3C9 JUMP JUMPDEST SWAP1 POP SWAP2 SWAP1 POP JUMP JUMPDEST PUSH1 0x0 PUSH20 0xFFFFFFFFFFFFFFFFFFFFFFFFFFFFFFFFFFFFFFFF DUP3 AND SWAP1 POP SWAP2 SWAP1 POP JUMP JUMPDEST PUSH1 0x0 DUP1 REVERT JUMPDEST PUSH3 0x3F9 DUP2 PUSH3 0x3B5 JUMP JUMPDEST DUP2 EQ PUSH3 0x405 JUMPI PUSH1 0x0 DUP1 REVERT JUMPDEST POP JUMP JUMPDEST PUSH2 0x1773 DUP1 PUSH3 0x418 PUSH1 0x0 CODECOPY PUSH1 0x0 RETURN INVALID PUSH1 0x80 PUSH1 0x40 MSTORE CALLVALUE DUP1 ISZERO PUSH2 0x10 JUMPI PUSH1 0x0 DUP1 REVERT JUMPDEST POP PUSH1 0x4 CALLDATASIZE LT PUSH2 0x121 JUMPI PUSH1 0x0 CALLDATALOAD PUSH1 0xE0 SHR DUP1 PUSH4 0xB21443F6 GT PUSH2 0xAD JUMPI DUP1 PUSH4 0xE2F273BD GT PUSH2 0x71 JUMPI DUP1 PUSH4 0xE2F273BD EQ PUSH2 0x294 JUMPI DUP1 PUSH4 0xEBE93CAF EQ PUSH2 0x2B0 JUMPI DUP1 PUSH4 0xF04A9DCA EQ PUSH2 0x2CC JUMPI DUP1 PUSH4 0xF10FB584 EQ PUSH2 0x2FC JUMPI DUP1 PUSH4 0xF2FDE38B EQ PUSH2 0x31A JUMPI PUSH2 0x121 JUMP JUMPDEST DUP1 PUSH4 0xB21443F6 EQ PUSH2 0x218 JUMPI DUP1 PUSH4 0xBE37E18A EQ PUSH2 0x234 JUMPI DUP1 PUSH4 0xC3058DC5 EQ PUSH2 0x250 JUMPI DUP1 PUSH4 0xD56E64A2 EQ PUSH2 0x25A JUMPI DUP1 PUSH4 0xD72DB90F EQ PUSH2 0x278 JUMPI PUSH2 0x121 JUMP JUMPDEST DUP1 PUSH4 0x4E1C0A4A GT PUSH2 0xF4 JUMPI DUP1 PUSH4 0x4E1C0A4A EQ PUSH2 0x198 JUMPI DUP1 PUSH4 0x715018A6 EQ PUSH2 0x1B6 JUMPI DUP1 PUSH4 0x84350E1D EQ PUSH2 0x1C0 JUMPI DUP1 PUSH4 0x8DA5CB5B EQ PUSH2 0x1DE JUMPI DUP1 PUSH4 0x9F09A908 EQ PUSH2 0x1FC JUMPI PUSH2 0x121 JUMP JUMPDEST DUP1 PUSH4 0xBD4013F EQ PUSH2 0x126 JUMPI DUP1 PUSH4 0x1BC187BF EQ PUSH2 0x144 JUMPI DUP1 PUSH4 0x1DC69A57 EQ PUSH2 0x160 JUMPI DUP1 PUSH4 0x3C7D612B EQ PUSH2 0x17C JUMPI JUMPDEST PUSH1 0x0 DUP1 REVERT JUMPDEST PUSH2 0x12E PUSH2 0x336 JUMP JUMPDEST PUSH1 0x40 MLOAD PUSH2 0x13B SWAP2 SWAP1 PUSH2 0x1202 JUMP JUMPDEST PUSH1 0x40 MLOAD DUP1 SWAP2 SUB SWAP1 RETURN JUMPDEST PUSH2 0x15E PUSH1 0x4 DUP1 CALLDATASIZE SUB DUP2 ADD SWAP1 PUSH2 0x159 SWAP2 SWAP1 PUSH2 0xD96 JUMP JUMPDEST PUSH2 0x340 JUMP JUMPDEST STOP JUMPDEST PUSH2 0x17A PUSH1 0x4 DUP1 CALLDATASIZE SUB DUP2 ADD SWAP1 PUSH2 0x175 SWAP2 SWAP1 PUSH2 0xE79 JUMP JUMPDEST PUSH2 0x38C JUMP JUMPDEST STOP JUMPDEST PUSH2 0x196 PUSH1 0x4 DUP1 CALLDATASIZE SUB DUP2 ADD SWAP1 PUSH2 0x191 SWAP2 SWAP1 PUSH2 0xE79 JUMP JUMPDEST PUSH2 0x39E JUMP JUMPDEST STOP JUMPDEST PUSH2 0x1A0 PUSH2 0x3B0 JUMP JUMPDEST PUSH1 0x40 MLOAD PUSH2 0x1AD SWAP2 SWAP1 PUSH2 0x1202 JUMP JUMPDEST PUSH1 0x40 MLOAD DUP1 SWAP2 SUB SWAP1 RETURN JUMPDEST PUSH2 0x1BE PUSH2 0x3BA JUMP JUMPDEST STOP JUMPDEST PUSH2 0x1C8 PUSH2 0x3CE JUMP JUMPDEST PUSH1 0x40 MLOAD PUSH2 0x1D5 SWAP2 SWAP1 PUSH2 0x10EA JUMP JUMPDEST PUSH1 0x40 MLOAD DUP1 SWAP2 SUB SWAP1 RETURN JUMPDEST PUSH2 0x1E6 PUSH2 0x42D JUMP JUMPDEST PUSH1 0x40 MLOAD PUSH2 0x1F3 SWAP2 SWAP1 PUSH2 0x10A6 JUMP JUMPDEST PUSH1 0x40 MLOAD DUP1 SWAP2 SUB SWAP1 RETURN JUMPDEST PUSH2 0x216 PUSH1 0x4 DUP1 CALLDATASIZE SUB DUP2 ADD SWAP1 PUSH2 0x211 SWAP2 SWAP1 PUSH2 0xE79 JUMP JUMPDEST PUSH2 0x456 JUMP JUMPDEST STOP JUMPDEST PUSH2 0x232 PUSH1 0x4 DUP1 CALLDATASIZE SUB DUP2 ADD SWAP1 PUSH2 0x22D SWAP2 SWAP1 PUSH2 0xDF0 JUMP JUMPDEST PUSH2 0x468 JUMP JUMPDEST STOP JUMPDEST PUSH2 0x24E PUSH1 0x4 DUP1 CALLDATASIZE SUB DUP2 ADD SWAP1 PUSH2 0x249 SWAP2 SWAP1 PUSH2 0xE79 JUMP JUMPDEST PUSH2 0x4E1 JUMP JUMPDEST STOP JUMPDEST PUSH2 0x258 PUSH2 0x4F3 JUMP JUMPDEST STOP JUMPDEST PUSH2 0x262 PUSH2 0x5DE JUMP JUMPDEST PUSH1 0x40 MLOAD PUSH2 0x26F SWAP2 SWAP1 PUSH2 0x1202 JUMP JUMPDEST PUSH1 0x40 MLOAD DUP1 SWAP2 SUB SWAP1 RETURN JUMPDEST PUSH2 0x292 PUSH1 0x4 DUP1 CALLDATASIZE SUB DUP2 ADD SWAP1 PUSH2 0x28D SWAP2 SWAP1 PUSH2 0xE79 JUMP JUMPDEST PUSH2 0x5E8 JUMP JUMPDEST STOP JUMPDEST PUSH2 0x2AE PUSH1 0x4 DUP1 CALLDATASIZE SUB DUP2 ADD SWAP1 PUSH2 0x2A9 SWAP2 SWAP1 PUSH2 0xDC3 JUMP JUMPDEST PUSH2 0x5FA JUMP JUMPDEST STOP JUMPDEST PUSH2 0x2CA PUSH1 0x4 DUP1 CALLDATASIZE SUB DUP2 ADD SWAP1 PUSH2 0x2C5 SWAP2 SWAP1 PUSH2 0xED3 JUMP JUMPDEST PUSH2 0x646 JUMP JUMPDEST STOP JUMPDEST PUSH2 0x2E6 PUSH1 0x4 DUP1 CALLDATASIZE SUB DUP2 ADD SWAP1 PUSH2 0x2E1 SWAP2 SWAP1 PUSH2 0xE79 JUMP JUMPDEST PUSH2 0x9E6 JUMP JUMPDEST PUSH1 0x40 MLOAD PUSH2 0x2F3 SWAP2 SWAP1 PUSH2 0x10EA JUMP JUMPDEST PUSH1 0x40 MLOAD DUP1 SWAP2 SUB SWAP1 RETURN JUMPDEST PUSH2 0x304 PUSH2 0xA9B JUMP JUMPDEST PUSH1 0x40 MLOAD PUSH2 0x311 SWAP2 SWAP1 PUSH2 0x110C JUMP JUMPDEST PUSH1 0x40 MLOAD DUP1 SWAP2 SUB SWAP1 RETURN JUMPDEST PUSH2 0x334 PUSH1 0x4 DUP1 CALLDATASIZE SUB DUP2 ADD SWAP1 PUSH2 0x32F SWAP2 SWAP1 PUSH2 0xD96 JUMP JUMPDEST PUSH2 0xAC1 JUMP JUMPDEST STOP JUMPDEST PUSH1 0x0 PUSH1 0x10 SLOAD SWAP1 POP SWAP1 JUMP JUMPDEST PUSH2 0x348 PUSH2 0xB45 JUMP JUMPDEST DUP1 PUSH1 0x4 PUSH1 0x0 PUSH2 0x100 EXP DUP2 SLOAD DUP2 PUSH20 0xFFFFFFFFFFFFFFFFFFFFFFFFFFFFFFFFFFFFFFFF MUL NOT AND SWAP1 DUP4 PUSH20 0xFFFFFFFFFFFFFFFFFFFFFFFFFFFFFFFFFFFFFFFF AND MUL OR SWAP1 SSTORE POP POP JUMP JUMPDEST PUSH2 0x394 PUSH2 0xB45 JUMP JUMPDEST DUP1 PUSH1 0x11 DUP2 SWAP1 SSTORE POP POP JUMP JUMPDEST PUSH2 0x3A6 PUSH2 0xB45 JUMP JUMPDEST DUP1 PUSH1 0x16 DUP2 SWAP1 SSTORE POP POP JUMP JUMPDEST PUSH1 0x0 PUSH1 0x14 SLOAD SWAP1 POP SWAP1 JUMP JUMPDEST PUSH2 0x3C2 PUSH2 0xB45 JUMP JUMPDEST PUSH2 0x3CC PUSH1 0x0 PUSH2 0xBC3 JUMP JUMPDEST JUMP JUMPDEST PUSH1 0x60 DUP1 PUSH1 0x0 JUMPDEST PUSH1 0x6 DUP2 LT ISZERO PUSH2 0x425 JUMPI PUSH1 0x17 DUP2 PUSH1 0x6 DUP2 LT PUSH2 0x3F1 JUMPI PUSH2 0x3F0 PUSH2 0x1542 JUMP JUMPDEST JUMPDEST ADD SLOAD DUP3 DUP3 DUP2 MLOAD DUP2 LT PUSH2 0x406 JUMPI PUSH2 0x405 PUSH2 0x1542 JUMP JUMPDEST JUMPDEST PUSH1 0x20 MUL PUSH1 0x20 ADD ADD DUP2 DUP2 MSTORE POP POP DUP1 DUP1 PUSH2 0x41D SWAP1 PUSH2 0x146A JUMP JUMPDEST SWAP2 POP POP PUSH2 0x3D4 JUMP JUMPDEST POP DUP1 SWAP2 POP POP SWAP1 JUMP JUMPDEST PUSH1 0x0 DUP1 PUSH1 0x0 SWAP1 SLOAD SWAP1 PUSH2 0x100 EXP SWAP1 DIV PUSH20 0xFFFFFFFFFFFFFFFFFFFFFFFFFFFFFFFFFFFFFFFF AND SWAP1 POP SWAP1 JUMP JUMPDEST PUSH2 0x45E PUSH2 0xB45 JUMP JUMPDEST DUP1 PUSH1 0xF DUP2 SWAP1 SSTORE POP POP JUMP JUMPDEST PUSH2 0x470 PUSH2 0xB45 JUMP JUMPDEST DUP2 PUSH20 0xFFFFFFFFFFFFFFFFFFFFFFFFFFFFFFFFFFFFFFFF AND PUSH4 0x2465F8F5 CALLER DUP4 PUSH1 0x40 MLOAD DUP4 PUSH4 0xFFFFFFFF AND PUSH1 0xE0 SHL DUP2 MSTORE PUSH1 0x4 ADD PUSH2 0x4AB SWAP3 SWAP2 SWAP1 PUSH2 0x10C1 JUMP JUMPDEST PUSH1 0x0 PUSH1 0x40 MLOAD DUP1 DUP4 SUB DUP2 PUSH1 0x0 DUP8 DUP1 EXTCODESIZE ISZERO DUP1 ISZERO PUSH2 0x4C5 JUMPI PUSH1 0x0 DUP1 REVERT JUMPDEST POP GAS CALL ISZERO DUP1 ISZERO PUSH2 0x4D9 JUMPI RETURNDATASIZE PUSH1 0x0 DUP1 RETURNDATACOPY RETURNDATASIZE PUSH1 0x0 REVERT JUMPDEST POP POP POP POP POP POP JUMP JUMPDEST PUSH2 0x4E9 PUSH2 0xB45 JUMP JUMPDEST DUP1 PUSH1 0x13 DUP2 SWAP1 SSTORE POP POP JUMP JUMPDEST PUSH2 0x4FB PUSH2 0xB45 JUMP JUMPDEST PUSH1 0x0 PUSH1 0x2 PUSH1 0x0 SWAP1 SLOAD SWAP1 PUSH2 0x100 EXP SWAP1 DIV PUSH20 0xFFFFFFFFFFFFFFFFFFFFFFFFFFFFFFFFFFFFFFFF AND PUSH20 0xFFFFFFFFFFFFFFFFFFFFFFFFFFFFFFFFFFFFFFFF AND PUSH4 0xD845A4B3 PUSH2 0xC350 PUSH1 0x40 MLOAD DUP3 PUSH4 0xFFFFFFFF AND PUSH1 0xE0 SHL DUP2 MSTORE PUSH1 0x4 ADD PUSH2 0x55A SWAP2 SWAP1 PUSH2 0x1127 JUMP JUMPDEST PUSH1 0x20 PUSH1 0x40 MLOAD DUP1 DUP4 SUB DUP2 PUSH1 0x0 DUP8 DUP1 EXTCODESIZE ISZERO DUP1 ISZERO PUSH2 0x574 JUMPI PUSH1 0x0 DUP1 REVERT JUMPDEST POP GAS CALL ISZERO DUP1 ISZERO PUSH2 0x588 JUMPI RETURNDATASIZE PUSH1 0x0 DUP1 RETURNDATACOPY RETURNDATASIZE PUSH1 0x0 REVERT JUMPDEST POP POP POP POP PUSH1 0x40 MLOAD RETURNDATASIZE PUSH1 0x1F NOT PUSH1 0x1F DUP3 ADD AND DUP3 ADD DUP1 PUSH1 0x40 MSTORE POP DUP2 ADD SWAP1 PUSH2 0x5AC SWAP2 SWAP1 PUSH2 0xEA6 JUMP JUMPDEST SWAP1 POP DUP1 PUSH32 0xFC25EE6CEF1E5B8C4E7A2F8D3BBB15CA76BB693B8B5644B3B481E1831C09530B PUSH1 0x40 MLOAD PUSH1 0x40 MLOAD DUP1 SWAP2 SUB SWAP1 LOG2 POP JUMP JUMPDEST PUSH1 0x0 PUSH1 0x12 SLOAD SWAP1 POP SWAP1 JUMP JUMPDEST PUSH2 0x5F0 PUSH2 0xB45 JUMP JUMPDEST DUP1 PUSH1 0x15 DUP2 SWAP1 SSTORE POP POP JUMP JUMPDEST PUSH2 0x602 PUSH2 0xB45 JUMP JUMPDEST DUP1 PUSH1 0x5 PUSH1 0x0 PUSH2 0x100 EXP DUP2 SLOAD DUP2 PUSH20 0xFFFFFFFFFFFFFFFFFFFFFFFFFFFFFFFFFFFFFFFF MUL NOT AND SWAP1 DUP4 PUSH20 0xFFFFFFFFFFFFFFFFFFFFFFFFFFFFFFFFFFFFFFFF AND MUL OR SWAP1 SSTORE POP POP JUMP JUMPDEST CALLER PUSH20 0xFFFFFFFFFFFFFFFFFFFFFFFFFFFFFFFFFFFFFFFF AND PUSH1 0x2 PUSH1 0x0 SWAP1 SLOAD SWAP1 PUSH2 0x100 EXP SWAP1 DIV PUSH20 0xFFFFFFFFFFFFFFFFFFFFFFFFFFFFFFFFFFFFFFFF AND PUSH20 0xFFFFFFFFFFFFFFFFFFFFFFFFFFFFFFFFFFFFFFFF AND EQ PUSH2 0x6D6 JUMPI PUSH1 0x40 MLOAD PUSH32 0x8C379A000000000000000000000000000000000000000000000000000000000 DUP2 MSTORE PUSH1 0x4 ADD PUSH2 0x6CD SWAP1 PUSH2 0x11E2 JUMP JUMPDEST PUSH1 0x40 MLOAD DUP1 SWAP2 SUB SWAP1 REVERT JUMPDEST PUSH1 0x0 PUSH1 0x1 PUSH1 0x0 SWAP1 SLOAD SWAP1 PUSH2 0x100 EXP SWAP1 DIV PUSH20 0xFFFFFFFFFFFFFFFFFFFFFFFFFFFFFFFFFFFFFFFF AND PUSH20 0xFFFFFFFFFFFFFFFFFFFFFFFFFFFFFFFFFFFFFFFF AND PUSH4 0x70A08231 ADDRESS PUSH1 0x40 MLOAD DUP3 PUSH4 0xFFFFFFFF AND PUSH1 0xE0 SHL DUP2 MSTORE PUSH1 0x4 ADD PUSH2 0x733 SWAP2 SWAP1 PUSH2 0x10A6 JUMP JUMPDEST PUSH1 0x20 PUSH1 0x40 MLOAD DUP1 DUP4 SUB DUP2 DUP7 DUP1 EXTCODESIZE ISZERO DUP1 ISZERO PUSH2 0x74B JUMPI PUSH1 0x0 DUP1 REVERT JUMPDEST POP GAS STATICCALL ISZERO DUP1 ISZERO PUSH2 0x75F JUMPI RETURNDATASIZE PUSH1 0x0 DUP1 RETURNDATACOPY RETURNDATASIZE PUSH1 0x0 REVERT JUMPDEST POP POP POP POP PUSH1 0x40 MLOAD RETURNDATASIZE PUSH1 0x1F NOT PUSH1 0x1F DUP3 ADD AND DUP3 ADD DUP1 PUSH1 0x40 MSTORE POP DUP2 ADD SWAP1 PUSH2 0x783 SWAP2 SWAP1 PUSH2 0xEA6 JUMP JUMPDEST SWAP1 POP PUSH1 0x15 SLOAD DUP2 LT ISZERO PUSH2 0x7CA JUMPI PUSH1 0x40 MLOAD PUSH32 0x8C379A000000000000000000000000000000000000000000000000000000000 DUP2 MSTORE PUSH1 0x4 ADD PUSH2 0x7C1 SWAP1 PUSH2 0x11C2 JUMP JUMPDEST PUSH1 0x40 MLOAD DUP1 SWAP2 SUB SWAP1 REVERT JUMPDEST PUSH1 0x10 SLOAD NUMBER GT PUSH2 0x80E JUMPI PUSH1 0x40 MLOAD PUSH32 0x8C379A000000000000000000000000000000000000000000000000000000000 DUP2 MSTORE PUSH1 0x4 ADD PUSH2 0x805 SWAP1 PUSH2 0x1142 JUMP JUMPDEST PUSH1 0x40 MLOAD DUP1 SWAP2 SUB SWAP1 REVERT JUMPDEST PUSH1 0x14 SLOAD NUMBER GT PUSH2 0x852 JUMPI PUSH1 0x40 MLOAD PUSH32 0x8C379A000000000000000000000000000000000000000000000000000000000 DUP2 MSTORE PUSH1 0x4 ADD PUSH2 0x849 SWAP1 PUSH2 0x11A2 JUMP JUMPDEST PUSH1 0x40 MLOAD DUP1 SWAP2 SUB SWAP1 REVERT JUMPDEST DUP3 PUSH32 0x987867A7321BBFCD6E0481B5DB1BA3B9C6F8EA97E988708A6F91EA2B27BCE245 DUP4 PUSH1 0x0 SHR PUSH1 0x40 MLOAD PUSH2 0x885 SWAP2 SWAP1 PUSH2 0x1202 JUMP JUMPDEST PUSH1 0x40 MLOAD DUP1 SWAP2 SUB SWAP1 LOG2 PUSH1 0x0 ADDRESS PUSH20 0xFFFFFFFFFFFFFFFFFFFFFFFFFFFFFFFFFFFFFFFF AND PUSH4 0xF04A9DCA DUP5 PUSH1 0x0 SHR PUSH1 0x40 MLOAD DUP3 PUSH4 0xFFFFFFFF AND PUSH1 0xE0 SHL DUP2 MSTORE PUSH1 0x4 ADD PUSH2 0x8CB SWAP2 SWAP1 PUSH2 0x1202 JUMP JUMPDEST PUSH1 0x0 PUSH1 0x40 MLOAD DUP1 DUP4 SUB DUP2 DUP7 DUP1 EXTCODESIZE ISZERO DUP1 ISZERO PUSH2 0x8E3 JUMPI PUSH1 0x0 DUP1 REVERT JUMPDEST POP GAS STATICCALL ISZERO DUP1 ISZERO PUSH2 0x8F7 JUMPI RETURNDATASIZE PUSH1 0x0 DUP1 RETURNDATACOPY RETURNDATASIZE PUSH1 0x0 REVERT JUMPDEST POP POP POP POP PUSH1 0x40 MLOAD RETURNDATASIZE PUSH1 0x0 DUP3 RETURNDATACOPY RETURNDATASIZE PUSH1 0x1F NOT PUSH1 0x1F DUP3 ADD AND DUP3 ADD DUP1 PUSH1 0x40 MSTORE POP DUP2 ADD SWAP1 PUSH2 0x920 SWAP2 SWAP1 PUSH2 0xE30 JUMP JUMPDEST SWAP1 POP PUSH1 0x0 JUMPDEST DUP2 MLOAD DUP2 LT ISZERO PUSH2 0x975 JUMPI DUP2 DUP2 DUP2 MLOAD DUP2 LT PUSH2 0x941 JUMPI PUSH2 0x940 PUSH2 0x1542 JUMP JUMPDEST JUMPDEST PUSH1 0x20 MUL PUSH1 0x20 ADD ADD MLOAD PUSH1 0x17 DUP3 PUSH1 0x6 DUP2 LT PUSH2 0x95D JUMPI PUSH2 0x95C PUSH2 0x1542 JUMP JUMPDEST JUMPDEST ADD DUP2 SWAP1 SSTORE POP DUP1 DUP1 PUSH2 0x96D SWAP1 PUSH2 0x146A JUMP JUMPDEST SWAP2 POP POP PUSH2 0x925 JUMP JUMPDEST POP DUP2 PUSH1 0xE DUP2 SWAP1 SSTORE POP PUSH1 0xF SLOAD PUSH1 0x16 SLOAD PUSH2 0x98D SWAP2 SWAP1 PUSH2 0x133F JUMP JUMPDEST NUMBER PUSH2 0x998 SWAP2 SWAP1 PUSH2 0x12B8 JUMP JUMPDEST PUSH1 0x10 DUP2 SWAP1 SSTORE POP PUSH1 0x11 SLOAD PUSH1 0x16 SLOAD PUSH2 0x9AE SWAP2 SWAP1 PUSH2 0x133F JUMP JUMPDEST NUMBER PUSH2 0x9B9 SWAP2 SWAP1 PUSH2 0x12B8 JUMP JUMPDEST PUSH1 0x12 DUP2 SWAP1 SSTORE POP PUSH1 0x13 SLOAD PUSH1 0x16 SLOAD PUSH2 0x9CF SWAP2 SWAP1 PUSH2 0x133F JUMP JUMPDEST NUMBER PUSH2 0x9DA SWAP2 SWAP1 PUSH2 0x12B8 JUMP JUMPDEST PUSH1 0x14 DUP2 SWAP1 SSTORE POP POP POP POP POP JUMP JUMPDEST PUSH1 0x60 DUP1 PUSH1 0x0 PUSH1 0x3 SLOAD DUP5 PUSH2 0x9F9 SWAP2 SWAP1 PUSH2 0x14B3 JUMP JUMPDEST SWAP1 POP PUSH1 0x19 DUP2 PUSH2 0xA08 SWAP2 SWAP1 PUSH2 0x14B3 JUMP JUMPDEST DUP3 PUSH1 0x5 DUP2 MLOAD DUP2 LT PUSH2 0xA1C JUMPI PUSH2 0xA1B PUSH2 0x1542 JUMP JUMPDEST JUMPDEST PUSH1 0x20 MUL PUSH1 0x20 ADD ADD DUP2 DUP2 MSTORE POP POP PUSH1 0x19 DUP2 PUSH2 0xA35 SWAP2 SWAP1 PUSH2 0x130E JUMP JUMPDEST SWAP1 POP PUSH1 0x0 JUMPDEST PUSH1 0x4 DUP2 GT PUSH2 0xA90 JUMPI PUSH1 0x46 DUP3 PUSH2 0xA4F SWAP2 SWAP1 PUSH2 0x14B3 JUMP JUMPDEST DUP4 DUP3 DUP2 MLOAD DUP2 LT PUSH2 0xA62 JUMPI PUSH2 0xA61 PUSH2 0x1542 JUMP JUMPDEST JUMPDEST PUSH1 0x20 MUL PUSH1 0x20 ADD ADD DUP2 DUP2 MSTORE POP POP PUSH1 0x46 DUP3 PUSH2 0xA7B SWAP2 SWAP1 PUSH2 0x130E JUMP JUMPDEST SWAP2 POP DUP1 DUP1 PUSH2 0xA88 SWAP1 PUSH2 0x146A JUMP JUMPDEST SWAP2 POP POP PUSH2 0xA3A JUMP JUMPDEST POP DUP2 SWAP3 POP POP POP SWAP2 SWAP1 POP JUMP JUMPDEST PUSH1 0x2 PUSH1 0x0 SWAP1 SLOAD SWAP1 PUSH2 0x100 EXP SWAP1 DIV PUSH20 0xFFFFFFFFFFFFFFFFFFFFFFFFFFFFFFFFFFFFFFFF AND DUP2 JUMP JUMPDEST PUSH2 0xAC9 PUSH2 0xB45 JUMP JUMPDEST PUSH1 0x0 PUSH20 0xFFFFFFFFFFFFFFFFFFFFFFFFFFFFFFFFFFFFFFFF AND DUP2 PUSH20 0xFFFFFFFFFFFFFFFFFFFFFFFFFFFFFFFFFFFFFFFF AND EQ ISZERO PUSH2 0xB39 JUMPI PUSH1 0x40 MLOAD PUSH32 0x8C379A000000000000000000000000000000000000000000000000000000000 DUP2 MSTORE PUSH1 0x4 ADD PUSH2 0xB30 SWAP1 PUSH2 0x1162 JUMP JUMPDEST PUSH1 0x40 MLOAD DUP1 SWAP2 SUB SWAP1 REVERT JUMPDEST PUSH2 0xB42 DUP2 PUSH2 0xBC3 JUMP JUMPDEST POP JUMP JUMPDEST PUSH2 0xB4D PUSH2 0xC87 JUMP JUMPDEST PUSH20 0xFFFFFFFFFFFFFFFFFFFFFFFFFFFFFFFFFFFFFFFF AND PUSH2 0xB6B PUSH2 0x42D JUMP JUMPDEST PUSH20 0xFFFFFFFFFFFFFFFFFFFFFFFFFFFFFFFFFFFFFFFF AND EQ PUSH2 0xBC1 JUMPI PUSH1 0x40 MLOAD PUSH32 0x8C379A000000000000000000000000000000000000000000000000000000000 DUP2 MSTORE PUSH1 0x4 ADD PUSH2 0xBB8 SWAP1 PUSH2 0x1182 JUMP JUMPDEST PUSH1 0x40 MLOAD DUP1 SWAP2 SUB SWAP1 REVERT JUMPDEST JUMP JUMPDEST PUSH1 0x0 DUP1 PUSH1 0x0 SWAP1 SLOAD SWAP1 PUSH2 0x100 EXP SWAP1 DIV PUSH20 0xFFFFFFFFFFFFFFFFFFFFFFFFFFFFFFFFFFFFFFFF AND SWAP1 POP DUP2 PUSH1 0x0 DUP1 PUSH2 0x100 EXP DUP2 SLOAD DUP2 PUSH20 0xFFFFFFFFFFFFFFFFFFFFFFFFFFFFFFFFFFFFFFFF MUL NOT AND SWAP1 DUP4 PUSH20 0xFFFFFFFFFFFFFFFFFFFFFFFFFFFFFFFFFFFFFFFF AND MUL OR SWAP1 SSTORE POP DUP2 PUSH20 0xFFFFFFFFFFFFFFFFFFFFFFFFFFFFFFFFFFFFFFFF AND DUP2 PUSH20 0xFFFFFFFFFFFFFFFFFFFFFFFFFFFFFFFFFFFFFFFF AND PUSH32 0x8BE0079C531659141344CD1FD0A4F28419497F9722A3DAAFE3B4186F6B6457E0 PUSH1 0x40 MLOAD PUSH1 0x40 MLOAD DUP1 SWAP2 SUB SWAP1 LOG3 POP POP JUMP JUMPDEST PUSH1 0x0 CALLER SWAP1 POP SWAP1 JUMP JUMPDEST PUSH1 0x0 PUSH2 0xCA2 PUSH2 0xC9D DUP5 PUSH2 0x1242 JUMP JUMPDEST PUSH2 0x121D JUMP JUMPDEST SWAP1 POP DUP1 DUP4 DUP3 MSTORE PUSH1 0x20 DUP3 ADD SWAP1 POP DUP3 DUP6 PUSH1 0x20 DUP7 MUL DUP3 ADD GT ISZERO PUSH2 0xCC5 JUMPI PUSH2 0xCC4 PUSH2 0x15A5 JUMP JUMPDEST JUMPDEST PUSH1 0x0 JUMPDEST DUP6 DUP2 LT ISZERO PUSH2 0xCF5 JUMPI DUP2 PUSH2 0xCDB DUP9 DUP3 PUSH2 0xD81 JUMP JUMPDEST DUP5 MSTORE PUSH1 0x20 DUP5 ADD SWAP4 POP PUSH1 0x20 DUP4 ADD SWAP3 POP POP PUSH1 0x1 DUP2 ADD SWAP1 POP PUSH2 0xCC8 JUMP JUMPDEST POP POP POP SWAP4 SWAP3 POP POP POP JUMP JUMPDEST PUSH1 0x0 DUP2 CALLDATALOAD SWAP1 POP PUSH2 0xD0E DUP2 PUSH2 0x16E1 JUMP JUMPDEST SWAP3 SWAP2 POP POP JUMP JUMPDEST PUSH1 0x0 DUP2 CALLDATALOAD SWAP1 POP PUSH2 0xD23 DUP2 PUSH2 0x16F8 JUMP JUMPDEST SWAP3 SWAP2 POP POP JUMP JUMPDEST PUSH1 0x0 DUP3 PUSH1 0x1F DUP4 ADD SLT PUSH2 0xD3E JUMPI PUSH2 0xD3D PUSH2 0x15A0 JUMP JUMPDEST JUMPDEST DUP2 MLOAD PUSH2 0xD4E DUP5 DUP3 PUSH1 0x20 DUP7 ADD PUSH2 0xC8F JUMP JUMPDEST SWAP2 POP POP SWAP3 SWAP2 POP POP JUMP JUMPDEST PUSH1 0x0 DUP2 CALLDATALOAD SWAP1 POP PUSH2 0xD66 DUP2 PUSH2 0x170F JUMP JUMPDEST SWAP3 SWAP2 POP POP JUMP JUMPDEST PUSH1 0x0 DUP2 CALLDATALOAD SWAP1 POP PUSH2 0xD7B DUP2 PUSH2 0x1726 JUMP JUMPDEST SWAP3 SWAP2 POP POP JUMP JUMPDEST PUSH1 0x0 DUP2 MLOAD SWAP1 POP PUSH2 0xD90 DUP2 PUSH2 0x1726 JUMP JUMPDEST SWAP3 SWAP2 POP POP JUMP JUMPDEST PUSH1 0x0 PUSH1 0x20 DUP3 DUP5 SUB SLT ISZERO PUSH2 0xDAC JUMPI PUSH2 0xDAB PUSH2 0x15AF JUMP JUMPDEST JUMPDEST PUSH1 0x0 PUSH2 0xDBA DUP5 DUP3 DUP6 ADD PUSH2 0xCFF JUMP JUMPDEST SWAP2 POP POP SWAP3 SWAP2 POP POP JUMP JUMPDEST PUSH1 0x0 PUSH1 0x20 DUP3 DUP5 SUB SLT ISZERO PUSH2 0xDD9 JUMPI PUSH2 0xDD8 PUSH2 0x15AF JUMP JUMPDEST JUMPDEST PUSH1 0x0 PUSH2 0xDE7 DUP5 DUP3 DUP6 ADD PUSH2 0xD14 JUMP JUMPDEST SWAP2 POP POP SWAP3 SWAP2 POP POP JUMP JUMPDEST PUSH1 0x0 DUP1 PUSH1 0x40 DUP4 DUP6 SUB SLT ISZERO PUSH2 0xE07 JUMPI PUSH2 0xE06 PUSH2 0x15AF JUMP JUMPDEST JUMPDEST PUSH1 0x0 PUSH2 0xE15 DUP6 DUP3 DUP7 ADD PUSH2 0xCFF JUMP JUMPDEST SWAP3 POP POP PUSH1 0x20 PUSH2 0xE26 DUP6 DUP3 DUP7 ADD PUSH2 0xD6C JUMP JUMPDEST SWAP2 POP POP SWAP3 POP SWAP3 SWAP1 POP JUMP JUMPDEST PUSH1 0x0 PUSH1 0x20 DUP3 DUP5 SUB SLT ISZERO PUSH2 0xE46 JUMPI PUSH2 0xE45 PUSH2 0x15AF JUMP JUMPDEST JUMPDEST PUSH1 0x0 DUP3 ADD MLOAD PUSH8 0xFFFFFFFFFFFFFFFF DUP2 GT ISZERO PUSH2 0xE64 JUMPI PUSH2 0xE63 PUSH2 0x15AA JUMP JUMPDEST JUMPDEST PUSH2 0xE70 DUP5 DUP3 DUP6 ADD PUSH2 0xD29 JUMP JUMPDEST SWAP2 POP POP SWAP3 SWAP2 POP POP JUMP JUMPDEST PUSH1 0x0 PUSH1 0x20 DUP3 DUP5 SUB SLT ISZERO PUSH2 0xE8F JUMPI PUSH2 0xE8E PUSH2 0x15AF JUMP JUMPDEST JUMPDEST PUSH1 0x0 PUSH2 0xE9D DUP5 DUP3 DUP6 ADD PUSH2 0xD6C JUMP JUMPDEST SWAP2 POP POP SWAP3 SWAP2 POP POP JUMP JUMPDEST PUSH1 0x0 PUSH1 0x20 DUP3 DUP5 SUB SLT ISZERO PUSH2 0xEBC JUMPI PUSH2 0xEBB PUSH2 0x15AF JUMP JUMPDEST JUMPDEST PUSH1 0x0 PUSH2 0xECA DUP5 DUP3 DUP6 ADD PUSH2 0xD81 JUMP JUMPDEST SWAP2 POP POP SWAP3 SWAP2 POP POP JUMP JUMPDEST PUSH1 0x0 DUP1 PUSH1 0x40 DUP4 DUP6 SUB SLT ISZERO PUSH2 0xEEA JUMPI PUSH2 0xEE9 PUSH2 0x15AF JUMP JUMPDEST JUMPDEST PUSH1 0x0 PUSH2 0xEF8 DUP6 DUP3 DUP7 ADD PUSH2 0xD6C JUMP JUMPDEST SWAP3 POP POP PUSH1 0x20 PUSH2 0xF09 DUP6 DUP3 DUP7 ADD PUSH2 0xD57 JUMP JUMPDEST SWAP2 POP POP SWAP3 POP SWAP3 SWAP1 POP JUMP JUMPDEST PUSH1 0x0 PUSH2 0xF1F DUP4 DUP4 PUSH2 0x1088 JUMP JUMPDEST PUSH1 0x20 DUP4 ADD SWAP1 POP SWAP3 SWAP2 POP POP JUMP JUMPDEST PUSH2 0xF34 DUP2 PUSH2 0x1399 JUMP JUMPDEST DUP3 MSTORE POP POP JUMP JUMPDEST PUSH1 0x0 PUSH2 0xF45 DUP3 PUSH2 0x127E JUMP JUMPDEST PUSH2 0xF4F DUP2 DUP6 PUSH2 0x1296 JUMP JUMPDEST SWAP4 POP PUSH2 0xF5A DUP4 PUSH2 0x126E JUMP JUMPDEST DUP1 PUSH1 0x0 JUMPDEST DUP4 DUP2 LT ISZERO PUSH2 0xF8B JUMPI DUP2 MLOAD PUSH2 0xF72 DUP9 DUP3 PUSH2 0xF13 JUMP JUMPDEST SWAP8 POP PUSH2 0xF7D DUP4 PUSH2 0x1289 JUMP JUMPDEST SWAP3 POP POP PUSH1 0x1 DUP2 ADD SWAP1 POP PUSH2 0xF5E JUMP JUMPDEST POP DUP6 SWAP4 POP POP POP POP SWAP3 SWAP2 POP POP JUMP JUMPDEST PUSH2 0xFA1 DUP2 PUSH2 0x13F1 JUMP JUMPDEST DUP3 MSTORE POP POP JUMP JUMPDEST PUSH2 0xFB0 DUP2 PUSH2 0x1403 JUMP JUMPDEST DUP3 MSTORE POP POP JUMP JUMPDEST PUSH1 0x0 PUSH2 0xFC3 PUSH1 0x14 DUP4 PUSH2 0x12A7 JUMP JUMPDEST SWAP2 POP PUSH2 0xFCE DUP3 PUSH2 0x15C5 JUMP JUMPDEST PUSH1 0x20 DUP3 ADD SWAP1 POP SWAP2 SWAP1 POP JUMP JUMPDEST PUSH1 0x0 PUSH2 0xFE6 PUSH1 0x26 DUP4 PUSH2 0x12A7 JUMP JUMPDEST SWAP2 POP PUSH2 0xFF1 DUP3 PUSH2 0x15EE JUMP JUMPDEST PUSH1 0x40 DUP3 ADD SWAP1 POP SWAP2 SWAP1 POP JUMP JUMPDEST PUSH1 0x0 PUSH2 0x1009 PUSH1 0x20 DUP4 PUSH2 0x12A7 JUMP JUMPDEST SWAP2 POP PUSH2 0x1014 DUP3 PUSH2 0x163D JUMP JUMPDEST PUSH1 0x20 DUP3 ADD SWAP1 POP SWAP2 SWAP1 POP JUMP JUMPDEST PUSH1 0x0 PUSH2 0x102C PUSH1 0x17 DUP4 PUSH2 0x12A7 JUMP JUMPDEST SWAP2 POP PUSH2 0x1037 DUP3 PUSH2 0x1666 JUMP JUMPDEST PUSH1 0x20 DUP3 ADD SWAP1 POP SWAP2 SWAP1 POP JUMP JUMPDEST PUSH1 0x0 PUSH2 0x104F PUSH1 0x1E DUP4 PUSH2 0x12A7 JUMP JUMPDEST SWAP2 POP PUSH2 0x105A DUP3 PUSH2 0x168F JUMP JUMPDEST PUSH1 0x20 DUP3 ADD SWAP1 POP SWAP2 SWAP1 POP JUMP JUMPDEST PUSH1 0x0 PUSH2 0x1072 PUSH1 0xE DUP4 PUSH2 0x12A7 JUMP JUMPDEST SWAP2 POP PUSH2 0x107D DUP3 PUSH2 0x16B8 JUMP JUMPDEST PUSH1 0x20 DUP3 ADD SWAP1 POP SWAP2 SWAP1 POP JUMP JUMPDEST PUSH2 0x1091 DUP2 PUSH2 0x13E7 JUMP JUMPDEST DUP3 MSTORE POP POP JUMP JUMPDEST PUSH2 0x10A0 DUP2 PUSH2 0x13E7 JUMP JUMPDEST DUP3 MSTORE POP POP JUMP JUMPDEST PUSH1 0x0 PUSH1 0x20 DUP3 ADD SWAP1 POP PUSH2 0x10BB PUSH1 0x0 DUP4 ADD DUP5 PUSH2 0xF2B JUMP JUMPDEST SWAP3 SWAP2 POP POP JUMP JUMPDEST PUSH1 0x0 PUSH1 0x40 DUP3 ADD SWAP1 POP PUSH2 0x10D6 PUSH1 0x0 DUP4 ADD DUP6 PUSH2 0xF2B JUMP JUMPDEST PUSH2 0x10E3 PUSH1 0x20 DUP4 ADD DUP5 PUSH2 0x1097 JUMP JUMPDEST SWAP4 SWAP3 POP POP POP JUMP JUMPDEST PUSH1 0x0 PUSH1 0x20 DUP3 ADD SWAP1 POP DUP2 DUP2 SUB PUSH1 0x0 DUP4 ADD MSTORE PUSH2 0x1104 DUP2 DUP5 PUSH2 0xF3A JUMP JUMPDEST SWAP1 POP SWAP3 SWAP2 POP POP JUMP JUMPDEST PUSH1 0x0 PUSH1 0x20 DUP3 ADD SWAP1 POP PUSH2 0x1121 PUSH1 0x0 DUP4 ADD DUP5 PUSH2 0xF98 JUMP JUMPDEST SWAP3 SWAP2 POP POP JUMP JUMPDEST PUSH1 0x0 PUSH1 0x20 DUP3 ADD SWAP1 POP PUSH2 0x113C PUSH1 0x0 DUP4 ADD DUP5 PUSH2 0xFA7 JUMP JUMPDEST SWAP3 SWAP2 POP POP JUMP JUMPDEST PUSH1 0x0 PUSH1 0x20 DUP3 ADD SWAP1 POP DUP2 DUP2 SUB PUSH1 0x0 DUP4 ADD MSTORE PUSH2 0x115B DUP2 PUSH2 0xFB6 JUMP JUMPDEST SWAP1 POP SWAP2 SWAP1 POP JUMP JUMPDEST PUSH1 0x0 PUSH1 0x20 DUP3 ADD SWAP1 POP DUP2 DUP2 SUB PUSH1 0x0 DUP4 ADD MSTORE PUSH2 0x117B DUP2 PUSH2 0xFD9 JUMP JUMPDEST SWAP1 POP SWAP2 SWAP1 POP JUMP JUMPDEST PUSH1 0x0 PUSH1 0x20 DUP3 ADD SWAP1 POP DUP2 DUP2 SUB PUSH1 0x0 DUP4 ADD MSTORE PUSH2 0x119B DUP2 PUSH2 0xFFC JUMP JUMPDEST SWAP1 POP SWAP2 SWAP1 POP JUMP JUMPDEST PUSH1 0x0 PUSH1 0x20 DUP3 ADD SWAP1 POP DUP2 DUP2 SUB PUSH1 0x0 DUP4 ADD MSTORE PUSH2 0x11BB DUP2 PUSH2 0x101F JUMP JUMPDEST SWAP1 POP SWAP2 SWAP1 POP JUMP JUMPDEST PUSH1 0x0 PUSH1 0x20 DUP3 ADD SWAP1 POP DUP2 DUP2 SUB PUSH1 0x0 DUP4 ADD MSTORE PUSH2 0x11DB DUP2 PUSH2 0x1042 JUMP JUMPDEST SWAP1 POP SWAP2 SWAP1 POP JUMP JUMPDEST PUSH1 0x0 PUSH1 0x20 DUP3 ADD SWAP1 POP DUP2 DUP2 SUB PUSH1 0x0 DUP4 ADD MSTORE PUSH2 0x11FB DUP2 PUSH2 0x1065 JUMP JUMPDEST SWAP1 POP SWAP2 SWAP1 POP JUMP JUMPDEST PUSH1 0x0 PUSH1 0x20 DUP3 ADD SWAP1 POP PUSH2 0x1217 PUSH1 0x0 DUP4 ADD DUP5 PUSH2 0x1097 JUMP JUMPDEST SWAP3 SWAP2 POP POP JUMP JUMPDEST PUSH1 0x0 PUSH2 0x1227 PUSH2 0x1238 JUMP JUMPDEST SWAP1 POP PUSH2 0x1233 DUP3 DUP3 PUSH2 0x1439 JUMP JUMPDEST SWAP2 SWAP1 POP JUMP JUMPDEST PUSH1 0x0 PUSH1 0x40 MLOAD SWAP1 POP SWAP1 JUMP JUMPDEST PUSH1 0x0 PUSH8 0xFFFFFFFFFFFFFFFF DUP3 GT ISZERO PUSH2 0x125D JUMPI PUSH2 0x125C PUSH2 0x1571 JUMP JUMPDEST JUMPDEST PUSH1 0x20 DUP3 MUL SWAP1 POP PUSH1 0x20 DUP2 ADD SWAP1 POP SWAP2 SWAP1 POP JUMP JUMPDEST PUSH1 0x0 DUP2 SWAP1 POP PUSH1 0x20 DUP3 ADD SWAP1 POP SWAP2 SWAP1 POP JUMP JUMPDEST PUSH1 0x0 DUP2 MLOAD SWAP1 POP SWAP2 SWAP1 POP JUMP JUMPDEST PUSH1 0x0 PUSH1 0x20 DUP3 ADD SWAP1 POP SWAP2 SWAP1 POP JUMP JUMPDEST PUSH1 0x0 DUP3 DUP3 MSTORE PUSH1 0x20 DUP3 ADD SWAP1 POP SWAP3 SWAP2 POP POP JUMP JUMPDEST PUSH1 0x0 DUP3 DUP3 MSTORE PUSH1 0x20 DUP3 ADD SWAP1 POP SWAP3 SWAP2 POP POP JUMP JUMPDEST PUSH1 0x0 PUSH2 0x12C3 DUP3 PUSH2 0x13E7 JUMP JUMPDEST SWAP2 POP PUSH2 0x12CE DUP4 PUSH2 0x13E7 JUMP JUMPDEST SWAP3 POP DUP3 PUSH32 0xFFFFFFFFFFFFFFFFFFFFFFFFFFFFFFFFFFFFFFFFFFFFFFFFFFFFFFFFFFFFFFFF SUB DUP3 GT ISZERO PUSH2 0x1303 JUMPI PUSH2 0x1302 PUSH2 0x14E4 JUMP JUMPDEST JUMPDEST DUP3 DUP3 ADD SWAP1 POP SWAP3 SWAP2 POP POP JUMP JUMPDEST PUSH1 0x0 PUSH2 0x1319 DUP3 PUSH2 0x13E7 JUMP JUMPDEST SWAP2 POP PUSH2 0x1324 DUP4 PUSH2 0x13E7 JUMP JUMPDEST SWAP3 POP DUP3 PUSH2 0x1334 JUMPI PUSH2 0x1333 PUSH2 0x1513 JUMP JUMPDEST JUMPDEST DUP3 DUP3 DIV SWAP1 POP SWAP3 SWAP2 POP POP JUMP JUMPDEST PUSH1 0x0 PUSH2 0x134A DUP3 PUSH2 0x13E7 JUMP JUMPDEST SWAP2 POP PUSH2 0x1355 DUP4 PUSH2 0x13E7 JUMP JUMPDEST SWAP3 POP DUP2 PUSH32 0xFFFFFFFFFFFFFFFFFFFFFFFFFFFFFFFFFFFFFFFFFFFFFFFFFFFFFFFFFFFFFFFF DIV DUP4 GT DUP3 ISZERO ISZERO AND ISZERO PUSH2 0x138E JUMPI PUSH2 0x138D PUSH2 0x14E4 JUMP JUMPDEST JUMPDEST DUP3 DUP3 MUL SWAP1 POP SWAP3 SWAP2 POP POP JUMP JUMPDEST PUSH1 0x0 PUSH2 0x13A4 DUP3 PUSH2 0x13C7 JUMP JUMPDEST SWAP1 POP SWAP2 SWAP1 POP JUMP JUMPDEST PUSH1 0x0 PUSH2 0x13B6 DUP3 PUSH2 0x13C7 JUMP JUMPDEST SWAP1 POP SWAP2 SWAP1 POP JUMP JUMPDEST PUSH1 0x0 DUP2 SWAP1 POP SWAP2 SWAP1 POP JUMP JUMPDEST PUSH1 0x0 PUSH20 0xFFFFFFFFFFFFFFFFFFFFFFFFFFFFFFFFFFFFFFFF DUP3 AND SWAP1 POP SWAP2 SWAP1 POP JUMP JUMPDEST PUSH1 0x0 DUP2 SWAP1 POP SWAP2 SWAP1 POP JUMP JUMPDEST PUSH1 0x0 PUSH2 0x13FC DUP3 PUSH2 0x1415 JUMP JUMPDEST SWAP1 POP SWAP2 SWAP1 POP JUMP JUMPDEST PUSH1 0x0 PUSH2 0x140E DUP3 PUSH2 0x13E7 JUMP JUMPDEST SWAP1 POP SWAP2 SWAP1 POP JUMP JUMPDEST PUSH1 0x0 PUSH2 0x1420 DUP3 PUSH2 0x1427 JUMP JUMPDEST SWAP1 POP SWAP2 SWAP1 POP JUMP JUMPDEST PUSH1 0x0 PUSH2 0x1432 DUP3 PUSH2 0x13C7 JUMP JUMPDEST SWAP1 POP SWAP2 SWAP1 POP JUMP JUMPDEST PUSH2 0x1442 DUP3 PUSH2 0x15B4 JUMP JUMPDEST DUP2 ADD DUP2 DUP2 LT PUSH8 0xFFFFFFFFFFFFFFFF DUP3 GT OR ISZERO PUSH2 0x1461 JUMPI PUSH2 0x1460 PUSH2 0x1571 JUMP JUMPDEST JUMPDEST DUP1 PUSH1 0x40 MSTORE POP POP POP JUMP JUMPDEST PUSH1 0x0 PUSH2 0x1475 DUP3 PUSH2 0x13E7 JUMP JUMPDEST SWAP2 POP PUSH32 0xFFFFFFFFFFFFFFFFFFFFFFFFFFFFFFFFFFFFFFFFFFFFFFFFFFFFFFFFFFFFFFFF DUP3 EQ ISZERO PUSH2 0x14A8 JUMPI PUSH2 0x14A7 PUSH2 0x14E4 JUMP JUMPDEST JUMPDEST PUSH1 0x1 DUP3 ADD SWAP1 POP SWAP2 SWAP1 POP JUMP JUMPDEST PUSH1 0x0 PUSH2 0x14BE DUP3 PUSH2 0x13E7 JUMP JUMPDEST SWAP2 POP PUSH2 0x14C9 DUP4 PUSH2 0x13E7 JUMP JUMPDEST SWAP3 POP DUP3 PUSH2 0x14D9 JUMPI PUSH2 0x14D8 PUSH2 0x1513 JUMP JUMPDEST JUMPDEST DUP3 DUP3 MOD SWAP1 POP SWAP3 SWAP2 POP POP JUMP JUMPDEST PUSH32 0x4E487B7100000000000000000000000000000000000000000000000000000000 PUSH1 0x0 MSTORE PUSH1 0x11 PUSH1 0x4 MSTORE PUSH1 0x24 PUSH1 0x0 REVERT JUMPDEST PUSH32 0x4E487B7100000000000000000000000000000000000000000000000000000000 PUSH1 0x0 MSTORE PUSH1 0x12 PUSH1 0x4 MSTORE PUSH1 0x24 PUSH1 0x0 REVERT JUMPDEST PUSH32 0x4E487B7100000000000000000000000000000000000000000000000000000000 PUSH1 0x0 MSTORE PUSH1 0x32 PUSH1 0x4 MSTORE PUSH1 0x24 PUSH1 0x0 REVERT JUMPDEST PUSH32 0x4E487B7100000000000000000000000000000000000000000000000000000000 PUSH1 0x0 MSTORE PUSH1 0x41 PUSH1 0x4 MSTORE PUSH1 0x24 PUSH1 0x0 REVERT JUMPDEST PUSH1 0x0 DUP1 REVERT JUMPDEST PUSH1 0x0 DUP1 REVERT JUMPDEST PUSH1 0x0 DUP1 REVERT JUMPDEST PUSH1 0x0 DUP1 REVERT JUMPDEST PUSH1 0x0 PUSH1 0x1F NOT PUSH1 0x1F DUP4 ADD AND SWAP1 POP SWAP2 SWAP1 POP JUMP JUMPDEST PUSH32 0x43616E2774207374617274206472617720796574000000000000000000000000 PUSH1 0x0 DUP3 ADD MSTORE POP JUMP JUMPDEST PUSH32 0x4F776E61626C653A206E6577206F776E657220697320746865207A65726F2061 PUSH1 0x0 DUP3 ADD MSTORE PUSH32 0x6464726573730000000000000000000000000000000000000000000000000000 PUSH1 0x20 DUP3 ADD MSTORE POP JUMP JUMPDEST PUSH32 0x4F776E61626C653A2063616C6C6572206973206E6F7420746865206F776E6572 PUSH1 0x0 DUP3 ADD MSTORE POP JUMP JUMPDEST PUSH32 0x5374696C6C20636C616D696E67206C6173742067616D65000000000000000000 PUSH1 0x0 DUP3 ADD MSTORE POP JUMP JUMPDEST PUSH32 0x446F6E2774206861766520656E6F756768205553444320626C616E6163650000 PUSH1 0x0 DUP3 ADD MSTORE POP JUMP JUMPDEST PUSH32 0x6E6F742D72616E646F6D697A6572000000000000000000000000000000000000 PUSH1 0x0 DUP3 ADD MSTORE POP JUMP JUMPDEST PUSH2 0x16EA DUP2 PUSH2 0x1399 JUMP JUMPDEST DUP2 EQ PUSH2 0x16F5 JUMPI PUSH1 0x0 DUP1 REVERT JUMPDEST POP JUMP JUMPDEST PUSH2 0x1701 DUP2 PUSH2 0x13AB JUMP JUMPDEST DUP2 EQ PUSH2 0x170C JUMPI PUSH1 0x0 DUP1 REVERT JUMPDEST POP JUMP JUMPDEST PUSH2 0x1718 DUP2 PUSH2 0x13BD JUMP JUMPDEST DUP2 EQ PUSH2 0x1723 JUMPI PUSH1 0x0 DUP1 REVERT JUMPDEST POP JUMP JUMPDEST PUSH2 0x172F DUP2 PUSH2 0x13E7 JUMP JUMPDEST DUP2 EQ PUSH2 0x173A JUMPI PUSH1 0x0 DUP1 REVERT JUMPDEST POP JUMP INVALID LOG2 PUSH5 0x6970667358 0x22 SLT KECCAK256 PUSH3 0x52FE49 LOG0 PUSH27 0xF16DF7A127A0AB8A24C86C6B890458A4B52DABBA64A9B683CE6564 PUSH20 0x6F6C634300080700330000000000000000000000 "},"methodIdentifiers":{"convertIntToWinningNumbers(uint256)":"f04a9dca","decideWinners()":"c3058dc5","getNewDrawEligibileBlockNumber()":"0bd4013f","getWinningNumbers()":"84350e1d","getWinningPhaseOneEndBlockNumber()":"d56e64a2","getWinningPhaseTwoEndBlockNumber()":"4e1c0a4a","owner()":"8da5cb5b","randomizer()":"f10fb584","randomizerCallback(uint256,bytes32)":"ebe93caf","randomizerWithdraw(address,uint256)":"b21443f6","renounceOwnership()":"715018a6","transferOwnership(address)":"f2fde38b","updateAdmin(address)":"e2f273bd","updateBlockPerDay(uint256)":"3c7d612b","updateMinUSDCDrawBalance(uint256)":"d72db90f","updateNewDrawEligibileDays(uint256)":"9f09a908","updatePhaseOneDays(uint256)":"1dc69a57","updatePhaseTwoDays(uint256)":"be37e18a","updateVRFAddress(address)":"1bc187bf"}}}}}