{
  "_format": "hh-sol-artifact-1",
  "contractName": "MillionJackpot",
  "sourceName": "contracts/MillionJackpot.sol",
  "abi": [
    {
      "inputs": [
        {
          "internalType": "address payable",
          "name": "_admin",
          "type": "address"
        }
      ],
      "stateMutability": "nonpayable",
      "type": "constructor"
    },
    {
      "anonymous": false,
      "inputs": [
        {
          "indexed": true,
          "internalType": "address",
          "name": "previousOwner",
          "type": "address"
        },
        {
          "indexed": true,
          "internalType": "address",
          "name": "newOwner",
          "type": "address"
        }
      ],
      "name": "OwnershipTransferred",
      "type": "event"
    },
    {
      "inputs": [],
      "name": "claim",
      "outputs": [],
      "stateMutability": "nonpayable",
      "type": "function"
    },
    {
      "inputs": [],
      "name": "claimJackpot",
      "outputs": [],
      "stateMutability": "nonpayable",
      "type": "function"
    },
    {
      "inputs": [],
      "name": "decideWinners",
      "outputs": [],
      "stateMutability": "nonpayable",
      "type": "function"
    },
    {
      "inputs": [
        {
          "internalType": "uint256[]",
          "name": "numbers",
          "type": "uint256[]"
        }
      ],
      "name": "fulfillRandom",
      "outputs": [],
      "stateMutability": "nonpayable",
      "type": "function"
    },
    {
      "inputs": [],
      "name": "getWinningNumbers",
      "outputs": [
        {
          "internalType": "uint256[]",
          "name": "",
          "type": "uint256[]"
        }
      ],
      "stateMutability": "view",
      "type": "function"
    },
    {
      "inputs": [],
      "name": "owner",
      "outputs": [
        {
          "internalType": "address",
          "name": "",
          "type": "address"
        }
      ],
      "stateMutability": "view",
      "type": "function"
    },
    {
      "inputs": [
        {
          "internalType": "uint256",
          "name": "daysForUnlock",
          "type": "uint256"
        }
      ],
      "name": "placeBet",
      "outputs": [],
      "stateMutability": "payable",
      "type": "function"
    },
    {
      "inputs": [],
      "name": "renounceOwnership",
      "outputs": [],
      "stateMutability": "nonpayable",
      "type": "function"
    },
    {
      "inputs": [
        {
          "internalType": "address",
          "name": "newOwner",
          "type": "address"
        }
      ],
      "name": "transferOwnership",
      "outputs": [],
      "stateMutability": "nonpayable",
      "type": "function"
    },
    {
      "inputs": [
        {
          "internalType": "address payable",
          "name": "_admin",
          "type": "address"
        }
      ],
      "name": "updateAdmin",
      "outputs": [],
      "stateMutability": "nonpayable",
      "type": "function"
    },
    {
      "inputs": [
        {
          "internalType": "uint256",
          "name": "blocks",
          "type": "uint256"
        }
      ],
      "name": "updateBlockPerDay",
      "outputs": [],
      "stateMutability": "nonpayable",
      "type": "function"
    },
    {
      "inputs": [
        {
          "internalType": "uint256",
          "name": "minBalance",
          "type": "uint256"
        }
      ],
      "name": "updateMinUSDTDrawBalance",
      "outputs": [],
      "stateMutability": "nonpayable",
      "type": "function"
    },
    {
      "inputs": [
        {
          "internalType": "uint256",
          "name": "eligibleDays",
          "type": "uint256"
        }
      ],
      "name": "updateNewDrawEligibileDays",
      "outputs": [],
      "stateMutability": "nonpayable",
      "type": "function"
    },
    {
      "inputs": [
        {
          "internalType": "uint256",
          "name": "phaseOneDays",
          "type": "uint256"
        }
      ],
      "name": "updatePhaseOneDays",
      "outputs": [],
      "stateMutability": "nonpayable",
      "type": "function"
    },
    {
      "inputs": [
        {
          "internalType": "uint256",
          "name": "phaseTwoDays",
          "type": "uint256"
        }
      ],
      "name": "updatePhaseTwoDays",
      "outputs": [],
      "stateMutability": "nonpayable",
      "type": "function"
    },
    {
      "inputs": [
        {
          "internalType": "address",
          "name": "vrfAddress",
          "type": "address"
        }
      ],
      "name": "updateVRFAddress",
      "outputs": [],
      "stateMutability": "nonpayable",
      "type": "function"
    }
  ],
  "bytecode": "0x608060405273337610d27c682e347c9cd60bd4b3b107c9d34ddd600160006101000a81548173ffffffffffffffffffffffffffffffffffffffff021916908373ffffffffffffffffffffffffffffffffffffffff160217905550736a2aad07396b36fe02a22b33cf443582f682c82f600260006101000a81548173ffffffffffffffffffffffffffffffffffffffff021916908373ffffffffffffffffffffffffffffffffffffffff160217905550348015620000bb57600080fd5b50604051620015d3380380620015d38339818101604052810190620000e191906200037a565b62000101620000f56200022e60201b60201c565b6200023660201b60201c565b80600460006101000a81548173ffffffffffffffffffffffffffffffffffffffff021916908373ffffffffffffffffffffffffffffffffffffffff16021790555064e8d4a51000600581905550640ba43b7400600681905550632cb41780600781905550632cb417806008819055506302160ec06009819055506302faf080600a8190555062e4e1c0600b8190555062989680600c819055506402540be4006014819055506000600f81905550616f056015819055506007600e81905550600260108190555060016012819055506040518060c00160405280600060ff168152602001600060ff168152602001600060ff168152602001600060ff168152602001600060ff168152602001600060ff16815250601690600662000226929190620002fa565b5050620003ff565b600033905090565b60008060009054906101000a900473ffffffffffffffffffffffffffffffffffffffff169050816000806101000a81548173ffffffffffffffffffffffffffffffffffffffff021916908373ffffffffffffffffffffffffffffffffffffffff1602179055508173ffffffffffffffffffffffffffffffffffffffff168173ffffffffffffffffffffffffffffffffffffffff167f8be0079c531659141344cd1fd0a4f28419497f9722a3daafe3b4186f6b6457e060405160405180910390a35050565b826006810192821562000331579160200282015b8281111562000330578251829060ff169055916020019190600101906200030e565b5b50905062000340919062000344565b5090565b5b808211156200035f57600081600090555060010162000345565b5090565b6000815190506200037481620003e5565b92915050565b600060208284031215620003935762000392620003e0565b5b6000620003a38482850162000363565b91505092915050565b6000620003b982620003c0565b9050919050565b600073ffffffffffffffffffffffffffffffffffffffff82169050919050565b600080fd5b620003f081620003ac565b8114620003fc57600080fd5b50565b6111c4806200040f6000396000f3fe6080604052600436106100f35760003560e01c80638da5cb5b1161008a578063e288ea6411610059578063e288ea64146102a5578063e2f273bd146102bc578063e8e31e03146102e5578063f2fde38b1461030e576100f3565b80638da5cb5b146102115780639f09a9081461023c578063be37e18a14610265578063c3058dc51461028e576100f3565b80633c7d612b116100c65780633c7d612b1461018f5780634e71d92d146101b8578063715018a6146101cf57806384350e1d146101e6576100f3565b80630ec5c804146100f857806310fe7c48146101215780631bc187bf1461013d5780631dc69a5714610166575b600080fd5b34801561010457600080fd5b5061011f600480360381019061011a9190610b68565b610337565b005b61013b60048036038101906101369190610b68565b610349565b005b34801561014957600080fd5b50610164600480360381019061015f9190610ac1565b61034c565b005b34801561017257600080fd5b5061018d60048036038101906101889190610b68565b610398565b005b34801561019b57600080fd5b506101b660048036038101906101b19190610b68565b6103aa565b005b3480156101c457600080fd5b506101cd6103bc565b005b3480156101db57600080fd5b506101e46103be565b005b3480156101f257600080fd5b506101fb6103d2565b6040516102089190610d43565b60405180910390f35b34801561021d57600080fd5b50610226610431565b6040516102339190610d28565b60405180910390f35b34801561024857600080fd5b50610263600480360381019061025e9190610b68565b61045a565b005b34801561027157600080fd5b5061028c60048036038101906102879190610b68565b61046c565b005b34801561029a57600080fd5b506102a361047e565b005b3480156102b157600080fd5b506102ba61052b565b005b3480156102c857600080fd5b506102e360048036038101906102de9190610aee565b61052d565b005b3480156102f157600080fd5b5061030c60048036038101906103079190610b1b565b610579565b005b34801561031a57600080fd5b5061033560048036038101906103309190610ac1565b610849565b005b61033f6108cd565b8060148190555050565b50565b6103546108cd565b80600360006101000a81548173ffffffffffffffffffffffffffffffffffffffff021916908373ffffffffffffffffffffffffffffffffffffffff16021790555050565b6103a06108cd565b8060108190555050565b6103b26108cd565b8060158190555050565b565b6103c66108cd565b6103d0600061094b565b565b60608060005b600681101561042957601681600681106103f5576103f4610fe5565b5b015482828151811061040a57610409610fe5565b5b602002602001018181525050808061042190610f6d565b9150506103d8565b508091505090565b60008060009054906101000a900473ffffffffffffffffffffffffffffffffffffffff16905090565b6104626108cd565b80600e8190555050565b6104746108cd565b8060128190555050565b6104866108cd565b600360009054906101000a900473ffffffffffffffffffffffffffffffffffffffff1673ffffffffffffffffffffffffffffffffffffffff1663e0c862896040518163ffffffff1660e01b8152600401602060405180830381600087803b1580156104f057600080fd5b505af1158015610504573d6000803e3d6000fd5b505050506040513d601f19601f820116820180604052508101906105289190610b95565b50565b565b6105356108cd565b80600460006101000a81548173ffffffffffffffffffffffffffffffffffffffff021916908373ffffffffffffffffffffffffffffffffffffffff16021790555050565b3373ffffffffffffffffffffffffffffffffffffffff16600260009054906101000a900473ffffffffffffffffffffffffffffffffffffffff1673ffffffffffffffffffffffffffffffffffffffff1614610609576040517f08c379a000000000000000000000000000000000000000000000000000000000815260040161060090610e05565b60405180910390fd5b6000600160009054906101000a900473ffffffffffffffffffffffffffffffffffffffff1673ffffffffffffffffffffffffffffffffffffffff166370a08231306040518263ffffffff1660e01b81526004016106669190610d28565b60206040518083038186803b15801561067e57600080fd5b505afa158015610692573d6000803e3d6000fd5b505050506040513d601f19601f820116820180604052508101906106b69190610b95565b90506014548110156106fd576040517f08c379a00000000000000000000000000000000000000000000000000000000081526004016106f490610da5565b60405180910390fd5b600f544311610741576040517f08c379a000000000000000000000000000000000000000000000000000000000815260040161073890610d65565b60405180910390fd5b6013544311610785576040517f08c379a000000000000000000000000000000000000000000000000000000000815260040161077c90610de5565b60405180910390fd5b60005b838390508110156107d9578383828181106107a6576107a5610fe5565b5b90506020020135601682600681106107c1576107c0610fe5565b5b018190555080806107d190610f6d565b915050610788565b5080600d81905550600e546015546107f19190610ec5565b436107fc9190610e6f565b600f819055506010546015546108129190610ec5565b4361081d9190610e6f565b6011819055506012546015546108339190610ec5565b4361083e9190610e6f565b601381905550505050565b6108516108cd565b600073ffffffffffffffffffffffffffffffffffffffff168173ffffffffffffffffffffffffffffffffffffffff1614156108c1576040517f08c379a00000000000000000000000000000000000000000000000000000000081526004016108b890610d85565b60405180910390fd5b6108ca8161094b565b50565b6108d5610a0f565b73ffffffffffffffffffffffffffffffffffffffff166108f3610431565b73ffffffffffffffffffffffffffffffffffffffff1614610949576040517f08c379a000000000000000000000000000000000000000000000000000000000815260040161094090610dc5565b60405180910390fd5b565b60008060009054906101000a900473ffffffffffffffffffffffffffffffffffffffff169050816000806101000a81548173ffffffffffffffffffffffffffffffffffffffff021916908373ffffffffffffffffffffffffffffffffffffffff1602179055508173ffffffffffffffffffffffffffffffffffffffff168173ffffffffffffffffffffffffffffffffffffffff167f8be0079c531659141344cd1fd0a4f28419497f9722a3daafe3b4186f6b6457e060405160405180910390a35050565b600033905090565b600081359050610a2681611149565b92915050565b600081359050610a3b81611160565b92915050565b60008083601f840112610a5757610a56611019565b5b8235905067ffffffffffffffff811115610a7457610a73611014565b5b602083019150836020820283011115610a9057610a8f61101e565b5b9250929050565b600081359050610aa681611177565b92915050565b600081519050610abb81611177565b92915050565b600060208284031215610ad757610ad6611028565b5b6000610ae584828501610a17565b91505092915050565b600060208284031215610b0457610b03611028565b5b6000610b1284828501610a2c565b91505092915050565b60008060208385031215610b3257610b31611028565b5b600083013567ffffffffffffffff811115610b5057610b4f611023565b5b610b5c85828601610a41565b92509250509250929050565b600060208284031215610b7e57610b7d611028565b5b6000610b8c84828501610a97565b91505092915050565b600060208284031215610bab57610baa611028565b5b6000610bb984828501610aac565b91505092915050565b6000610bce8383610d19565b60208301905092915050565b610be381610f1f565b82525050565b6000610bf482610e35565b610bfe8185610e4d565b9350610c0983610e25565b8060005b83811015610c3a578151610c218882610bc2565b9750610c2c83610e40565b925050600181019050610c0d565b5085935050505092915050565b6000610c54601483610e5e565b9150610c5f8261102d565b602082019050919050565b6000610c77602683610e5e565b9150610c8282611056565b604082019050919050565b6000610c9a601d83610e5e565b9150610ca5826110a5565b602082019050919050565b6000610cbd602083610e5e565b9150610cc8826110ce565b602082019050919050565b6000610ce0601783610e5e565b9150610ceb826110f7565b602082019050919050565b6000610d03601383610e5e565b9150610d0e82611120565b602082019050919050565b610d2281610f63565b82525050565b6000602082019050610d3d6000830184610bda565b92915050565b60006020820190508181036000830152610d5d8184610be9565b905092915050565b60006020820190508181036000830152610d7e81610c47565b9050919050565b60006020820190508181036000830152610d9e81610c6a565b9050919050565b60006020820190508181036000830152610dbe81610c8d565b9050919050565b60006020820190508181036000830152610dde81610cb0565b9050919050565b60006020820190508181036000830152610dfe81610cd3565b9050919050565b60006020820190508181036000830152610e1e81610cf6565b9050919050565b6000819050602082019050919050565b600081519050919050565b6000602082019050919050565b600082825260208201905092915050565b600082825260208201905092915050565b6000610e7a82610f63565b9150610e8583610f63565b9250827fffffffffffffffffffffffffffffffffffffffffffffffffffffffffffffffff03821115610eba57610eb9610fb6565b5b828201905092915050565b6000610ed082610f63565b9150610edb83610f63565b9250817fffffffffffffffffffffffffffffffffffffffffffffffffffffffffffffffff0483118215151615610f1457610f13610fb6565b5b828202905092915050565b6000610f2a82610f43565b9050919050565b6000610f3c82610f43565b9050919050565b600073ffffffffffffffffffffffffffffffffffffffff82169050919050565b6000819050919050565b6000610f7882610f63565b91507fffffffffffffffffffffffffffffffffffffffffffffffffffffffffffffffff821415610fab57610faa610fb6565b5b600182019050919050565b7f4e487b7100000000000000000000000000000000000000000000000000000000600052601160045260246000fd5b7f4e487b7100000000000000000000000000000000000000000000000000000000600052603260045260246000fd5b600080fd5b600080fd5b600080fd5b600080fd5b600080fd5b7f43616e2774207374617274206472617720796574000000000000000000000000600082015250565b7f4f776e61626c653a206e6577206f776e657220697320746865207a65726f206160008201527f6464726573730000000000000000000000000000000000000000000000000000602082015250565b7f446f6e2774206861766520656e6f7567682045544820626c616e616365000000600082015250565b7f4f776e61626c653a2063616c6c6572206973206e6f7420746865206f776e6572600082015250565b7f5374696c6c20636c616d696e67206c6173742067616d65000000000000000000600082015250565b7f6e6f742d7672662d636f6f7264696e61746f7200000000000000000000000000600082015250565b61115281610f1f565b811461115d57600080fd5b50565b61116981610f31565b811461117457600080fd5b50565b61118081610f63565b811461118b57600080fd5b5056fea2646970667358221220529f98dc7b39088e8b616913a33644c568e7ae7fbe1cd3d4002dd3fc96f70a5a64736f6c63430008070033",
  "linkReferences": {},
  "deployedLinkReferences": {}
}