{
  "_format": "hh-sol-artifact-1",
  "contractName": "MillionJackpot",
  "sourceName": "contracts/MillionJackpot.sol",
  "abi": [
    {
      "inputs": [
        {
          "internalType": "address payable",
          "name": "_admin",
          "type": "address"
        }
      ],
      "stateMutability": "nonpayable",
      "type": "constructor"
    },
    {
      "anonymous": false,
      "inputs": [
        {
          "indexed": true,
          "internalType": "uint256",
          "name": "id",
          "type": "uint256"
        }
      ],
      "name": "Flip",
      "type": "event"
    },
    {
      "anonymous": false,
      "inputs": [
        {
          "indexed": true,
          "internalType": "uint256",
          "name": "id",
          "type": "uint256"
        },
        {
          "indexed": false,
          "internalType": "uint256",
          "name": "number",
          "type": "uint256"
        }
      ],
      "name": "FlipResult",
      "type": "event"
    },
    {
      "anonymous": false,
      "inputs": [
        {
          "indexed": true,
          "internalType": "address",
          "name": "previousOwner",
          "type": "address"
        },
        {
          "indexed": true,
          "internalType": "address",
          "name": "newOwner",
          "type": "address"
        }
      ],
      "name": "OwnershipTransferred",
      "type": "event"
    },
    {
      "inputs": [
        {
          "internalType": "uint256",
          "name": "number",
          "type": "uint256"
        }
      ],
      "name": "convertIntToWinningNumbers",
      "outputs": [
        {
          "internalType": "uint256[6]",
          "name": "",
          "type": "uint256[6]"
        }
      ],
      "stateMutability": "view",
      "type": "function"
    },
    {
      "inputs": [],
      "name": "decideWinners",
      "outputs": [],
      "stateMutability": "nonpayable",
      "type": "function"
    },
    {
      "inputs": [],
      "name": "getNewDrawEligibileBlockNumber",
      "outputs": [
        {
          "internalType": "uint256",
          "name": "",
          "type": "uint256"
        }
      ],
      "stateMutability": "view",
      "type": "function"
    },
    {
      "inputs": [],
      "name": "getUSDCBalance",
      "outputs": [
        {
          "internalType": "uint256",
          "name": "",
          "type": "uint256"
        }
      ],
      "stateMutability": "view",
      "type": "function"
    },
    {
      "inputs": [],
      "name": "getWinningNumbers",
      "outputs": [
        {
          "internalType": "uint256[6]",
          "name": "",
          "type": "uint256[6]"
        }
      ],
      "stateMutability": "view",
      "type": "function"
    },
    {
      "inputs": [],
      "name": "getWinningPhaseOneEndBlockNumber",
      "outputs": [
        {
          "internalType": "uint256",
          "name": "",
          "type": "uint256"
        }
      ],
      "stateMutability": "view",
      "type": "function"
    },
    {
      "inputs": [],
      "name": "getWinningPhaseTwoEndBlockNumber",
      "outputs": [
        {
          "internalType": "uint256",
          "name": "",
          "type": "uint256"
        }
      ],
      "stateMutability": "view",
      "type": "function"
    },
    {
      "inputs": [],
      "name": "owner",
      "outputs": [
        {
          "internalType": "address",
          "name": "",
          "type": "address"
        }
      ],
      "stateMutability": "view",
      "type": "function"
    },
    {
      "inputs": [],
      "name": "randomizer",
      "outputs": [
        {
          "internalType": "contract IRandomizer",
          "name": "",
          "type": "address"
        }
      ],
      "stateMutability": "view",
      "type": "function"
    },
    {
      "inputs": [
        {
          "internalType": "uint256",
          "name": "_id",
          "type": "uint256"
        },
        {
          "internalType": "bytes32",
          "name": "_value",
          "type": "bytes32"
        }
      ],
      "name": "randomizerCallback",
      "outputs": [],
      "stateMutability": "nonpayable",
      "type": "function"
    },
    {
      "inputs": [
        {
          "internalType": "address",
          "name": "_randomizer",
          "type": "address"
        },
        {
          "internalType": "uint256",
          "name": "amount",
          "type": "uint256"
        }
      ],
      "name": "randomizerWithdraw",
      "outputs": [],
      "stateMutability": "nonpayable",
      "type": "function"
    },
    {
      "inputs": [],
      "name": "renounceOwnership",
      "outputs": [],
      "stateMutability": "nonpayable",
      "type": "function"
    },
    {
      "inputs": [
        {
          "internalType": "address",
          "name": "newOwner",
          "type": "address"
        }
      ],
      "name": "transferOwnership",
      "outputs": [],
      "stateMutability": "nonpayable",
      "type": "function"
    },
    {
      "inputs": [
        {
          "internalType": "address payable",
          "name": "_admin",
          "type": "address"
        }
      ],
      "name": "updateAdmin",
      "outputs": [],
      "stateMutability": "nonpayable",
      "type": "function"
    },
    {
      "inputs": [
        {
          "internalType": "uint256",
          "name": "blocks",
          "type": "uint256"
        }
      ],
      "name": "updateBlockPerDay",
      "outputs": [],
      "stateMutability": "nonpayable",
      "type": "function"
    },
    {
      "inputs": [
        {
          "internalType": "uint256",
          "name": "minBalance",
          "type": "uint256"
        }
      ],
      "name": "updateMinUSDCDrawBalance",
      "outputs": [],
      "stateMutability": "nonpayable",
      "type": "function"
    },
    {
      "inputs": [
        {
          "internalType": "uint256",
          "name": "eligibleDays",
          "type": "uint256"
        }
      ],
      "name": "updateNewDrawEligibileDays",
      "outputs": [],
      "stateMutability": "nonpayable",
      "type": "function"
    },
    {
      "inputs": [
        {
          "internalType": "uint256",
          "name": "phaseOneDays",
          "type": "uint256"
        }
      ],
      "name": "updatePhaseOneDays",
      "outputs": [],
      "stateMutability": "nonpayable",
      "type": "function"
    },
    {
      "inputs": [
        {
          "internalType": "uint256",
          "name": "phaseTwoDays",
          "type": "uint256"
        }
      ],
      "name": "updatePhaseTwoDays",
      "outputs": [],
      "stateMutability": "nonpayable",
      "type": "function"
    },
    {
      "inputs": [
        {
          "internalType": "address",
          "name": "vrfAddress",
          "type": "address"
        }
      ],
      "name": "updateVRFAddress",
      "outputs": [],
      "stateMutability": "nonpayable",
      "type": "function"
    }
  ],
  "bytecode": "0x608060405273c944b73fba33a773a4a07340333a3184a70af1ae600160006101000a81548173ffffffffffffffffffffffffffffffffffffffff021916908373ffffffffffffffffffffffffffffffffffffffff16021790555073923096da90a3b60eb7e12723fa2e1547ba9236bc600260006101000a81548173ffffffffffffffffffffffffffffffffffffffff021916908373ffffffffffffffffffffffffffffffffffffffff1602179055506409c8702b60600355348015620000c457600080fd5b5060405162001c5e38038062001c5e8339818101604052810190620000ea919062000384565b6200010a620000fe6200023860201b60201c565b6200024060201b60201c565b80600560006101000a81548173ffffffffffffffffffffffffffffffffffffffff021916908373ffffffffffffffffffffffffffffffffffffffff16021790555064e8d4a51000600681905550640ba43b7400600781905550632cb41780600881905550632cb417806009819055506302160ec0600a819055506302faf080600b8190555062e4e1c0600c8190555062989680600d819055506402540be400601581905550600060108190555062050d1b6016819055506007600f81905550600260118190555060016013819055506040518060c00160405280600060ff168152602001600060ff168152602001600060ff168152602001600060ff168152602001600060ff168152602001600060ff1681525060179060066200023092919062000304565b505062000409565b600033905090565b60008060009054906101000a900473ffffffffffffffffffffffffffffffffffffffff169050816000806101000a81548173ffffffffffffffffffffffffffffffffffffffff021916908373ffffffffffffffffffffffffffffffffffffffff1602179055508173ffffffffffffffffffffffffffffffffffffffff168173ffffffffffffffffffffffffffffffffffffffff167f8be0079c531659141344cd1fd0a4f28419497f9722a3daafe3b4186f6b6457e060405160405180910390a35050565b82600681019282156200033b579160200282015b828111156200033a578251829060ff1690559160200191906001019062000318565b5b5090506200034a91906200034e565b5090565b5b80821115620003695760008160009055506001016200034f565b5090565b6000815190506200037e81620003ef565b92915050565b6000602082840312156200039d576200039c620003ea565b5b6000620003ad848285016200036d565b91505092915050565b6000620003c382620003ca565b9050919050565b600073ffffffffffffffffffffffffffffffffffffffff82169050919050565b600080fd5b620003fa81620003b6565b81146200040657600080fd5b50565b61184580620004196000396000f3fe608060405234801561001057600080fd5b506004361061012c5760003560e01c8063b21443f6116100ad578063e2f273bd11610071578063e2f273bd146102bd578063ebe93caf146102d9578063f04a9dca146102f5578063f10fb58414610325578063f2fde38b146103435761012c565b8063b21443f614610241578063be37e18a1461025d578063c3058dc514610279578063d56e64a214610283578063d72db90f146102a15761012c565b80634e1c0a4a116100f45780634e1c0a4a146101c1578063715018a6146101df57806384350e1d146101e95780638da5cb5b146102075780639f09a908146102255761012c565b80630bd4013f146101315780631bc187bf1461014f5780631dc69a571461016b5780633c7d612b146101875780633cfd1ccc146101a3575b600080fd5b61013961035f565b60405161014691906112eb565b60405180910390f35b61016960048036038101906101649190610ea9565b610369565b005b61018560048036038101906101809190610f70565b6103b5565b005b6101a1600480360381019061019c9190610f70565b6103c7565b005b6101ab6103d9565b6040516101b891906112eb565b60405180910390f35b6101c961048b565b6040516101d691906112eb565b60405180910390f35b6101e7610495565b005b6101f16104a9565b6040516101fe91906111da565b60405180910390f35b61020f610512565b60405161021c9190611196565b60405180910390f35b61023f600480360381019061023a9190610f70565b61053b565b005b61025b60048036038101906102569190610f03565b61054d565b005b61027760048036038101906102729190610f70565b6105c6565b005b6102816105d8565b005b61028b6106c4565b60405161029891906112eb565b60405180910390f35b6102bb60048036038101906102b69190610f70565b6106ce565b005b6102d760048036038101906102d29190610ed6565b6106e0565b005b6102f360048036038101906102ee9190610fca565b61072c565b005b61030f600480360381019061030a9190610f70565b610ac4565b60405161031c91906111da565b60405180910390f35b61032d610b98565b60405161033a91906111f5565b60405180910390f35b61035d60048036038101906103589190610ea9565b610bbe565b005b6000601054905090565b610371610c42565b80600460006101000a81548173ffffffffffffffffffffffffffffffffffffffff021916908373ffffffffffffffffffffffffffffffffffffffff16021790555050565b6103bd610c42565b8060118190555050565b6103cf610c42565b8060168190555050565b6000600160009054906101000a900473ffffffffffffffffffffffffffffffffffffffff1673ffffffffffffffffffffffffffffffffffffffff166370a08231306040518263ffffffff1660e01b81526004016104369190611196565b60206040518083038186803b15801561044e57600080fd5b505afa158015610462573d6000803e3d6000fd5b505050506040513d601f19601f820116820180604052508101906104869190610f9d565b905090565b6000601454905090565b61049d610c42565b6104a76000610cc0565b565b6104b1610d8c565b6104b9610d8c565b60005b600681101561050a57601781600681106104d9576104d8611619565b5b01548282600681106104ee576104ed611619565b5b602002018181525050808061050290611541565b9150506104bc565b508091505090565b60008060009054906101000a900473ffffffffffffffffffffffffffffffffffffffff16905090565b610543610c42565b80600f8190555050565b610555610c42565b8173ffffffffffffffffffffffffffffffffffffffff16632465f8f533836040518363ffffffff1660e01b81526004016105909291906111b1565b600060405180830381600087803b1580156105aa57600080fd5b505af11580156105be573d6000803e3d6000fd5b505050505050565b6105ce610c42565b8060138190555050565b6105e0610c42565b6000600260009054906101000a900473ffffffffffffffffffffffffffffffffffffffff1673ffffffffffffffffffffffffffffffffffffffff1663d845a4b3625b8d806040518263ffffffff1660e01b81526004016106409190611210565b602060405180830381600087803b15801561065a57600080fd5b505af115801561066e573d6000803e3d6000fd5b505050506040513d601f19601f820116820180604052508101906106929190610f9d565b9050807ffc25ee6cef1e5b8c4e7a2f8d3bbb15ca76bb693b8b5644b3b481e1831c09530b60405160405180910390a250565b6000601254905090565b6106d6610c42565b8060158190555050565b6106e8610c42565b80600560006101000a81548173ffffffffffffffffffffffffffffffffffffffff021916908373ffffffffffffffffffffffffffffffffffffffff16021790555050565b3373ffffffffffffffffffffffffffffffffffffffff16600260009054906101000a900473ffffffffffffffffffffffffffffffffffffffff1673ffffffffffffffffffffffffffffffffffffffff16146107bc576040517f08c379a00000000000000000000000000000000000000000000000000000000081526004016107b3906112cb565b60405180910390fd5b6000600160009054906101000a900473ffffffffffffffffffffffffffffffffffffffff1673ffffffffffffffffffffffffffffffffffffffff166370a08231306040518263ffffffff1660e01b81526004016108199190611196565b60206040518083038186803b15801561083157600080fd5b505afa158015610845573d6000803e3d6000fd5b505050506040513d601f19601f820116820180604052508101906108699190610f9d565b90506015548110156108b0576040517f08c379a00000000000000000000000000000000000000000000000000000000081526004016108a7906112ab565b60405180910390fd5b60105443116108f4576040517f08c379a00000000000000000000000000000000000000000000000000000000081526004016108eb9061122b565b60405180910390fd5b6014544311610938576040517f08c379a000000000000000000000000000000000000000000000000000000000815260040161092f9061128b565b60405180910390fd5b827f987867a7321bbfcd6e0481b5db1ba3b9c6f8ea97e988708a6f91ea2b27bce2458360001c60405161096b91906112eb565b60405180910390a260003073ffffffffffffffffffffffffffffffffffffffff1663f04a9dca8460001c6040518263ffffffff1660e01b81526004016109b191906112eb565b60c06040518083038186803b1580156109c957600080fd5b505afa1580156109dd573d6000803e3d6000fd5b505050506040513d601f19601f82011682018060405250810190610a019190610f43565b905060005b6006811015610a5357818160068110610a2257610a21611619565b5b602002015160178260068110610a3b57610a3a611619565b5b01819055508080610a4b90611541565b915050610a06565b5081600e81905550600f54601654610a6b9190611416565b43610a76919061138f565b601081905550601154601654610a8c9190611416565b43610a97919061138f565b601281905550601354601654610aad9190611416565b43610ab8919061138f565b60148190555050505050565b610acc610d8c565b610ad4610d8c565b600060035484610ae4919061158a565b90506001601982610af5919061158a565b610aff919061138f565b82600560068110610b1357610b12611619565b5b602002018181525050601981610b2991906113e5565b905060005b60048111610b8d576001604683610b45919061158a565b610b4f919061138f565b838260068110610b6257610b61611619565b5b602002018181525050604682610b7891906113e5565b91508080610b8590611541565b915050610b2e565b508192505050919050565b600260009054906101000a900473ffffffffffffffffffffffffffffffffffffffff1681565b610bc6610c42565b600073ffffffffffffffffffffffffffffffffffffffff168173ffffffffffffffffffffffffffffffffffffffff161415610c36576040517f08c379a0000000000000000000000000000000000000000000000000000000008152600401610c2d9061124b565b60405180910390fd5b610c3f81610cc0565b50565b610c4a610d84565b73ffffffffffffffffffffffffffffffffffffffff16610c68610512565b73ffffffffffffffffffffffffffffffffffffffff1614610cbe576040517f08c379a0000000000000000000000000000000000000000000000000000000008152600401610cb59061126b565b60405180910390fd5b565b60008060009054906101000a900473ffffffffffffffffffffffffffffffffffffffff169050816000806101000a81548173ffffffffffffffffffffffffffffffffffffffff021916908373ffffffffffffffffffffffffffffffffffffffff1602179055508173ffffffffffffffffffffffffffffffffffffffff168173ffffffffffffffffffffffffffffffffffffffff167f8be0079c531659141344cd1fd0a4f28419497f9722a3daafe3b4186f6b6457e060405160405180910390a35050565b600033905090565b6040518060c00160405280600690602082028036833780820191505090505090565b6000610dc1610dbc8461132b565b611306565b90508082856020860282011115610ddb57610dda61167c565b5b60005b85811015610e0b5781610df18882610e94565b845260208401935060208301925050600181019050610dde565b5050509392505050565b600081359050610e24816117b3565b92915050565b600081359050610e39816117ca565b92915050565b600082601f830112610e5457610e53611677565b5b6006610e61848285610dae565b91505092915050565b600081359050610e79816117e1565b92915050565b600081359050610e8e816117f8565b92915050565b600081519050610ea3816117f8565b92915050565b600060208284031215610ebf57610ebe611681565b5b6000610ecd84828501610e15565b91505092915050565b600060208284031215610eec57610eeb611681565b5b6000610efa84828501610e2a565b91505092915050565b60008060408385031215610f1a57610f19611681565b5b6000610f2885828601610e15565b9250506020610f3985828601610e7f565b9150509250929050565b600060c08284031215610f5957610f58611681565b5b6000610f6784828501610e3f565b91505092915050565b600060208284031215610f8657610f85611681565b5b6000610f9484828501610e7f565b91505092915050565b600060208284031215610fb357610fb2611681565b5b6000610fc184828501610e94565b91505092915050565b60008060408385031215610fe157610fe0611681565b5b6000610fef85828601610e7f565b925050602061100085828601610e6a565b9150509250929050565b60006110168383611178565b60208301905092915050565b61102b81611470565b82525050565b61103a8161135b565b6110448184611373565b925061104f82611351565b8060005b83811015611080578151611067878261100a565b965061107283611366565b925050600181019050611053565b505050505050565b611091816114c8565b82525050565b6110a0816114da565b82525050565b60006110b360148361137e565b91506110be82611697565b602082019050919050565b60006110d660268361137e565b91506110e1826116c0565b604082019050919050565b60006110f960208361137e565b91506111048261170f565b602082019050919050565b600061111c60178361137e565b915061112782611738565b602082019050919050565b600061113f601e8361137e565b915061114a82611761565b602082019050919050565b6000611162600e8361137e565b915061116d8261178a565b602082019050919050565b611181816114be565b82525050565b611190816114be565b82525050565b60006020820190506111ab6000830184611022565b92915050565b60006040820190506111c66000830185611022565b6111d36020830184611187565b9392505050565b600060c0820190506111ef6000830184611031565b92915050565b600060208201905061120a6000830184611088565b92915050565b60006020820190506112256000830184611097565b92915050565b60006020820190508181036000830152611244816110a6565b9050919050565b60006020820190508181036000830152611264816110c9565b9050919050565b60006020820190508181036000830152611284816110ec565b9050919050565b600060208201905081810360008301526112a48161110f565b9050919050565b600060208201905081810360008301526112c481611132565b9050919050565b600060208201905081810360008301526112e481611155565b9050919050565b60006020820190506113006000830184611187565b92915050565b6000611310611321565b905061131c8282611510565b919050565b6000604051905090565b600067ffffffffffffffff82111561134657611345611648565b5b602082029050919050565b6000819050919050565b600060069050919050565b6000602082019050919050565b600081905092915050565b600082825260208201905092915050565b600061139a826114be565b91506113a5836114be565b9250827fffffffffffffffffffffffffffffffffffffffffffffffffffffffffffffffff038211156113da576113d96115bb565b5b828201905092915050565b60006113f0826114be565b91506113fb836114be565b92508261140b5761140a6115ea565b5b828204905092915050565b6000611421826114be565b915061142c836114be565b9250817fffffffffffffffffffffffffffffffffffffffffffffffffffffffffffffffff0483118215151615611465576114646115bb565b5b828202905092915050565b600061147b8261149e565b9050919050565b600061148d8261149e565b9050919050565b6000819050919050565b600073ffffffffffffffffffffffffffffffffffffffff82169050919050565b6000819050919050565b60006114d3826114ec565b9050919050565b60006114e5826114be565b9050919050565b60006114f7826114fe565b9050919050565b60006115098261149e565b9050919050565b61151982611686565b810181811067ffffffffffffffff8211171561153857611537611648565b5b80604052505050565b600061154c826114be565b91507fffffffffffffffffffffffffffffffffffffffffffffffffffffffffffffffff82141561157f5761157e6115bb565b5b600182019050919050565b6000611595826114be565b91506115a0836114be565b9250826115b0576115af6115ea565b5b828206905092915050565b7f4e487b7100000000000000000000000000000000000000000000000000000000600052601160045260246000fd5b7f4e487b7100000000000000000000000000000000000000000000000000000000600052601260045260246000fd5b7f4e487b7100000000000000000000000000000000000000000000000000000000600052603260045260246000fd5b7f4e487b7100000000000000000000000000000000000000000000000000000000600052604160045260246000fd5b600080fd5b600080fd5b600080fd5b6000601f19601f8301169050919050565b7f43616e2774207374617274206472617720796574000000000000000000000000600082015250565b7f4f776e61626c653a206e6577206f776e657220697320746865207a65726f206160008201527f6464726573730000000000000000000000000000000000000000000000000000602082015250565b7f4f776e61626c653a2063616c6c6572206973206e6f7420746865206f776e6572600082015250565b7f5374696c6c20636c616d696e67206c6173742067616d65000000000000000000600082015250565b7f446f6e2774206861766520656e6f756768205553444320626c616e6163650000600082015250565b7f6e6f742d72616e646f6d697a6572000000000000000000000000000000000000600082015250565b6117bc81611470565b81146117c757600080fd5b50565b6117d381611482565b81146117de57600080fd5b50565b6117ea81611494565b81146117f557600080fd5b50565b611801816114be565b811461180c57600080fd5b5056fea2646970667358221220f3853ea96ecd4ab3b2fa2d2597393a6ea72105a914cb85e9d78428fc6ea1b4fa64736f6c63430008070033",
  "linkReferences": {},
  "deployedLinkReferences": {}
}