{
  "_format": "hh-sol-artifact-1",
  "contractName": "MillionJackpot",
  "sourceName": "contracts/MillionJackpot.sol",
  "abi": [
    {
      "inputs": [
        {
          "internalType": "address payable",
          "name": "_admin",
          "type": "address"
        }
      ],
      "stateMutability": "nonpayable",
      "type": "constructor"
    },
    {
      "anonymous": false,
      "inputs": [
        {
          "indexed": true,
          "internalType": "uint256",
          "name": "id",
          "type": "uint256"
        }
      ],
      "name": "Flip",
      "type": "event"
    },
    {
      "anonymous": false,
      "inputs": [
        {
          "indexed": true,
          "internalType": "uint256",
          "name": "id",
          "type": "uint256"
        },
        {
          "indexed": false,
          "internalType": "uint256",
          "name": "number",
          "type": "uint256"
        }
      ],
      "name": "FlipResult",
      "type": "event"
    },
    {
      "anonymous": false,
      "inputs": [
        {
          "indexed": true,
          "internalType": "address",
          "name": "previousOwner",
          "type": "address"
        },
        {
          "indexed": true,
          "internalType": "address",
          "name": "newOwner",
          "type": "address"
        }
      ],
      "name": "OwnershipTransferred",
      "type": "event"
    },
    {
      "inputs": [
        {
          "internalType": "uint256",
          "name": "number",
          "type": "uint256"
        }
      ],
      "name": "convertIntToWinningNumbers",
      "outputs": [
        {
          "internalType": "uint256[]",
          "name": "",
          "type": "uint256[]"
        }
      ],
      "stateMutability": "view",
      "type": "function"
    },
    {
      "inputs": [],
      "name": "decideWinners",
      "outputs": [],
      "stateMutability": "nonpayable",
      "type": "function"
    },
    {
      "inputs": [],
      "name": "getNewDrawEligibileBlockNumber",
      "outputs": [
        {
          "internalType": "uint256",
          "name": "",
          "type": "uint256"
        }
      ],
      "stateMutability": "view",
      "type": "function"
    },
    {
      "inputs": [],
      "name": "getWinningNumbers",
      "outputs": [
        {
          "internalType": "uint256[]",
          "name": "",
          "type": "uint256[]"
        }
      ],
      "stateMutability": "view",
      "type": "function"
    },
    {
      "inputs": [],
      "name": "getWinningPhaseOneEndBlockNumber",
      "outputs": [
        {
          "internalType": "uint256",
          "name": "",
          "type": "uint256"
        }
      ],
      "stateMutability": "view",
      "type": "function"
    },
    {
      "inputs": [],
      "name": "getWinningPhaseTwoEndBlockNumber",
      "outputs": [
        {
          "internalType": "uint256",
          "name": "",
          "type": "uint256"
        }
      ],
      "stateMutability": "view",
      "type": "function"
    },
    {
      "inputs": [],
      "name": "owner",
      "outputs": [
        {
          "internalType": "address",
          "name": "",
          "type": "address"
        }
      ],
      "stateMutability": "view",
      "type": "function"
    },
    {
      "inputs": [],
      "name": "randomizer",
      "outputs": [
        {
          "internalType": "contract IRandomizer",
          "name": "",
          "type": "address"
        }
      ],
      "stateMutability": "view",
      "type": "function"
    },
    {
      "inputs": [
        {
          "internalType": "uint256",
          "name": "_id",
          "type": "uint256"
        },
        {
          "internalType": "bytes32",
          "name": "_value",
          "type": "bytes32"
        }
      ],
      "name": "randomizerCallback",
      "outputs": [],
      "stateMutability": "nonpayable",
      "type": "function"
    },
    {
      "inputs": [
        {
          "internalType": "address",
          "name": "_randomizer",
          "type": "address"
        },
        {
          "internalType": "uint256",
          "name": "amount",
          "type": "uint256"
        }
      ],
      "name": "randomizerWithdraw",
      "outputs": [],
      "stateMutability": "nonpayable",
      "type": "function"
    },
    {
      "inputs": [],
      "name": "renounceOwnership",
      "outputs": [],
      "stateMutability": "nonpayable",
      "type": "function"
    },
    {
      "inputs": [
        {
          "internalType": "address",
          "name": "newOwner",
          "type": "address"
        }
      ],
      "name": "transferOwnership",
      "outputs": [],
      "stateMutability": "nonpayable",
      "type": "function"
    },
    {
      "inputs": [
        {
          "internalType": "address payable",
          "name": "_admin",
          "type": "address"
        }
      ],
      "name": "updateAdmin",
      "outputs": [],
      "stateMutability": "nonpayable",
      "type": "function"
    },
    {
      "inputs": [
        {
          "internalType": "uint256",
          "name": "blocks",
          "type": "uint256"
        }
      ],
      "name": "updateBlockPerDay",
      "outputs": [],
      "stateMutability": "nonpayable",
      "type": "function"
    },
    {
      "inputs": [
        {
          "internalType": "uint256",
          "name": "minBalance",
          "type": "uint256"
        }
      ],
      "name": "updateMinUSDCDrawBalance",
      "outputs": [],
      "stateMutability": "nonpayable",
      "type": "function"
    },
    {
      "inputs": [
        {
          "internalType": "uint256",
          "name": "eligibleDays",
          "type": "uint256"
        }
      ],
      "name": "updateNewDrawEligibileDays",
      "outputs": [],
      "stateMutability": "nonpayable",
      "type": "function"
    },
    {
      "inputs": [
        {
          "internalType": "uint256",
          "name": "phaseOneDays",
          "type": "uint256"
        }
      ],
      "name": "updatePhaseOneDays",
      "outputs": [],
      "stateMutability": "nonpayable",
      "type": "function"
    },
    {
      "inputs": [
        {
          "internalType": "uint256",
          "name": "phaseTwoDays",
          "type": "uint256"
        }
      ],
      "name": "updatePhaseTwoDays",
      "outputs": [],
      "stateMutability": "nonpayable",
      "type": "function"
    },
    {
      "inputs": [
        {
          "internalType": "address",
          "name": "vrfAddress",
          "type": "address"
        }
      ],
      "name": "updateVRFAddress",
      "outputs": [],
      "stateMutability": "nonpayable",
      "type": "function"
    }
  ],
  "bytecode": "0x608060405273d87ba7a50b2e7e660f678a895e4b72e7cb4ccd9c600160006101000a81548173ffffffffffffffffffffffffffffffffffffffff021916908373ffffffffffffffffffffffffffffffffffffffff16021790555073923096da90a3b60eb7e12723fa2e1547ba9236bc600260006101000a81548173ffffffffffffffffffffffffffffffffffffffff021916908373ffffffffffffffffffffffffffffffffffffffff1602179055506409c8702b60600355348015620000c457600080fd5b5060405162001b8b38038062001b8b8339818101604052810190620000ea919062000383565b6200010a620000fe6200023760201b60201c565b6200023f60201b60201c565b80600560006101000a81548173ffffffffffffffffffffffffffffffffffffffff021916908373ffffffffffffffffffffffffffffffffffffffff16021790555064e8d4a51000600681905550640ba43b7400600781905550632cb41780600881905550632cb417806009819055506302160ec0600a819055506302faf080600b8190555062e4e1c0600c8190555062989680600d819055506402540be4006015819055506000601081905550616f056016819055506007600f81905550600260118190555060016013819055506040518060c00160405280600060ff168152602001600060ff168152602001600060ff168152602001600060ff168152602001600060ff168152602001600060ff1681525060179060066200022f92919062000303565b505062000408565b600033905090565b60008060009054906101000a900473ffffffffffffffffffffffffffffffffffffffff169050816000806101000a81548173ffffffffffffffffffffffffffffffffffffffff021916908373ffffffffffffffffffffffffffffffffffffffff1602179055508173ffffffffffffffffffffffffffffffffffffffff168173ffffffffffffffffffffffffffffffffffffffff167f8be0079c531659141344cd1fd0a4f28419497f9722a3daafe3b4186f6b6457e060405160405180910390a35050565b82600681019282156200033a579160200282015b8281111562000339578251829060ff1690559160200191906001019062000317565b5b5090506200034991906200034d565b5090565b5b80821115620003685760008160009055506001016200034e565b5090565b6000815190506200037d81620003ee565b92915050565b6000602082840312156200039c576200039b620003e9565b5b6000620003ac848285016200036c565b91505092915050565b6000620003c282620003c9565b9050919050565b600073ffffffffffffffffffffffffffffffffffffffff82169050919050565b600080fd5b620003f981620003b5565b81146200040557600080fd5b50565b61177380620004186000396000f3fe608060405234801561001057600080fd5b50600436106101215760003560e01c8063b21443f6116100ad578063e2f273bd11610071578063e2f273bd14610294578063ebe93caf146102b0578063f04a9dca146102cc578063f10fb584146102fc578063f2fde38b1461031a57610121565b8063b21443f614610218578063be37e18a14610234578063c3058dc514610250578063d56e64a21461025a578063d72db90f1461027857610121565b80634e1c0a4a116100f45780634e1c0a4a14610198578063715018a6146101b657806384350e1d146101c05780638da5cb5b146101de5780639f09a908146101fc57610121565b80630bd4013f146101265780631bc187bf146101445780631dc69a57146101605780633c7d612b1461017c575b600080fd5b61012e610336565b60405161013b9190611202565b60405180910390f35b61015e60048036038101906101599190610d96565b610340565b005b61017a60048036038101906101759190610e79565b61038c565b005b61019660048036038101906101919190610e79565b61039e565b005b6101a06103b0565b6040516101ad9190611202565b60405180910390f35b6101be6103ba565b005b6101c86103ce565b6040516101d591906110ea565b60405180910390f35b6101e661042d565b6040516101f391906110a6565b60405180910390f35b61021660048036038101906102119190610e79565b610456565b005b610232600480360381019061022d9190610df0565b610468565b005b61024e60048036038101906102499190610e79565b6104e1565b005b6102586104f3565b005b6102626105de565b60405161026f9190611202565b60405180910390f35b610292600480360381019061028d9190610e79565b6105e8565b005b6102ae60048036038101906102a99190610dc3565b6105fa565b005b6102ca60048036038101906102c59190610ed3565b610646565b005b6102e660048036038101906102e19190610e79565b6109e6565b6040516102f391906110ea565b60405180910390f35b610304610a9b565b604051610311919061110c565b60405180910390f35b610334600480360381019061032f9190610d96565b610ac1565b005b6000601054905090565b610348610b45565b80600460006101000a81548173ffffffffffffffffffffffffffffffffffffffff021916908373ffffffffffffffffffffffffffffffffffffffff16021790555050565b610394610b45565b8060118190555050565b6103a6610b45565b8060168190555050565b6000601454905090565b6103c2610b45565b6103cc6000610bc3565b565b60608060005b600681101561042557601781600681106103f1576103f0611542565b5b015482828151811061040657610405611542565b5b602002602001018181525050808061041d9061146a565b9150506103d4565b508091505090565b60008060009054906101000a900473ffffffffffffffffffffffffffffffffffffffff16905090565b61045e610b45565b80600f8190555050565b610470610b45565b8173ffffffffffffffffffffffffffffffffffffffff16632465f8f533836040518363ffffffff1660e01b81526004016104ab9291906110c1565b600060405180830381600087803b1580156104c557600080fd5b505af11580156104d9573d6000803e3d6000fd5b505050505050565b6104e9610b45565b8060138190555050565b6104fb610b45565b6000600260009054906101000a900473ffffffffffffffffffffffffffffffffffffffff1673ffffffffffffffffffffffffffffffffffffffff1663d845a4b361c3506040518263ffffffff1660e01b815260040161055a9190611127565b602060405180830381600087803b15801561057457600080fd5b505af1158015610588573d6000803e3d6000fd5b505050506040513d601f19601f820116820180604052508101906105ac9190610ea6565b9050807ffc25ee6cef1e5b8c4e7a2f8d3bbb15ca76bb693b8b5644b3b481e1831c09530b60405160405180910390a250565b6000601254905090565b6105f0610b45565b8060158190555050565b610602610b45565b80600560006101000a81548173ffffffffffffffffffffffffffffffffffffffff021916908373ffffffffffffffffffffffffffffffffffffffff16021790555050565b3373ffffffffffffffffffffffffffffffffffffffff16600260009054906101000a900473ffffffffffffffffffffffffffffffffffffffff1673ffffffffffffffffffffffffffffffffffffffff16146106d6576040517f08c379a00000000000000000000000000000000000000000000000000000000081526004016106cd906111e2565b60405180910390fd5b6000600160009054906101000a900473ffffffffffffffffffffffffffffffffffffffff1673ffffffffffffffffffffffffffffffffffffffff166370a08231306040518263ffffffff1660e01b815260040161073391906110a6565b60206040518083038186803b15801561074b57600080fd5b505afa15801561075f573d6000803e3d6000fd5b505050506040513d601f19601f820116820180604052508101906107839190610ea6565b90506015548110156107ca576040517f08c379a00000000000000000000000000000000000000000000000000000000081526004016107c1906111c2565b60405180910390fd5b601054431161080e576040517f08c379a000000000000000000000000000000000000000000000000000000000815260040161080590611142565b60405180910390fd5b6014544311610852576040517f08c379a0000000000000000000000000000000000000000000000000000000008152600401610849906111a2565b60405180910390fd5b827f987867a7321bbfcd6e0481b5db1ba3b9c6f8ea97e988708a6f91ea2b27bce2458360001c6040516108859190611202565b60405180910390a260003073ffffffffffffffffffffffffffffffffffffffff1663f04a9dca8460001c6040518263ffffffff1660e01b81526004016108cb9190611202565b60006040518083038186803b1580156108e357600080fd5b505afa1580156108f7573d6000803e3d6000fd5b505050506040513d6000823e3d601f19601f820116820180604052508101906109209190610e30565b905060005b81518110156109755781818151811061094157610940611542565b5b60200260200101516017826006811061095d5761095c611542565b5b0181905550808061096d9061146a565b915050610925565b5081600e81905550600f5460165461098d919061133f565b4361099891906112b8565b6010819055506011546016546109ae919061133f565b436109b991906112b8565b6012819055506013546016546109cf919061133f565b436109da91906112b8565b60148190555050505050565b6060806000600354846109f991906114b3565b9050601981610a0891906114b3565b82600581518110610a1c57610a1b611542565b5b602002602001018181525050601981610a35919061130e565b905060005b60048111610a9057604682610a4f91906114b3565b838281518110610a6257610a61611542565b5b602002602001018181525050604682610a7b919061130e565b91508080610a889061146a565b915050610a3a565b508192505050919050565b600260009054906101000a900473ffffffffffffffffffffffffffffffffffffffff1681565b610ac9610b45565b600073ffffffffffffffffffffffffffffffffffffffff168173ffffffffffffffffffffffffffffffffffffffff161415610b39576040517f08c379a0000000000000000000000000000000000000000000000000000000008152600401610b3090611162565b60405180910390fd5b610b4281610bc3565b50565b610b4d610c87565b73ffffffffffffffffffffffffffffffffffffffff16610b6b61042d565b73ffffffffffffffffffffffffffffffffffffffff1614610bc1576040517f08c379a0000000000000000000000000000000000000000000000000000000008152600401610bb890611182565b60405180910390fd5b565b60008060009054906101000a900473ffffffffffffffffffffffffffffffffffffffff169050816000806101000a81548173ffffffffffffffffffffffffffffffffffffffff021916908373ffffffffffffffffffffffffffffffffffffffff1602179055508173ffffffffffffffffffffffffffffffffffffffff168173ffffffffffffffffffffffffffffffffffffffff167f8be0079c531659141344cd1fd0a4f28419497f9722a3daafe3b4186f6b6457e060405160405180910390a35050565b600033905090565b6000610ca2610c9d84611242565b61121d565b90508083825260208201905082856020860282011115610cc557610cc46115a5565b5b60005b85811015610cf55781610cdb8882610d81565b845260208401935060208301925050600181019050610cc8565b5050509392505050565b600081359050610d0e816116e1565b92915050565b600081359050610d23816116f8565b92915050565b600082601f830112610d3e57610d3d6115a0565b5b8151610d4e848260208601610c8f565b91505092915050565b600081359050610d668161170f565b92915050565b600081359050610d7b81611726565b92915050565b600081519050610d9081611726565b92915050565b600060208284031215610dac57610dab6115af565b5b6000610dba84828501610cff565b91505092915050565b600060208284031215610dd957610dd86115af565b5b6000610de784828501610d14565b91505092915050565b60008060408385031215610e0757610e066115af565b5b6000610e1585828601610cff565b9250506020610e2685828601610d6c565b9150509250929050565b600060208284031215610e4657610e456115af565b5b600082015167ffffffffffffffff811115610e6457610e636115aa565b5b610e7084828501610d29565b91505092915050565b600060208284031215610e8f57610e8e6115af565b5b6000610e9d84828501610d6c565b91505092915050565b600060208284031215610ebc57610ebb6115af565b5b6000610eca84828501610d81565b91505092915050565b60008060408385031215610eea57610ee96115af565b5b6000610ef885828601610d6c565b9250506020610f0985828601610d57565b9150509250929050565b6000610f1f8383611088565b60208301905092915050565b610f3481611399565b82525050565b6000610f458261127e565b610f4f8185611296565b9350610f5a8361126e565b8060005b83811015610f8b578151610f728882610f13565b9750610f7d83611289565b925050600181019050610f5e565b5085935050505092915050565b610fa1816113f1565b82525050565b610fb081611403565b82525050565b6000610fc36014836112a7565b9150610fce826115c5565b602082019050919050565b6000610fe66026836112a7565b9150610ff1826115ee565b604082019050919050565b60006110096020836112a7565b91506110148261163d565b602082019050919050565b600061102c6017836112a7565b915061103782611666565b602082019050919050565b600061104f601e836112a7565b915061105a8261168f565b602082019050919050565b6000611072600e836112a7565b915061107d826116b8565b602082019050919050565b611091816113e7565b82525050565b6110a0816113e7565b82525050565b60006020820190506110bb6000830184610f2b565b92915050565b60006040820190506110d66000830185610f2b565b6110e36020830184611097565b9392505050565b600060208201905081810360008301526111048184610f3a565b905092915050565b60006020820190506111216000830184610f98565b92915050565b600060208201905061113c6000830184610fa7565b92915050565b6000602082019050818103600083015261115b81610fb6565b9050919050565b6000602082019050818103600083015261117b81610fd9565b9050919050565b6000602082019050818103600083015261119b81610ffc565b9050919050565b600060208201905081810360008301526111bb8161101f565b9050919050565b600060208201905081810360008301526111db81611042565b9050919050565b600060208201905081810360008301526111fb81611065565b9050919050565b60006020820190506112176000830184611097565b92915050565b6000611227611238565b90506112338282611439565b919050565b6000604051905090565b600067ffffffffffffffff82111561125d5761125c611571565b5b602082029050602081019050919050565b6000819050602082019050919050565b600081519050919050565b6000602082019050919050565b600082825260208201905092915050565b600082825260208201905092915050565b60006112c3826113e7565b91506112ce836113e7565b9250827fffffffffffffffffffffffffffffffffffffffffffffffffffffffffffffffff03821115611303576113026114e4565b5b828201905092915050565b6000611319826113e7565b9150611324836113e7565b92508261133457611333611513565b5b828204905092915050565b600061134a826113e7565b9150611355836113e7565b9250817fffffffffffffffffffffffffffffffffffffffffffffffffffffffffffffffff048311821515161561138e5761138d6114e4565b5b828202905092915050565b60006113a4826113c7565b9050919050565b60006113b6826113c7565b9050919050565b6000819050919050565b600073ffffffffffffffffffffffffffffffffffffffff82169050919050565b6000819050919050565b60006113fc82611415565b9050919050565b600061140e826113e7565b9050919050565b600061142082611427565b9050919050565b6000611432826113c7565b9050919050565b611442826115b4565b810181811067ffffffffffffffff8211171561146157611460611571565b5b80604052505050565b6000611475826113e7565b91507fffffffffffffffffffffffffffffffffffffffffffffffffffffffffffffffff8214156114a8576114a76114e4565b5b600182019050919050565b60006114be826113e7565b91506114c9836113e7565b9250826114d9576114d8611513565b5b828206905092915050565b7f4e487b7100000000000000000000000000000000000000000000000000000000600052601160045260246000fd5b7f4e487b7100000000000000000000000000000000000000000000000000000000600052601260045260246000fd5b7f4e487b7100000000000000000000000000000000000000000000000000000000600052603260045260246000fd5b7f4e487b7100000000000000000000000000000000000000000000000000000000600052604160045260246000fd5b600080fd5b600080fd5b600080fd5b600080fd5b6000601f19601f8301169050919050565b7f43616e2774207374617274206472617720796574000000000000000000000000600082015250565b7f4f776e61626c653a206e6577206f776e657220697320746865207a65726f206160008201527f6464726573730000000000000000000000000000000000000000000000000000602082015250565b7f4f776e61626c653a2063616c6c6572206973206e6f7420746865206f776e6572600082015250565b7f5374696c6c20636c616d696e67206c6173742067616d65000000000000000000600082015250565b7f446f6e2774206861766520656e6f756768205553444320626c616e6163650000600082015250565b7f6e6f742d72616e646f6d697a6572000000000000000000000000000000000000600082015250565b6116ea81611399565b81146116f557600080fd5b50565b611701816113ab565b811461170c57600080fd5b50565b611718816113bd565b811461172357600080fd5b50565b61172f816113e7565b811461173a57600080fd5b5056fea26469706673582212206252fe49a07af16df7a127a0ab8a24c86c6b890458a4b52dabba64a9b683ce6564736f6c63430008070033",
  "linkReferences": {},
  "deployedLinkReferences": {}
}