{
  "_format": "hh-sol-artifact-1",
  "contractName": "MillionJackpot",
  "sourceName": "contracts/MillionJackpot.sol",
  "abi": [
    {
      "inputs": [
        {
          "internalType": "address payable",
          "name": "_admin",
          "type": "address"
        }
      ],
      "stateMutability": "nonpayable",
      "type": "constructor"
    },
    {
      "anonymous": false,
      "inputs": [
        {
          "indexed": true,
          "internalType": "uint256",
          "name": "id",
          "type": "uint256"
        }
      ],
      "name": "Flip",
      "type": "event"
    },
    {
      "anonymous": false,
      "inputs": [
        {
          "indexed": true,
          "internalType": "uint256",
          "name": "id",
          "type": "uint256"
        },
        {
          "indexed": false,
          "internalType": "uint256",
          "name": "number",
          "type": "uint256"
        }
      ],
      "name": "FlipResult",
      "type": "event"
    },
    {
      "anonymous": false,
      "inputs": [
        {
          "indexed": true,
          "internalType": "address",
          "name": "previousOwner",
          "type": "address"
        },
        {
          "indexed": true,
          "internalType": "address",
          "name": "newOwner",
          "type": "address"
        }
      ],
      "name": "OwnershipTransferred",
      "type": "event"
    },
    {
      "inputs": [],
      "name": "claim",
      "outputs": [],
      "stateMutability": "nonpayable",
      "type": "function"
    },
    {
      "inputs": [
        {
          "internalType": "uint256",
          "name": "number",
          "type": "uint256"
        }
      ],
      "name": "convertIntToWinningNumbers",
      "outputs": [
        {
          "internalType": "uint256[6]",
          "name": "",
          "type": "uint256[6]"
        }
      ],
      "stateMutability": "view",
      "type": "function"
    },
    {
      "inputs": [],
      "name": "decideWinners",
      "outputs": [],
      "stateMutability": "nonpayable",
      "type": "function"
    },
    {
      "inputs": [],
      "name": "endPhaseOneAndDistributeJackpot",
      "outputs": [],
      "stateMutability": "nonpayable",
      "type": "function"
    },
    {
      "inputs": [],
      "name": "getClaimPhase",
      "outputs": [
        {
          "internalType": "uint256",
          "name": "",
          "type": "uint256"
        }
      ],
      "stateMutability": "view",
      "type": "function"
    },
    {
      "inputs": [],
      "name": "getCurrentLotteryEntries",
      "outputs": [
        {
          "internalType": "uint256[6][]",
          "name": "",
          "type": "uint256[6][]"
        }
      ],
      "stateMutability": "view",
      "type": "function"
    },
    {
      "inputs": [
        {
          "internalType": "uint256",
          "name": "_lotteryId",
          "type": "uint256"
        }
      ],
      "name": "getLotteryEntries",
      "outputs": [
        {
          "internalType": "uint256[6][]",
          "name": "",
          "type": "uint256[6][]"
        }
      ],
      "stateMutability": "view",
      "type": "function"
    },
    {
      "inputs": [
        {
          "internalType": "address",
          "name": "user",
          "type": "address"
        },
        {
          "internalType": "uint256",
          "name": "_lotteryId",
          "type": "uint256"
        }
      ],
      "name": "getLotteryEntriesForAnyUser",
      "outputs": [
        {
          "internalType": "uint256[6][]",
          "name": "",
          "type": "uint256[6][]"
        }
      ],
      "stateMutability": "view",
      "type": "function"
    },
    {
      "inputs": [
        {
          "internalType": "uint256[6]",
          "name": "entry",
          "type": "uint256[6]"
        },
        {
          "internalType": "uint256[71]",
          "name": "winningNumberCount",
          "type": "uint256[71]"
        },
        {
          "internalType": "uint256",
          "name": "lastNumber",
          "type": "uint256"
        }
      ],
      "name": "getReward",
      "outputs": [
        {
          "internalType": "uint256",
          "name": "",
          "type": "uint256"
        }
      ],
      "stateMutability": "view",
      "type": "function"
    },
    {
      "inputs": [],
      "name": "getUSDCBalance",
      "outputs": [
        {
          "internalType": "uint256",
          "name": "",
          "type": "uint256"
        }
      ],
      "stateMutability": "view",
      "type": "function"
    },
    {
      "inputs": [],
      "name": "getWinningNumbers",
      "outputs": [
        {
          "internalType": "uint256[6]",
          "name": "",
          "type": "uint256[6]"
        }
      ],
      "stateMutability": "view",
      "type": "function"
    },
    {
      "inputs": [],
      "name": "owner",
      "outputs": [
        {
          "internalType": "address",
          "name": "",
          "type": "address"
        }
      ],
      "stateMutability": "view",
      "type": "function"
    },
    {
      "inputs": [
        {
          "internalType": "uint256[6][]",
          "name": "bets",
          "type": "uint256[6][]"
        },
        {
          "internalType": "uint256",
          "name": "amount",
          "type": "uint256"
        }
      ],
      "name": "placeBet",
      "outputs": [],
      "stateMutability": "payable",
      "type": "function"
    },
    {
      "inputs": [],
      "name": "randomizer",
      "outputs": [
        {
          "internalType": "contract IRandomizer",
          "name": "",
          "type": "address"
        }
      ],
      "stateMutability": "view",
      "type": "function"
    },
    {
      "inputs": [
        {
          "internalType": "uint256",
          "name": "_id",
          "type": "uint256"
        },
        {
          "internalType": "bytes32",
          "name": "_value",
          "type": "bytes32"
        }
      ],
      "name": "randomizerCallback",
      "outputs": [],
      "stateMutability": "nonpayable",
      "type": "function"
    },
    {
      "inputs": [
        {
          "internalType": "address",
          "name": "_randomizer",
          "type": "address"
        },
        {
          "internalType": "uint256",
          "name": "amount",
          "type": "uint256"
        }
      ],
      "name": "randomizerWithdraw",
      "outputs": [],
      "stateMutability": "nonpayable",
      "type": "function"
    },
    {
      "inputs": [],
      "name": "renounceOwnership",
      "outputs": [],
      "stateMutability": "nonpayable",
      "type": "function"
    },
    {
      "inputs": [
        {
          "internalType": "address",
          "name": "newOwner",
          "type": "address"
        }
      ],
      "name": "transferOwnership",
      "outputs": [],
      "stateMutability": "nonpayable",
      "type": "function"
    },
    {
      "inputs": [
        {
          "internalType": "address payable",
          "name": "_admin",
          "type": "address"
        }
      ],
      "name": "updateAdmin",
      "outputs": [],
      "stateMutability": "nonpayable",
      "type": "function"
    },
    {
      "inputs": [
        {
          "internalType": "uint256",
          "name": "phase",
          "type": "uint256"
        }
      ],
      "name": "updateClaimPhase",
      "outputs": [],
      "stateMutability": "nonpayable",
      "type": "function"
    },
    {
      "inputs": [
        {
          "internalType": "uint256",
          "name": "fee",
          "type": "uint256"
        }
      ],
      "name": "updateEntryFee",
      "outputs": [],
      "stateMutability": "nonpayable",
      "type": "function"
    },
    {
      "inputs": [
        {
          "internalType": "uint256",
          "name": "minBalance",
          "type": "uint256"
        }
      ],
      "name": "updateMinUSDCDrawBalance",
      "outputs": [],
      "stateMutability": "nonpayable",
      "type": "function"
    }
  ],
  "bytecode": "0x608060405273c944b73fba33a773a4a07340333a3184a70af1ae600160006101000a81548173ffffffffffffffffffffffffffffffffffffffff021916908373ffffffffffffffffffffffffffffffffffffffff16021790555073923096da90a3b60eb7e12723fa2e1547ba9236bc600260006101000a81548173ffffffffffffffffffffffffffffffffffffffff021916908373ffffffffffffffffffffffffffffffffffffffff1602179055506409c8702b60600355683635c9adc5de9fffff600455348015620000d157600080fd5b50604051620037cc380380620037cc8339818101604052810190620000f7919062000381565b620001176200010b6200023560201b60201c565b6200023d60201b60201c565b80600560006101000a81548173ffffffffffffffffffffffffffffffffffffffff021916908373ffffffffffffffffffffffffffffffffffffffff1602179055506298968060078190555064e8d4a51000600881905550640ba43b7400600981905550632cb41780600a81905550632cb41780600b819055506302160ec0600c819055506302faf080600d8190555062e4e1c0600e8190555062989680600f819055506402540be400601281905550600060118190555060016006819055506040518060c00160405280600060ff168152602001600060ff168152602001600060ff168152602001600060ff168152602001600060ff168152602001600060ff1681525060139060066200022d92919062000301565b505062000406565b600033905090565b60008060009054906101000a900473ffffffffffffffffffffffffffffffffffffffff169050816000806101000a81548173ffffffffffffffffffffffffffffffffffffffff021916908373ffffffffffffffffffffffffffffffffffffffff1602179055508173ffffffffffffffffffffffffffffffffffffffff168173ffffffffffffffffffffffffffffffffffffffff167f8be0079c531659141344cd1fd0a4f28419497f9722a3daafe3b4186f6b6457e060405160405180910390a35050565b826006810192821562000338579160200282015b8281111562000337578251829060ff1690559160200191906001019062000315565b5b5090506200034791906200034b565b5090565b5b80821115620003665760008160009055506001016200034c565b5090565b6000815190506200037b81620003ec565b92915050565b6000602082840312156200039a5762000399620003e7565b5b6000620003aa848285016200036a565b91505092915050565b6000620003c082620003c7565b9050919050565b600073ffffffffffffffffffffffffffffffffffffffff82169050919050565b600080fd5b620003f781620003b3565b81146200040357600080fd5b50565b6133b680620004166000396000f3fe6080604052600436106101355760003560e01c8063aa182626116100ab578063e23d5d471161006f578063e23d5d47146103a7578063e2f273bd146103e4578063ebe93caf1461040d578063f04a9dca14610436578063f10fb58414610473578063f2fde38b1461049e57610135565b8063aa182626146102ea578063ac08744814610313578063b21443f61461033e578063c3058dc514610367578063d72db90f1461037e57610135565b80634e71d92d116100fd5780634e71d92d1461021257806363dfa1a814610229578063715018a61461025457806384350e1d1461026b578063843ab8bd146102965780638da5cb5b146102bf57610135565b80630e00a8c81461013a5780631d673e561461017757806334cb0c7f146101935780633cfd1ccc146101aa578063426ac498146101d5575b600080fd5b34801561014657600080fd5b50610161600480360381019061015c919061239d565b6104c7565b60405161016e9190612b69565b60405180910390f35b610191600480360381019061018c9190612310565b6106ec565b005b34801561019f57600080fd5b506101a8610e38565b005b3480156101b657600080fd5b506101bf610f89565b6040516101cc9190612b69565b60405180910390f35b3480156101e157600080fd5b506101fc60048036038101906101f7919061241f565b61103b565b604051610209919061293d565b60405180910390f35b34801561021e57600080fd5b5061022761111b565b005b34801561023557600080fd5b5061023e611598565b60405161024b919061293d565b60405180910390f35b34801561026057600080fd5b50610269611678565b005b34801561027757600080fd5b5061028061168c565b60405161028d919061295f565b60405180910390f35b3480156102a257600080fd5b506102bd60048036038101906102b8919061241f565b6116f5565b005b3480156102cb57600080fd5b506102d4611707565b6040516102e19190612899565b60405180910390f35b3480156102f657600080fd5b50610311600480360381019061030c919061241f565b611730565b005b34801561031f57600080fd5b50610328611742565b6040516103359190612b69565b60405180910390f35b34801561034a57600080fd5b50610365600480360381019061036091906122d0565b61174c565b005b34801561037357600080fd5b5061037c6117c5565b005b34801561038a57600080fd5b506103a560048036038101906103a0919061241f565b6118b1565b005b3480156103b357600080fd5b506103ce60048036038101906103c991906122d0565b6118c3565b6040516103db919061293d565b60405180910390f35b3480156103f057600080fd5b5061040b600480360381019061040691906122a3565b6119ac565b005b34801561041957600080fd5b50610434600480360381019061042f9190612479565b6119f8565b005b34801561044257600080fd5b5061045d6004803603810190610458919061241f565b611cf2565b60405161046a919061295f565b60405180910390f35b34801561047f57600080fd5b50610488611dc6565b60405161049591906129b3565b60405180910390f35b3480156104aa57600080fd5b506104c560048036038101906104c09190612276565b611dec565b005b60008082856005600681106104df576104de612fe1565b5b60200201511490506104ef611fba565b6000805b600160066105019190612d81565b8110156105e057600088826006811061051d5761051c612fe1565b5b60200201519050600088826047811061053957610538612fe1565b5b6020020135118015610578575083816047811061055957610558612fe1565b5b602002015188826047811061057157610570612fe1565b5b6020020135115b156105cc57828061058890612ec0565b93505060018482604781106105a05761059f612fe1565b5b60200201516105af9190612ca0565b8482604781106105c2576105c1612fe1565b5b6020020181815250505b5080806105d890612f09565b9150506104f3565b506005811480156105ee5750825b156106005760045493505050506106e5565b60058114156106165760085493505050506106e5565b6004811480156106235750825b156106355760095493505050506106e5565b600481141561064b57600a5493505050506106e5565b6003811480156106585750825b1561066a57600b5493505050506106e5565b600381141561068057600c5493505050506106e5565b60028114801561068d5750825b1561069f57600d5493505050506106e5565b6001811480156106ac5750825b156106be57600e5493505050506106e5565b6001811480156106cb5750825b156106dd57600f5493505050506106e5565b600093505050505b9392505050565b6000339050600754848490506107029190612d27565b821015610744576040517f08c379a000000000000000000000000000000000000000000000000000000000815260040161073b90612a69565b60405180910390fd5b81600160009054906101000a900473ffffffffffffffffffffffffffffffffffffffff1673ffffffffffffffffffffffffffffffffffffffff1663dd62ed3e83306040518363ffffffff1660e01b81526004016107a29291906128b4565b60206040518083038186803b1580156107ba57600080fd5b505afa1580156107ce573d6000803e3d6000fd5b505050506040513d601f19601f820116820180604052508101906107f2919061244c565b1015610833576040517f08c379a000000000000000000000000000000000000000000000000000000000815260040161082a90612a29565b60405180910390fd5b60006005836108429190612cf6565b90506000600160009054906101000a900473ffffffffffffffffffffffffffffffffffffffff1673ffffffffffffffffffffffffffffffffffffffff166323b872dd843085886108929190612d81565b6040518463ffffffff1660e01b81526004016108b0939291906128dd565b602060405180830381600087803b1580156108ca57600080fd5b505af11580156108de573d6000803e3d6000fd5b505050506040513d601f19601f8201168201806040525081019061090291906123f2565b90508080156109e05750600160009054906101000a900473ffffffffffffffffffffffffffffffffffffffff1673ffffffffffffffffffffffffffffffffffffffff166323b872dd84600560009054906101000a900473ffffffffffffffffffffffffffffffffffffffff16856040518463ffffffff1660e01b815260040161098d939291906128dd565b602060405180830381600087803b1580156109a757600080fd5b505af11580156109bb573d6000803e3d6000fd5b505050506040513d601f19601f820116820180604052508101906109df91906123f2565b5b905080610a22576040517f08c379a0000000000000000000000000000000000000000000000000000000008152600401610a1990612ac9565b60405180910390fd5b6000601a60008573ffffffffffffffffffffffffffffffffffffffff1673ffffffffffffffffffffffffffffffffffffffff168152602001908152602001600020905060008160006006548152602001908152602001600020905060005b88889050811015610e2d576000898983818110610aa057610a9f612fe1565b5b905060c002016006806020026040519081016040528092919082600660200280828437600081840152601f19601f8201169050808301925050505050509050600081600060068110610af557610af4612fe1565b5b6020020151118015610b205750604681600060068110610b1857610b17612fe1565b5b602002015111155b610b5f576040517f08c379a0000000000000000000000000000000000000000000000000000000008152600401610b5690612a89565b60405180910390fd5b600081600160068110610b7557610b74612fe1565b5b6020020151118015610ba05750604681600160068110610b9857610b97612fe1565b5b602002015111155b610bdf576040517f08c379a0000000000000000000000000000000000000000000000000000000008152600401610bd690612a89565b60405180910390fd5b600081600260068110610bf557610bf4612fe1565b5b6020020151118015610c205750604681600260068110610c1857610c17612fe1565b5b602002015111155b610c5f576040517f08c379a0000000000000000000000000000000000000000000000000000000008152600401610c5690612a89565b60405180910390fd5b600081600360068110610c7557610c74612fe1565b5b6020020151118015610ca05750604681600360068110610c9857610c97612fe1565b5b602002015111155b610cdf576040517f08c379a0000000000000000000000000000000000000000000000000000000008152600401610cd690612a89565b60405180910390fd5b600081600460068110610cf557610cf4612fe1565b5b6020020151118015610d205750604681600460068110610d1857610d17612fe1565b5b602002015111155b610d5f576040517f08c379a0000000000000000000000000000000000000000000000000000000008152600401610d5690612a89565b60405180910390fd5b600081600560068110610d7557610d74612fe1565b5b6020020151118015610da05750601981600560068110610d9857610d97612fe1565b5b602002015111155b610ddf576040517f08c379a0000000000000000000000000000000000000000000000000000000008152600401610dd690612a49565b60405180910390fd5b82819080600181540180825580915050600190039060005260206000209060060201600090919091909150906006610e18929190611fdd565b50508080610e2590612f09565b915050610a80565b505050505050505050565b610e40611e70565b6000601980549050601054610e559190612cf6565b905060005b601980549050811015610f6857600160009054906101000a900473ffffffffffffffffffffffffffffffffffffffff1673ffffffffffffffffffffffffffffffffffffffff1663a9059cbb60198381548110610eb957610eb8612fe1565b5b9060005260206000200160009054906101000a900473ffffffffffffffffffffffffffffffffffffffff16846040518363ffffffff1660e01b8152600401610f02929190612914565b602060405180830381600087803b158015610f1c57600080fd5b505af1158015610f30573d6000803e3d6000fd5b505050506040513d601f19601f82011682018060405250810190610f5491906123f2565b508080610f6090612f09565b915050610e5a565b5060006011819055506001600654610f809190612ca0565b60068190555050565b6000600160009054906101000a900473ffffffffffffffffffffffffffffffffffffffff1673ffffffffffffffffffffffffffffffffffffffff166370a08231306040518263ffffffff1660e01b8152600401610fe69190612899565b60206040518083038186803b158015610ffe57600080fd5b505afa158015611012573d6000803e3d6000fd5b505050506040513d601f19601f82011682018060405250810190611036919061244c565b905090565b6060601a60003373ffffffffffffffffffffffffffffffffffffffff1673ffffffffffffffffffffffffffffffffffffffff1681526020019081526020016000206000838152602001908152602001600020805480602002602001604051908101604052809291908181526020016000905b8282101561111057838290600052602060002090600602016006806020026040519081016040528092919082600680156110fc576020028201915b8154815260200190600101908083116110e8575b5050505050815260200190600101906110ad565b505050509050919050565b600060115411611160576040517f08c379a0000000000000000000000000000000000000000000000000000000008152600401611157906129e9565b60405180910390fd5b6000339050601b60008273ffffffffffffffffffffffffffffffffffffffff1673ffffffffffffffffffffffffffffffffffffffff1681526020019081526020016000206000600654815260200190815260200160002060009054906101000a900460ff1615611205576040517f08c379a00000000000000000000000000000000000000000000000000000000081526004016111fc90612b49565b60405180910390fd5b6000601a60008373ffffffffffffffffffffffffffffffffffffffff1673ffffffffffffffffffffffffffffffffffffffff1681526020019081526020016000206000600654815260200190815260200160002090506000611265611fba565b60005b600160066112769190612d81565b811015611300576000826013836006811061129457611293612fe1565b5b0154604781106112a7576112a6612fe1565b5b602002015190506001816112bb9190612ca0565b83601384600681106112d0576112cf612fe1565b5b0154604781106112e3576112e2612fe1565b5b6020020181815250505080806112f890612f09565b915050611268565b5060005b838054905081101561146c5760003073ffffffffffffffffffffffffffffffffffffffff16630e00a8c886848154811061134157611340612fe1565b5b906000526020600020906006020185601360056006811061136557611364612fe1565b5b01546040518463ffffffff1660e01b81526004016113859392919061297a565b60206040518083038186803b15801561139d57600080fd5b505afa1580156113b1573d6000803e3d6000fd5b505050506040513d601f19601f820116820180604052508101906113d5919061244c565b9050600454811415611449576019869080600181540180825580915050600190039060005260206000200160009091909190916101000a81548173ffffffffffffffffffffffffffffffffffffffff021916908373ffffffffffffffffffffffffffffffffffffffff160217905550611458565b80846114559190612ca0565b93505b50808061146490612f09565b915050611304565b50600082111561152757600160009054906101000a900473ffffffffffffffffffffffffffffffffffffffff1673ffffffffffffffffffffffffffffffffffffffff1663a9059cbb85846040518363ffffffff1660e01b81526004016114d3929190612914565b602060405180830381600087803b1580156114ed57600080fd5b505af1158015611501573d6000803e3d6000fd5b505050506040513d601f19601f8201168201806040525081019061152591906123f2565b505b6001601b60008673ffffffffffffffffffffffffffffffffffffffff1673ffffffffffffffffffffffffffffffffffffffff1681526020019081526020016000206000600654815260200190815260200160002060006101000a81548160ff02191690831515021790555050505050565b6060601a60003373ffffffffffffffffffffffffffffffffffffffff1673ffffffffffffffffffffffffffffffffffffffff16815260200190815260200160002060006006548152602001908152602001600020805480602002602001604051908101604052809291908181526020016000905b8282101561166f578382906000526020600020906006020160068060200260405190810160405280929190826006801561165b576020028201915b815481526020019060010190808311611647575b50505050508152602001906001019061160c565b50505050905090565b611680611e70565b61168a6000611eee565b565b61169461201d565b61169c61201d565b60005b60068110156116ed57601381600681106116bc576116bb612fe1565b5b01548282600681106116d1576116d0612fe1565b5b60200201818152505080806116e590612f09565b91505061169f565b508091505090565b6116fd611e70565b8060118190555050565b60008060009054906101000a900473ffffffffffffffffffffffffffffffffffffffff16905090565b611738611e70565b8060078190555050565b6000601154905090565b611754611e70565b8173ffffffffffffffffffffffffffffffffffffffff16632465f8f533836040518363ffffffff1660e01b815260040161178f929190612914565b600060405180830381600087803b1580156117a957600080fd5b505af11580156117bd573d6000803e3d6000fd5b505050505050565b6117cd611e70565b6000600260009054906101000a900473ffffffffffffffffffffffffffffffffffffffff1673ffffffffffffffffffffffffffffffffffffffff1663d845a4b3620f42406040518263ffffffff1660e01b815260040161182d91906129ce565b602060405180830381600087803b15801561184757600080fd5b505af115801561185b573d6000803e3d6000fd5b505050506040513d601f19601f8201168201806040525081019061187f919061244c565b9050807ffc25ee6cef1e5b8c4e7a2f8d3bbb15ca76bb693b8b5644b3b481e1831c09530b60405160405180910390a250565b6118b9611e70565b8060128190555050565b60606118cd611e70565b601a60008473ffffffffffffffffffffffffffffffffffffffff1673ffffffffffffffffffffffffffffffffffffffff1681526020019081526020016000206000838152602001908152602001600020805480602002602001604051908101604052809291908181526020016000905b828210156119a0578382906000526020600020906006020160068060200260405190810160405280929190826006801561198c576020028201915b815481526020019060010190808311611978575b50505050508152602001906001019061193d565b50505050905092915050565b6119b4611e70565b80600560006101000a81548173ffffffffffffffffffffffffffffffffffffffff021916908373ffffffffffffffffffffffffffffffffffffffff16021790555050565b3373ffffffffffffffffffffffffffffffffffffffff16600260009054906101000a900473ffffffffffffffffffffffffffffffffffffffff1673ffffffffffffffffffffffffffffffffffffffff1614611a88576040517f08c379a0000000000000000000000000000000000000000000000000000000008152600401611a7f90612b29565b60405180910390fd5b6000600160009054906101000a900473ffffffffffffffffffffffffffffffffffffffff1673ffffffffffffffffffffffffffffffffffffffff166370a08231306040518263ffffffff1660e01b8152600401611ae59190612899565b60206040518083038186803b158015611afd57600080fd5b505afa158015611b11573d6000803e3d6000fd5b505050506040513d601f19601f82011682018060405250810190611b35919061244c565b9050601254811015611b7c576040517f08c379a0000000000000000000000000000000000000000000000000000000008152600401611b7390612b09565b60405180910390fd5b600060115414611bc1576040517f08c379a0000000000000000000000000000000000000000000000000000000008152600401611bb890612ae9565b60405180910390fd5b827f987867a7321bbfcd6e0481b5db1ba3b9c6f8ea97e988708a6f91ea2b27bce2458360001c604051611bf49190612b69565b60405180910390a260003073ffffffffffffffffffffffffffffffffffffffff1663f04a9dca8460001c6040518263ffffffff1660e01b8152600401611c3a9190612b69565b60c06040518083038186803b158015611c5257600080fd5b505afa158015611c66573d6000803e3d6000fd5b505050506040513d601f19601f82011682018060405250810190611c8a9190612370565b905060005b6006811015611cdc57818160068110611cab57611caa612fe1565b5b602002015160138260068110611cc457611cc3612fe1565b5b01819055508080611cd490612f09565b915050611c8f565b5081601081905550600160118190555050505050565b611cfa61201d565b611d0261201d565b600060035484611d129190612f52565b90506001601982611d239190612f52565b611d2d9190612ca0565b82600560068110611d4157611d40612fe1565b5b602002018181525050601981611d579190612cf6565b905060005b60048111611dbb576001604683611d739190612f52565b611d7d9190612ca0565b838260068110611d9057611d8f612fe1565b5b602002018181525050604682611da69190612cf6565b91508080611db390612f09565b915050611d5c565b508192505050919050565b600260009054906101000a900473ffffffffffffffffffffffffffffffffffffffff1681565b611df4611e70565b600073ffffffffffffffffffffffffffffffffffffffff168173ffffffffffffffffffffffffffffffffffffffff161415611e64576040517f08c379a0000000000000000000000000000000000000000000000000000000008152600401611e5b90612a09565b60405180910390fd5b611e6d81611eee565b50565b611e78611fb2565b73ffffffffffffffffffffffffffffffffffffffff16611e96611707565b73ffffffffffffffffffffffffffffffffffffffff1614611eec576040517f08c379a0000000000000000000000000000000000000000000000000000000008152600401611ee390612aa9565b60405180910390fd5b565b60008060009054906101000a900473ffffffffffffffffffffffffffffffffffffffff169050816000806101000a81548173ffffffffffffffffffffffffffffffffffffffff021916908373ffffffffffffffffffffffffffffffffffffffff1602179055508173ffffffffffffffffffffffffffffffffffffffff168173ffffffffffffffffffffffffffffffffffffffff167f8be0079c531659141344cd1fd0a4f28419497f9722a3daafe3b4186f6b6457e060405160405180910390a35050565b600033905090565b604051806108e00160405280604790602082028036833780820191505090505090565b826006810192821561200c579160200282015b8281111561200b578251825591602001919060010190611ff0565b5b509050612019919061203f565b5090565b6040518060c00160405280600690602082028036833780820191505090505090565b5b80821115612058576000816000905550600101612040565b5090565b600061206f61206a84612ba9565b612b84565b905080828560208602820111156120895761208861305c565b5b60005b858110156120b9578161209f888261224c565b84526020840193506020830192505060018101905061208c565b5050509392505050565b60006120d66120d184612ba9565b612b84565b905080828560208602820111156120f0576120ef61305c565b5b60005b8581101561212057816121068882612261565b8452602084019350602083019250506001810190506120f3565b5050509392505050565b6000813590506121398161330d565b92915050565b60008135905061214e81613324565b92915050565b60008083601f84011261216a57612169613057565b5b8235905067ffffffffffffffff81111561218757612186613052565b5b6020830191508360c08202830111156121a3576121a261305c565b5b9250929050565b600082601f8301126121bf576121be613057565b5b60066121cc84828561205c565b91505092915050565b600082601f8301126121ea576121e9613057565b5b60066121f78482856120c3565b91505092915050565b60008190508260206047028201111561221c5761221b61305c565b5b92915050565b6000815190506122318161333b565b92915050565b60008135905061224681613352565b92915050565b60008135905061225b81613369565b92915050565b60008151905061227081613369565b92915050565b60006020828403121561228c5761228b613066565b5b600061229a8482850161212a565b91505092915050565b6000602082840312156122b9576122b8613066565b5b60006122c78482850161213f565b91505092915050565b600080604083850312156122e7576122e6613066565b5b60006122f58582860161212a565b92505060206123068582860161224c565b9150509250929050565b60008060006040848603121561232957612328613066565b5b600084013567ffffffffffffffff81111561234757612346613061565b5b61235386828701612154565b935093505060206123668682870161224c565b9150509250925092565b600060c0828403121561238657612385613066565b5b6000612394848285016121d5565b91505092915050565b60008060006109c084860312156123b7576123b6613066565b5b60006123c5868287016121aa565b93505060c06123d686828701612200565b9250506109a06123e88682870161224c565b9150509250925092565b60006020828403121561240857612407613066565b5b600061241684828501612222565b91505092915050565b60006020828403121561243557612434613066565b5b60006124438482850161224c565b91505092915050565b60006020828403121561246257612461613066565b5b600061247084828501612261565b91505092915050565b600080604083850312156124905761248f613066565b5b600061249e8582860161224c565b92505060206124af85828601612237565b9150509250929050565b60006124c58383612556565b60c08301905092915050565b60006124dd838361287b565b60208301905092915050565b6124f281612dbf565b82525050565b600061250382612bfd565b61250d8185612c5d565b935061251883612bcf565b8060005b8381101561254957815161253088826124b9565b975061253b83612c29565b92505060018101905061251c565b5085935050505092915050565b61255f81612c08565b6125698184612c6e565b925061257482612bdf565b8060005b838110156125a557815161258c87826124d1565b965061259783612c36565b925050600181019050612578565b505050505050565b6125b681612c08565b6125c08184612c79565b92506125cb82612bdf565b8060005b838110156125fc5781516125e387826124d1565b96506125ee83612c36565b9250506001810190506125cf565b505050505050565b61260d81612c13565b6126178184612c79565b925061262282612be9565b8060005b8381101561265a576126378261303f565b61264187826124d1565b965061264c83612c43565b925050600181019050612626565b505050505050565b61266b81612c1e565b6126758184612c84565b925061268082612bf3565b8060005b838110156126b157815161269887826124d1565b96506126a383612c50565b925050600181019050612684565b505050505050565b6126c281612e2d565b82525050565b6126d181612e3f565b82525050565b60006126e4601483612c8f565b91506126ef82613089565b602082019050919050565b6000612707602683612c8f565b9150612712826130b2565b604082019050919050565b600061272a602383612c8f565b915061273582613101565b604082019050919050565b600061274d602183612c8f565b915061275882613150565b604082019050919050565b6000612770601483612c8f565b915061277b8261319f565b602082019050919050565b6000612793602b83612c8f565b915061279e826131c8565b604082019050919050565b60006127b6602083612c8f565b91506127c182613217565b602082019050919050565b60006127d9601383612c8f565b91506127e482613240565b602082019050919050565b60006127fc601983612c8f565b915061280782613269565b602082019050919050565b600061281f601e83612c8f565b915061282a82613292565b602082019050919050565b6000612842600e83612c8f565b915061284d826132bb565b602082019050919050565b6000612865601783612c8f565b9150612870826132e4565b602082019050919050565b61288481612e23565b82525050565b61289381612e23565b82525050565b60006020820190506128ae60008301846124e9565b92915050565b60006040820190506128c960008301856124e9565b6128d660208301846124e9565b9392505050565b60006060820190506128f260008301866124e9565b6128ff60208301856124e9565b61290c604083018461288a565b949350505050565b600060408201905061292960008301856124e9565b612936602083018461288a565b9392505050565b6000602082019050818103600083015261295781846124f8565b905092915050565b600060c08201905061297460008301846125ad565b92915050565b60006109c0820190506129906000830186612604565b61299d60c0830185612662565b6129ab6109a083018461288a565b949350505050565b60006020820190506129c860008301846126b9565b92915050565b60006020820190506129e360008301846126c8565b92915050565b60006020820190508181036000830152612a02816126d7565b9050919050565b60006020820190508181036000830152612a22816126fa565b9050919050565b60006020820190508181036000830152612a428161271d565b9050919050565b60006020820190508181036000830152612a6281612740565b9050919050565b60006020820190508181036000830152612a8281612763565b9050919050565b60006020820190508181036000830152612aa281612786565b9050919050565b60006020820190508181036000830152612ac2816127a9565b9050919050565b60006020820190508181036000830152612ae2816127cc565b9050919050565b60006020820190508181036000830152612b02816127ef565b9050919050565b60006020820190508181036000830152612b2281612812565b9050919050565b60006020820190508181036000830152612b4281612835565b9050919050565b60006020820190508181036000830152612b6281612858565b9050919050565b6000602082019050612b7e600083018461288a565b92915050565b6000612b8e612b9f565b9050612b9a8282612e8f565b919050565b6000604051905090565b600067ffffffffffffffff821115612bc457612bc3613010565b5b602082029050919050565b6000819050602082019050919050565b6000819050919050565b6000819050919050565b6000819050919050565b600081519050919050565b600060069050919050565b600060069050919050565b600060479050919050565b6000602082019050919050565b6000602082019050919050565b6000600182019050919050565b6000602082019050919050565b600082825260208201905092915050565b600081905092915050565b600081905092915050565b600081905092915050565b600082825260208201905092915050565b6000612cab82612e23565b9150612cb683612e23565b9250827fffffffffffffffffffffffffffffffffffffffffffffffffffffffffffffffff03821115612ceb57612cea612f83565b5b828201905092915050565b6000612d0182612e23565b9150612d0c83612e23565b925082612d1c57612d1b612fb2565b5b828204905092915050565b6000612d3282612e23565b9150612d3d83612e23565b9250817fffffffffffffffffffffffffffffffffffffffffffffffffffffffffffffffff0483118215151615612d7657612d75612f83565b5b828202905092915050565b6000612d8c82612e23565b9150612d9783612e23565b925082821015612daa57612da9612f83565b5b828203905092915050565b6000819050919050565b6000612dca82612e03565b9050919050565b6000612ddc82612e03565b9050919050565b60008115159050919050565b6000819050919050565b6000819050919050565b600073ffffffffffffffffffffffffffffffffffffffff82169050919050565b6000819050919050565b6000612e3882612e51565b9050919050565b6000612e4a82612e23565b9050919050565b6000612e5c82612e63565b9050919050565b6000612e6e82612e03565b9050919050565b6000612e88612e838361307c565b612db5565b9050919050565b612e988261306b565b810181811067ffffffffffffffff82111715612eb757612eb6613010565b5b80604052505050565b6000612ecb82612df9565b91507f7fffffffffffffffffffffffffffffffffffffffffffffffffffffffffffffff821415612efe57612efd612f83565b5b600182019050919050565b6000612f1482612e23565b91507fffffffffffffffffffffffffffffffffffffffffffffffffffffffffffffffff821415612f4757612f46612f83565b5b600182019050919050565b6000612f5d82612e23565b9150612f6883612e23565b925082612f7857612f77612fb2565b5b828206905092915050565b7f4e487b7100000000000000000000000000000000000000000000000000000000600052601160045260246000fd5b7f4e487b7100000000000000000000000000000000000000000000000000000000600052601260045260246000fd5b7f4e487b7100000000000000000000000000000000000000000000000000000000600052603260045260246000fd5b7f4e487b7100000000000000000000000000000000000000000000000000000000600052604160045260246000fd5b600061304b8254612e75565b9050919050565b600080fd5b600080fd5b600080fd5b600080fd5b600080fd5b6000601f19601f8301169050919050565b60008160001c9050919050565b7f434c41494d5f54494d455f4e4f545f5245414459000000000000000000000000600082015250565b7f4f776e61626c653a206e6577206f776e657220697320746865207a65726f206160008201527f6464726573730000000000000000000000000000000000000000000000000000602082015250565b7f4e6f7420617070726f76656420746f2073656e6420555344432072657175657360008201527f7465640000000000000000000000000000000000000000000000000000000000602082015250565b7f6c617374206e756d626572206d7573742062652066726f6d203120746f20323560008201527f2e00000000000000000000000000000000000000000000000000000000000000602082015250565b7f4e4f545f454e4f5547485f454e5452595f464545000000000000000000000000600082015250565b7f666972737420746f206669667468206e756d626572206d75737420626520667260008201527f6f6d203120746f2037302e000000000000000000000000000000000000000000602082015250565b7f4f776e61626c653a2063616c6c6572206973206e6f7420746865206f776e6572600082015250565b7f555344435f5041594d454e545f4641494c454400000000000000000000000000600082015250565b7f416e6f7468657220636c61696d20697320676f696e67206f6e00000000000000600082015250565b7f446f6e2774206861766520656e6f756768205553444320626c616e6163650000600082015250565b7f6e6f742d72616e646f6d697a6572000000000000000000000000000000000000600082015250565b7f414c52454144595f434c41494d45445f4c4f5454455259000000000000000000600082015250565b61331681612dbf565b811461332157600080fd5b50565b61332d81612dd1565b811461333857600080fd5b50565b61334481612de3565b811461334f57600080fd5b50565b61335b81612def565b811461336657600080fd5b50565b61337281612e23565b811461337d57600080fd5b5056fea2646970667358221220173bdc21871eec4a1eeb8fe1684979e3c65c0ea10c5efe854626fe45e2ba765964736f6c63430008070033",
  "linkReferences": {},
  "deployedLinkReferences": {}
}