{
  "_format": "hh-sol-artifact-1",
  "contractName": "MillionJackpot",
  "sourceName": "contracts/MillionJackpot.sol",
  "abi": [
    {
      "inputs": [
        {
          "internalType": "address payable",
          "name": "_admin",
          "type": "address"
        }
      ],
      "stateMutability": "nonpayable",
      "type": "constructor"
    },
    {
      "anonymous": false,
      "inputs": [
        {
          "indexed": true,
          "internalType": "uint256",
          "name": "id",
          "type": "uint256"
        }
      ],
      "name": "Flip",
      "type": "event"
    },
    {
      "anonymous": false,
      "inputs": [
        {
          "indexed": true,
          "internalType": "uint256",
          "name": "id",
          "type": "uint256"
        },
        {
          "indexed": false,
          "internalType": "uint256",
          "name": "number",
          "type": "uint256"
        }
      ],
      "name": "FlipResult",
      "type": "event"
    },
    {
      "anonymous": false,
      "inputs": [
        {
          "indexed": true,
          "internalType": "address",
          "name": "previousOwner",
          "type": "address"
        },
        {
          "indexed": true,
          "internalType": "address",
          "name": "newOwner",
          "type": "address"
        }
      ],
      "name": "OwnershipTransferred",
      "type": "event"
    },
    {
      "inputs": [],
      "name": "claim",
      "outputs": [],
      "stateMutability": "nonpayable",
      "type": "function"
    },
    {
      "inputs": [],
      "name": "claimJackpot",
      "outputs": [],
      "stateMutability": "nonpayable",
      "type": "function"
    },
    {
      "inputs": [],
      "name": "decideWinners",
      "outputs": [],
      "stateMutability": "nonpayable",
      "type": "function"
    },
    {
      "inputs": [],
      "name": "getNewDrawEligibileBlockNumber",
      "outputs": [
        {
          "internalType": "uint256",
          "name": "",
          "type": "uint256"
        }
      ],
      "stateMutability": "view",
      "type": "function"
    },
    {
      "inputs": [],
      "name": "getWinningNumbers",
      "outputs": [
        {
          "internalType": "uint256[]",
          "name": "",
          "type": "uint256[]"
        }
      ],
      "stateMutability": "view",
      "type": "function"
    },
    {
      "inputs": [],
      "name": "getWinningPhaseOneEndBlockNumber",
      "outputs": [
        {
          "internalType": "uint256",
          "name": "",
          "type": "uint256"
        }
      ],
      "stateMutability": "view",
      "type": "function"
    },
    {
      "inputs": [],
      "name": "getWinningPhaseTwoEndBlockNumber",
      "outputs": [
        {
          "internalType": "uint256",
          "name": "",
          "type": "uint256"
        }
      ],
      "stateMutability": "view",
      "type": "function"
    },
    {
      "inputs": [],
      "name": "owner",
      "outputs": [
        {
          "internalType": "address",
          "name": "",
          "type": "address"
        }
      ],
      "stateMutability": "view",
      "type": "function"
    },
    {
      "inputs": [
        {
          "internalType": "uint256",
          "name": "daysForUnlock",
          "type": "uint256"
        }
      ],
      "name": "placeBet",
      "outputs": [],
      "stateMutability": "payable",
      "type": "function"
    },
    {
      "inputs": [],
      "name": "randomizer",
      "outputs": [
        {
          "internalType": "contract IRandomizer",
          "name": "",
          "type": "address"
        }
      ],
      "stateMutability": "view",
      "type": "function"
    },
    {
      "inputs": [
        {
          "internalType": "uint256",
          "name": "_id",
          "type": "uint256"
        },
        {
          "internalType": "bytes32",
          "name": "_value",
          "type": "bytes32"
        }
      ],
      "name": "randomizerCallback",
      "outputs": [],
      "stateMutability": "nonpayable",
      "type": "function"
    },
    {
      "inputs": [
        {
          "internalType": "address",
          "name": "_randomizer",
          "type": "address"
        },
        {
          "internalType": "uint256",
          "name": "amount",
          "type": "uint256"
        }
      ],
      "name": "randomizerWithdraw",
      "outputs": [],
      "stateMutability": "nonpayable",
      "type": "function"
    },
    {
      "inputs": [],
      "name": "renounceOwnership",
      "outputs": [],
      "stateMutability": "nonpayable",
      "type": "function"
    },
    {
      "inputs": [
        {
          "internalType": "address",
          "name": "newOwner",
          "type": "address"
        }
      ],
      "name": "transferOwnership",
      "outputs": [],
      "stateMutability": "nonpayable",
      "type": "function"
    },
    {
      "inputs": [
        {
          "internalType": "address payable",
          "name": "_admin",
          "type": "address"
        }
      ],
      "name": "updateAdmin",
      "outputs": [],
      "stateMutability": "nonpayable",
      "type": "function"
    },
    {
      "inputs": [
        {
          "internalType": "uint256",
          "name": "blocks",
          "type": "uint256"
        }
      ],
      "name": "updateBlockPerDay",
      "outputs": [],
      "stateMutability": "nonpayable",
      "type": "function"
    },
    {
      "inputs": [
        {
          "internalType": "uint256",
          "name": "minBalance",
          "type": "uint256"
        }
      ],
      "name": "updateMinUSDCDrawBalance",
      "outputs": [],
      "stateMutability": "nonpayable",
      "type": "function"
    },
    {
      "inputs": [
        {
          "internalType": "uint256",
          "name": "eligibleDays",
          "type": "uint256"
        }
      ],
      "name": "updateNewDrawEligibileDays",
      "outputs": [],
      "stateMutability": "nonpayable",
      "type": "function"
    },
    {
      "inputs": [
        {
          "internalType": "uint256",
          "name": "phaseOneDays",
          "type": "uint256"
        }
      ],
      "name": "updatePhaseOneDays",
      "outputs": [],
      "stateMutability": "nonpayable",
      "type": "function"
    },
    {
      "inputs": [
        {
          "internalType": "uint256",
          "name": "phaseTwoDays",
          "type": "uint256"
        }
      ],
      "name": "updatePhaseTwoDays",
      "outputs": [],
      "stateMutability": "nonpayable",
      "type": "function"
    },
    {
      "inputs": [
        {
          "internalType": "address",
          "name": "vrfAddress",
          "type": "address"
        }
      ],
      "name": "updateVRFAddress",
      "outputs": [],
      "stateMutability": "nonpayable",
      "type": "function"
    }
  ],
  "bytecode": "0x60806040526409c8702b6060015573d87ba7a50b2e7e660f678a895e4b72e7cb4ccd9c600260006101000a81548173ffffffffffffffffffffffffffffffffffffffff021916908373ffffffffffffffffffffffffffffffffffffffff16021790555073923096da90a3b60eb7e12723fa2e1547ba9236bc600360006101000a81548173ffffffffffffffffffffffffffffffffffffffff021916908373ffffffffffffffffffffffffffffffffffffffff160217905550348015620000c457600080fd5b5060405162001a6238038062001a628339818101604052810190620000ea919062000383565b6200010a620000fe6200023760201b60201c565b6200023f60201b60201c565b80600560006101000a81548173ffffffffffffffffffffffffffffffffffffffff021916908373ffffffffffffffffffffffffffffffffffffffff16021790555064e8d4a51000600681905550640ba43b7400600781905550632cb41780600881905550632cb417806009819055506302160ec0600a819055506302faf080600b8190555062e4e1c0600c8190555062989680600d819055506402540be4006015819055506000601081905550616f056016819055506007600f81905550600260118190555060016013819055506040518060c00160405280600060ff168152602001600060ff168152602001600060ff168152602001600060ff168152602001600060ff168152602001600060ff1681525060179060066200022f92919062000303565b505062000408565b600033905090565b60008060009054906101000a900473ffffffffffffffffffffffffffffffffffffffff169050816000806101000a81548173ffffffffffffffffffffffffffffffffffffffff021916908373ffffffffffffffffffffffffffffffffffffffff1602179055508173ffffffffffffffffffffffffffffffffffffffff168173ffffffffffffffffffffffffffffffffffffffff167f8be0079c531659141344cd1fd0a4f28419497f9722a3daafe3b4186f6b6457e060405160405180910390a35050565b82600681019282156200033a579160200282015b8281111562000339578251829060ff1690559160200191906001019062000317565b5b5090506200034991906200034d565b5090565b5b80821115620003685760008160009055506001016200034e565b5090565b6000815190506200037d81620003ee565b92915050565b6000602082840312156200039c576200039b620003e9565b5b6000620003ac848285016200036c565b91505092915050565b6000620003c282620003c9565b9050919050565b600073ffffffffffffffffffffffffffffffffffffffff82169050919050565b600080fd5b620003f981620003b5565b81146200040557600080fd5b50565b61164a80620004186000396000f3fe60806040526004361061012a5760003560e01c80639f09a908116100ab578063d72db90f1161006f578063d72db90f1461035d578063e288ea6414610386578063e2f273bd1461039d578063ebe93caf146103c6578063f10fb584146103ef578063f2fde38b1461041a5761012a565b80639f09a908146102a0578063b21443f6146102c9578063be37e18a146102f2578063c3058dc51461031b578063d56e64a2146103325761012a565b80634e1c0a4a116100f25780634e1c0a4a146101f15780634e71d92d1461021c578063715018a61461023357806384350e1d1461024a5780638da5cb5b146102755761012a565b80630bd4013f1461012f57806310fe7c481461015a5780631bc187bf146101765780631dc69a571461019f5780633c7d612b146101c8575b600080fd5b34801561013b57600080fd5b50610144610443565b60405161015191906111aa565b60405180910390f35b610174600480360381019061016f9190610e21565b61044d565b005b34801561018257600080fd5b5061019d60048036038101906101989190610d87565b610450565b005b3480156101ab57600080fd5b506101c660048036038101906101c19190610e21565b61049c565b005b3480156101d457600080fd5b506101ef60048036038101906101ea9190610e21565b6104ae565b005b3480156101fd57600080fd5b506102066104c0565b60405161021391906111aa565b60405180910390f35b34801561022857600080fd5b506102316104ca565b005b34801561023f57600080fd5b506102486104cc565b005b34801561025657600080fd5b5061025f6104e0565b60405161026c9190611092565b60405180910390f35b34801561028157600080fd5b5061028a61053f565b604051610297919061104e565b60405180910390f35b3480156102ac57600080fd5b506102c760048036038101906102c29190610e21565b610568565b005b3480156102d557600080fd5b506102f060048036038101906102eb9190610de1565b61057a565b005b3480156102fe57600080fd5b5061031960048036038101906103149190610e21565b6105f3565b005b34801561032757600080fd5b50610330610605565b005b34801561033e57600080fd5b506103476106f0565b60405161035491906111aa565b60405180910390f35b34801561036957600080fd5b50610384600480360381019061037f9190610e21565b6106fa565b005b34801561039257600080fd5b5061039b61070c565b005b3480156103a957600080fd5b506103c460048036038101906103bf9190610db4565b61070e565b005b3480156103d257600080fd5b506103ed60048036038101906103e89190610e7b565b61075a565b005b3480156103fb57600080fd5b50610404610a75565b60405161041191906110b4565b60405180910390f35b34801561042657600080fd5b50610441600480360381019061043c9190610d87565b610a9b565b005b6000601054905090565b50565b610458610b1f565b80600460006101000a81548173ffffffffffffffffffffffffffffffffffffffff021916908373ffffffffffffffffffffffffffffffffffffffff16021790555050565b6104a4610b1f565b8060118190555050565b6104b6610b1f565b8060168190555050565b6000601454905090565b565b6104d4610b1f565b6104de6000610b9d565b565b60608060005b6006811015610537576017816006811061050357610502611468565b5b015482828151811061051857610517611468565b5b602002602001018181525050808061052f90611390565b9150506104e6565b508091505090565b60008060009054906101000a900473ffffffffffffffffffffffffffffffffffffffff16905090565b610570610b1f565b80600f8190555050565b610582610b1f565b8173ffffffffffffffffffffffffffffffffffffffff16632465f8f533836040518363ffffffff1660e01b81526004016105bd929190611069565b600060405180830381600087803b1580156105d757600080fd5b505af11580156105eb573d6000803e3d6000fd5b505050505050565b6105fb610b1f565b8060138190555050565b61060d610b1f565b6000600360009054906101000a900473ffffffffffffffffffffffffffffffffffffffff1673ffffffffffffffffffffffffffffffffffffffff1663d845a4b361c3506040518263ffffffff1660e01b815260040161066c91906110cf565b602060405180830381600087803b15801561068657600080fd5b505af115801561069a573d6000803e3d6000fd5b505050506040513d601f19601f820116820180604052508101906106be9190610e4e565b9050807ffc25ee6cef1e5b8c4e7a2f8d3bbb15ca76bb693b8b5644b3b481e1831c09530b60405160405180910390a250565b6000601254905090565b610702610b1f565b8060158190555050565b565b610716610b1f565b80600560006101000a81548173ffffffffffffffffffffffffffffffffffffffff021916908373ffffffffffffffffffffffffffffffffffffffff16021790555050565b3373ffffffffffffffffffffffffffffffffffffffff16600360009054906101000a900473ffffffffffffffffffffffffffffffffffffffff1673ffffffffffffffffffffffffffffffffffffffff16146107ea576040517f08c379a00000000000000000000000000000000000000000000000000000000081526004016107e19061118a565b60405180910390fd5b6000600260009054906101000a900473ffffffffffffffffffffffffffffffffffffffff1673ffffffffffffffffffffffffffffffffffffffff166370a08231306040518263ffffffff1660e01b8152600401610847919061104e565b60206040518083038186803b15801561085f57600080fd5b505afa158015610873573d6000803e3d6000fd5b505050506040513d601f19601f820116820180604052508101906108979190610e4e565b90506015548110156108de576040517f08c379a00000000000000000000000000000000000000000000000000000000081526004016108d59061116a565b60405180910390fd5b6010544311610922576040517f08c379a0000000000000000000000000000000000000000000000000000000008152600401610919906110ea565b60405180910390fd5b6014544311610966576040517f08c379a000000000000000000000000000000000000000000000000000000000815260040161095d9061114a565b60405180910390fd5b827f987867a7321bbfcd6e0481b5db1ba3b9c6f8ea97e988708a6f91ea2b27bce2458360001c60405161099991906111aa565b60405180910390a260006109af8360001c610c61565b905060005b8151811015610a04578181815181106109d0576109cf611468565b5b6020026020010151601782600681106109ec576109eb611468565b5b018190555080806109fc90611390565b9150506109b4565b5081600e81905550600f54601654610a1c9190611296565b43610a27919061120f565b601081905550601154601654610a3d9190611296565b43610a48919061120f565b601281905550601354601654610a5e9190611296565b43610a69919061120f565b60148190555050505050565b600360009054906101000a900473ffffffffffffffffffffffffffffffffffffffff1681565b610aa3610b1f565b600073ffffffffffffffffffffffffffffffffffffffff168173ffffffffffffffffffffffffffffffffffffffff161415610b13576040517f08c379a0000000000000000000000000000000000000000000000000000000008152600401610b0a9061110a565b60405180910390fd5b610b1c81610b9d565b50565b610b27610d16565b73ffffffffffffffffffffffffffffffffffffffff16610b4561053f565b73ffffffffffffffffffffffffffffffffffffffff1614610b9b576040517f08c379a0000000000000000000000000000000000000000000000000000000008152600401610b929061112a565b60405180910390fd5b565b60008060009054906101000a900473ffffffffffffffffffffffffffffffffffffffff169050816000806101000a81548173ffffffffffffffffffffffffffffffffffffffff021916908373ffffffffffffffffffffffffffffffffffffffff1602179055508173ffffffffffffffffffffffffffffffffffffffff168173ffffffffffffffffffffffffffffffffffffffff167f8be0079c531659141344cd1fd0a4f28419497f9722a3daafe3b4186f6b6457e060405160405180910390a35050565b606080600060015484610c7491906113d9565b9050601981610c8391906113d9565b82600581518110610c9757610c96611468565b5b602002602001018181525050601981610cb09190611265565b905060005b60048111610d0b57604682610cca91906113d9565b838281518110610cdd57610cdc611468565b5b602002602001018181525050604682610cf69190611265565b91508080610d0390611390565b915050610cb5565b508192505050919050565b600033905090565b600081359050610d2d816115b8565b92915050565b600081359050610d42816115cf565b92915050565b600081359050610d57816115e6565b92915050565b600081359050610d6c816115fd565b92915050565b600081519050610d81816115fd565b92915050565b600060208284031215610d9d57610d9c611497565b5b6000610dab84828501610d1e565b91505092915050565b600060208284031215610dca57610dc9611497565b5b6000610dd884828501610d33565b91505092915050565b60008060408385031215610df857610df7611497565b5b6000610e0685828601610d1e565b9250506020610e1785828601610d5d565b9150509250929050565b600060208284031215610e3757610e36611497565b5b6000610e4584828501610d5d565b91505092915050565b600060208284031215610e6457610e63611497565b5b6000610e7284828501610d72565b91505092915050565b60008060408385031215610e9257610e91611497565b5b6000610ea085828601610d5d565b9250506020610eb185828601610d48565b9150509250929050565b6000610ec78383611030565b60208301905092915050565b610edc816112f0565b82525050565b6000610eed826111d5565b610ef781856111ed565b9350610f02836111c5565b8060005b83811015610f33578151610f1a8882610ebb565b9750610f25836111e0565b925050600181019050610f06565b5085935050505092915050565b610f4981611348565b82525050565b610f588161135a565b82525050565b6000610f6b6014836111fe565b9150610f768261149c565b602082019050919050565b6000610f8e6026836111fe565b9150610f99826114c5565b604082019050919050565b6000610fb16020836111fe565b9150610fbc82611514565b602082019050919050565b6000610fd46017836111fe565b9150610fdf8261153d565b602082019050919050565b6000610ff7601e836111fe565b915061100282611566565b602082019050919050565b600061101a600e836111fe565b91506110258261158f565b602082019050919050565b6110398161133e565b82525050565b6110488161133e565b82525050565b60006020820190506110636000830184610ed3565b92915050565b600060408201905061107e6000830185610ed3565b61108b602083018461103f565b9392505050565b600060208201905081810360008301526110ac8184610ee2565b905092915050565b60006020820190506110c96000830184610f40565b92915050565b60006020820190506110e46000830184610f4f565b92915050565b6000602082019050818103600083015261110381610f5e565b9050919050565b6000602082019050818103600083015261112381610f81565b9050919050565b6000602082019050818103600083015261114381610fa4565b9050919050565b6000602082019050818103600083015261116381610fc7565b9050919050565b6000602082019050818103600083015261118381610fea565b9050919050565b600060208201905081810360008301526111a38161100d565b9050919050565b60006020820190506111bf600083018461103f565b92915050565b6000819050602082019050919050565b600081519050919050565b6000602082019050919050565b600082825260208201905092915050565b600082825260208201905092915050565b600061121a8261133e565b91506112258361133e565b9250827fffffffffffffffffffffffffffffffffffffffffffffffffffffffffffffffff0382111561125a5761125961140a565b5b828201905092915050565b60006112708261133e565b915061127b8361133e565b92508261128b5761128a611439565b5b828204905092915050565b60006112a18261133e565b91506112ac8361133e565b9250817fffffffffffffffffffffffffffffffffffffffffffffffffffffffffffffffff04831182151516156112e5576112e461140a565b5b828202905092915050565b60006112fb8261131e565b9050919050565b600061130d8261131e565b9050919050565b6000819050919050565b600073ffffffffffffffffffffffffffffffffffffffff82169050919050565b6000819050919050565b60006113538261136c565b9050919050565b60006113658261133e565b9050919050565b60006113778261137e565b9050919050565b60006113898261131e565b9050919050565b600061139b8261133e565b91507fffffffffffffffffffffffffffffffffffffffffffffffffffffffffffffffff8214156113ce576113cd61140a565b5b600182019050919050565b60006113e48261133e565b91506113ef8361133e565b9250826113ff576113fe611439565b5b828206905092915050565b7f4e487b7100000000000000000000000000000000000000000000000000000000600052601160045260246000fd5b7f4e487b7100000000000000000000000000000000000000000000000000000000600052601260045260246000fd5b7f4e487b7100000000000000000000000000000000000000000000000000000000600052603260045260246000fd5b600080fd5b7f43616e2774207374617274206472617720796574000000000000000000000000600082015250565b7f4f776e61626c653a206e6577206f776e657220697320746865207a65726f206160008201527f6464726573730000000000000000000000000000000000000000000000000000602082015250565b7f4f776e61626c653a2063616c6c6572206973206e6f7420746865206f776e6572600082015250565b7f5374696c6c20636c616d696e67206c6173742067616d65000000000000000000600082015250565b7f446f6e2774206861766520656e6f756768205553444320626c616e6163650000600082015250565b7f6e6f742d72616e646f6d697a6572000000000000000000000000000000000000600082015250565b6115c1816112f0565b81146115cc57600080fd5b50565b6115d881611302565b81146115e357600080fd5b50565b6115ef81611314565b81146115fa57600080fd5b50565b6116068161133e565b811461161157600080fd5b5056fea2646970667358221220594b69b1f9dd5c95b29dd04f549991836b4e71d316b3e50108f19c86b0ea5def64736f6c63430008070033",
  "linkReferences": {},
  "deployedLinkReferences": {}
}