{
  "_format": "hh-sol-artifact-1",
  "contractName": "MillionJackpot",
  "sourceName": "contracts/MillionJackpot.sol",
  "abi": [
    {
      "inputs": [
        {
          "internalType": "address payable",
          "name": "_admin",
          "type": "address"
        }
      ],
      "stateMutability": "nonpayable",
      "type": "constructor"
    },
    {
      "anonymous": false,
      "inputs": [
        {
          "indexed": true,
          "internalType": "uint256",
          "name": "id",
          "type": "uint256"
        }
      ],
      "name": "Flip",
      "type": "event"
    },
    {
      "anonymous": false,
      "inputs": [
        {
          "indexed": true,
          "internalType": "uint256",
          "name": "id",
          "type": "uint256"
        },
        {
          "indexed": false,
          "internalType": "uint256",
          "name": "number",
          "type": "uint256"
        }
      ],
      "name": "FlipResult",
      "type": "event"
    },
    {
      "anonymous": false,
      "inputs": [
        {
          "indexed": true,
          "internalType": "address",
          "name": "previousOwner",
          "type": "address"
        },
        {
          "indexed": true,
          "internalType": "address",
          "name": "newOwner",
          "type": "address"
        }
      ],
      "name": "OwnershipTransferred",
      "type": "event"
    },
    {
      "inputs": [],
      "name": "claim",
      "outputs": [],
      "stateMutability": "nonpayable",
      "type": "function"
    },
    {
      "inputs": [
        {
          "internalType": "uint256",
          "name": "number",
          "type": "uint256"
        }
      ],
      "name": "convertIntToWinningNumbers",
      "outputs": [
        {
          "internalType": "uint256[6]",
          "name": "",
          "type": "uint256[6]"
        }
      ],
      "stateMutability": "view",
      "type": "function"
    },
    {
      "inputs": [],
      "name": "decideWinners",
      "outputs": [],
      "stateMutability": "nonpayable",
      "type": "function"
    },
    {
      "inputs": [],
      "name": "endPhaseOneAndDistributeJackpot",
      "outputs": [],
      "stateMutability": "nonpayable",
      "type": "function"
    },
    {
      "inputs": [],
      "name": "getClaimPhase",
      "outputs": [
        {
          "internalType": "uint256",
          "name": "",
          "type": "uint256"
        }
      ],
      "stateMutability": "view",
      "type": "function"
    },
    {
      "inputs": [],
      "name": "getCurrentLotteryEntries",
      "outputs": [
        {
          "internalType": "uint256[6][]",
          "name": "",
          "type": "uint256[6][]"
        }
      ],
      "stateMutability": "view",
      "type": "function"
    },
    {
      "inputs": [
        {
          "internalType": "uint256",
          "name": "_lotteryId",
          "type": "uint256"
        }
      ],
      "name": "getLotteryEntries",
      "outputs": [
        {
          "internalType": "uint256[6][]",
          "name": "",
          "type": "uint256[6][]"
        }
      ],
      "stateMutability": "view",
      "type": "function"
    },
    {
      "inputs": [
        {
          "internalType": "address",
          "name": "user",
          "type": "address"
        },
        {
          "internalType": "uint256",
          "name": "_lotteryId",
          "type": "uint256"
        }
      ],
      "name": "getLotteryEntriesForAnyUser",
      "outputs": [
        {
          "internalType": "uint256[6][]",
          "name": "",
          "type": "uint256[6][]"
        }
      ],
      "stateMutability": "view",
      "type": "function"
    },
    {
      "inputs": [
        {
          "internalType": "uint256[6]",
          "name": "entry",
          "type": "uint256[6]"
        },
        {
          "internalType": "uint256[6]",
          "name": "winningNumbers",
          "type": "uint256[6]"
        }
      ],
      "name": "getReward",
      "outputs": [
        {
          "internalType": "uint256",
          "name": "",
          "type": "uint256"
        }
      ],
      "stateMutability": "nonpayable",
      "type": "function"
    },
    {
      "inputs": [],
      "name": "getUSDCBalance",
      "outputs": [
        {
          "internalType": "uint256",
          "name": "",
          "type": "uint256"
        }
      ],
      "stateMutability": "view",
      "type": "function"
    },
    {
      "inputs": [],
      "name": "getWinningNumbers",
      "outputs": [
        {
          "internalType": "uint256[6]",
          "name": "",
          "type": "uint256[6]"
        }
      ],
      "stateMutability": "view",
      "type": "function"
    },
    {
      "inputs": [],
      "name": "owner",
      "outputs": [
        {
          "internalType": "address",
          "name": "",
          "type": "address"
        }
      ],
      "stateMutability": "view",
      "type": "function"
    },
    {
      "inputs": [
        {
          "internalType": "uint256[6][]",
          "name": "bets",
          "type": "uint256[6][]"
        },
        {
          "internalType": "uint256",
          "name": "amount",
          "type": "uint256"
        }
      ],
      "name": "placeBet",
      "outputs": [],
      "stateMutability": "payable",
      "type": "function"
    },
    {
      "inputs": [],
      "name": "randomizer",
      "outputs": [
        {
          "internalType": "contract IRandomizer",
          "name": "",
          "type": "address"
        }
      ],
      "stateMutability": "view",
      "type": "function"
    },
    {
      "inputs": [
        {
          "internalType": "uint256",
          "name": "_id",
          "type": "uint256"
        },
        {
          "internalType": "bytes32",
          "name": "_value",
          "type": "bytes32"
        }
      ],
      "name": "randomizerCallback",
      "outputs": [],
      "stateMutability": "nonpayable",
      "type": "function"
    },
    {
      "inputs": [
        {
          "internalType": "address",
          "name": "_randomizer",
          "type": "address"
        },
        {
          "internalType": "uint256",
          "name": "amount",
          "type": "uint256"
        }
      ],
      "name": "randomizerWithdraw",
      "outputs": [],
      "stateMutability": "nonpayable",
      "type": "function"
    },
    {
      "inputs": [],
      "name": "renounceOwnership",
      "outputs": [],
      "stateMutability": "nonpayable",
      "type": "function"
    },
    {
      "inputs": [
        {
          "internalType": "address",
          "name": "newOwner",
          "type": "address"
        }
      ],
      "name": "transferOwnership",
      "outputs": [],
      "stateMutability": "nonpayable",
      "type": "function"
    },
    {
      "inputs": [
        {
          "internalType": "address payable",
          "name": "_admin",
          "type": "address"
        }
      ],
      "name": "updateAdmin",
      "outputs": [],
      "stateMutability": "nonpayable",
      "type": "function"
    },
    {
      "inputs": [
        {
          "internalType": "uint256",
          "name": "phase",
          "type": "uint256"
        }
      ],
      "name": "updateClaimPhase",
      "outputs": [],
      "stateMutability": "nonpayable",
      "type": "function"
    },
    {
      "inputs": [
        {
          "internalType": "uint256",
          "name": "fee",
          "type": "uint256"
        }
      ],
      "name": "updateEntryFee",
      "outputs": [],
      "stateMutability": "nonpayable",
      "type": "function"
    },
    {
      "inputs": [
        {
          "internalType": "uint256",
          "name": "minBalance",
          "type": "uint256"
        }
      ],
      "name": "updateMinUSDCDrawBalance",
      "outputs": [],
      "stateMutability": "nonpayable",
      "type": "function"
    }
  ],
  "bytecode": "0x608060405273c944b73fba33a773a4a07340333a3184a70af1ae600160006101000a81548173ffffffffffffffffffffffffffffffffffffffff021916908373ffffffffffffffffffffffffffffffffffffffff16021790555073923096da90a3b60eb7e12723fa2e1547ba9236bc600260006101000a81548173ffffffffffffffffffffffffffffffffffffffff021916908373ffffffffffffffffffffffffffffffffffffffff1602179055506409c8702b60600355683635c9adc5de9fffff600455348015620000d157600080fd5b5060405162003212380380620032128339818101604052810190620000f7919062000381565b620001176200010b6200023560201b60201c565b6200023d60201b60201c565b80600560006101000a81548173ffffffffffffffffffffffffffffffffffffffff021916908373ffffffffffffffffffffffffffffffffffffffff1602179055506298968060078190555064e8d4a51000600881905550640ba43b7400600981905550632cb41780600a81905550632cb41780600b819055506302160ec0600c819055506302faf080600d8190555062e4e1c0600e8190555062989680600f819055506402540be400601281905550600060118190555060016006819055506040518060c00160405280600060ff168152602001600060ff168152602001600060ff168152602001600060ff168152602001600060ff168152602001600060ff1681525060139060066200022d92919062000301565b505062000406565b600033905090565b60008060009054906101000a900473ffffffffffffffffffffffffffffffffffffffff169050816000806101000a81548173ffffffffffffffffffffffffffffffffffffffff021916908373ffffffffffffffffffffffffffffffffffffffff1602179055508173ffffffffffffffffffffffffffffffffffffffff168173ffffffffffffffffffffffffffffffffffffffff167f8be0079c531659141344cd1fd0a4f28419497f9722a3daafe3b4186f6b6457e060405160405180910390a35050565b826006810192821562000338579160200282015b8281111562000337578251829060ff1690559160200191906001019062000315565b5b5090506200034791906200034b565b5090565b5b80821115620003665760008160009055506001016200034c565b5090565b6000815190506200037b81620003ec565b92915050565b6000602082840312156200039a5762000399620003e7565b5b6000620003aa848285016200036a565b91505092915050565b6000620003c082620003c7565b9050919050565b600073ffffffffffffffffffffffffffffffffffffffff82169050919050565b600080fd5b620003f781620003b3565b81146200040357600080fd5b50565b612dfc80620004166000396000f3fe6080604052600436106101355760003560e01c8063aa182626116100ab578063e23d5d471161006f578063e23d5d47146103a7578063e2f273bd146103e4578063ebe93caf1461040d578063f04a9dca14610436578063f10fb58414610473578063f2fde38b1461049e57610135565b8063aa182626146102ea578063ac08744814610313578063b21443f61461033e578063c3058dc514610367578063d72db90f1461037e57610135565b80634e71d92d116100fd5780634e71d92d1461021257806363dfa1a814610229578063715018a61461025457806384350e1d1461026b578063843ab8bd146102965780638da5cb5b146102bf57610135565b80631d673e561461013a57806334cb0c7f1461015657806338c442e31461016d5780633cfd1ccc146101aa578063426ac498146101d5575b600080fd5b610154600480360381019061014f9190611f27565b6104c7565b005b34801561016257600080fd5b5061016b610a22565b005b34801561017957600080fd5b50610194600480360381019061018f9190611f87565b610b73565b6040516101a1919061268c565b60405180910390f35b3480156101b657600080fd5b506101bf610b80565b6040516101cc919061268c565b60405180910390f35b3480156101e157600080fd5b506101fc60048036038101906101f79190612022565b610c32565b604051610209919061248f565b60405180910390f35b34801561021e57600080fd5b50610227610d12565b005b34801561023557600080fd5b5061023e6110d4565b60405161024b919061248f565b60405180910390f35b34801561026057600080fd5b506102696111b4565b005b34801561027757600080fd5b506102806111c8565b60405161028d91906124b1565b60405180910390f35b3480156102a257600080fd5b506102bd60048036038101906102b89190612022565b611231565b005b3480156102cb57600080fd5b506102d4611243565b6040516102e19190612422565b60405180910390f35b3480156102f657600080fd5b50610311600480360381019061030c9190612022565b61126c565b005b34801561031f57600080fd5b5061032861127e565b604051610335919061268c565b60405180910390f35b34801561034a57600080fd5b5061036560048036038101906103609190611ee7565b611288565b005b34801561037357600080fd5b5061037c611301565b005b34801561038a57600080fd5b506103a560048036038101906103a09190612022565b6113ed565b005b3480156103b357600080fd5b506103ce60048036038101906103c99190611ee7565b6113ff565b6040516103db919061248f565b60405180910390f35b3480156103f057600080fd5b5061040b60048036038101906104069190611eba565b6114e8565b005b34801561041957600080fd5b50610434600480360381019061042f919061207c565b611534565b005b34801561044257600080fd5b5061045d60048036038101906104589190612022565b6119be565b60405161046a91906124b1565b60405180910390f35b34801561047f57600080fd5b50610488611a92565b60405161049591906124f6565b60405180910390f35b3480156104aa57600080fd5b506104c560048036038101906104c09190611e8d565b611ab8565b005b6000339050600754848490506104dd919061281d565b82101561051f576040517f08c379a0000000000000000000000000000000000000000000000000000000008152600401610516906125ac565b60405180910390fd5b81600160009054906101000a900473ffffffffffffffffffffffffffffffffffffffff1673ffffffffffffffffffffffffffffffffffffffff1663dd62ed3e83306040518363ffffffff1660e01b815260040161057d92919061243d565b60206040518083038186803b15801561059557600080fd5b505afa1580156105a9573d6000803e3d6000fd5b505050506040513d601f19601f820116820180604052508101906105cd919061204f565b101561060e576040517f08c379a00000000000000000000000000000000000000000000000000000000081526004016106059061256c565b60405180910390fd5b6000601a60008373ffffffffffffffffffffffffffffffffffffffff1673ffffffffffffffffffffffffffffffffffffffff168152602001908152602001600020905060008160006006548152602001908152602001600020905060005b86869050811015610a1957600087878381811061068c5761068b612a50565b5b905060c002016006806020026040519081016040528092919082600660200280828437600081840152601f19601f82011690508083019250505050505090506000816000600681106106e1576106e0612a50565b5b602002015111801561070c575060468160006006811061070457610703612a50565b5b602002015111155b61074b576040517f08c379a0000000000000000000000000000000000000000000000000000000008152600401610742906125cc565b60405180910390fd5b60008160016006811061076157610760612a50565b5b602002015111801561078c575060468160016006811061078457610783612a50565b5b602002015111155b6107cb576040517f08c379a00000000000000000000000000000000000000000000000000000000081526004016107c2906125cc565b60405180910390fd5b6000816002600681106107e1576107e0612a50565b5b602002015111801561080c575060468160026006811061080457610803612a50565b5b602002015111155b61084b576040517f08c379a0000000000000000000000000000000000000000000000000000000008152600401610842906125cc565b60405180910390fd5b60008160036006811061086157610860612a50565b5b602002015111801561088c575060468160036006811061088457610883612a50565b5b602002015111155b6108cb576040517f08c379a00000000000000000000000000000000000000000000000000000000081526004016108c2906125cc565b60405180910390fd5b6000816004600681106108e1576108e0612a50565b5b602002015111801561090c575060468160046006811061090457610903612a50565b5b602002015111155b61094b576040517f08c379a0000000000000000000000000000000000000000000000000000000008152600401610942906125cc565b60405180910390fd5b60008160056006811061096157610960612a50565b5b602002015111801561098c575060198160056006811061098457610983612a50565b5b602002015111155b6109cb576040517f08c379a00000000000000000000000000000000000000000000000000000000081526004016109c29061258c565b60405180910390fd5b82819080600181540180825580915050600190039060005260206000209060060201600090919091909150906006610a04929190611c86565b50508080610a1190612978565b91505061066c565b50505050505050565b610a2a611b3c565b6000601980549050601054610a3f91906127ec565b905060005b601980549050811015610b5257600160009054906101000a900473ffffffffffffffffffffffffffffffffffffffff1673ffffffffffffffffffffffffffffffffffffffff1663a9059cbb60198381548110610aa357610aa2612a50565b5b9060005260206000200160009054906101000a900473ffffffffffffffffffffffffffffffffffffffff16846040518363ffffffff1660e01b8152600401610aec929190612466565b602060405180830381600087803b158015610b0657600080fd5b505af1158015610b1a573d6000803e3d6000fd5b505050506040513d601f19601f82011682018060405250810190610b3e9190611ff5565b508080610b4a90612978565b915050610a44565b5060006011819055506001600654610b6a9190612796565b60068190555050565b6000600454905092915050565b6000600160009054906101000a900473ffffffffffffffffffffffffffffffffffffffff1673ffffffffffffffffffffffffffffffffffffffff166370a08231306040518263ffffffff1660e01b8152600401610bdd9190612422565b60206040518083038186803b158015610bf557600080fd5b505afa158015610c09573d6000803e3d6000fd5b505050506040513d601f19601f82011682018060405250810190610c2d919061204f565b905090565b6060601a60003373ffffffffffffffffffffffffffffffffffffffff1673ffffffffffffffffffffffffffffffffffffffff1681526020019081526020016000206000838152602001908152602001600020805480602002602001604051908101604052809291908181526020016000905b82821015610d075783829060005260206000209060060201600680602002604051908101604052809291908260068015610cf3576020028201915b815481526020019060010190808311610cdf575b505050505081526020019060010190610ca4565b505050509050919050565b600060115411610d57576040517f08c379a0000000000000000000000000000000000000000000000000000000008152600401610d4e9061252c565b60405180910390fd5b6000339050601b60008273ffffffffffffffffffffffffffffffffffffffff1673ffffffffffffffffffffffffffffffffffffffff1681526020019081526020016000206000600654815260200190815260200160002060009054906101000a900460ff1615610dfc576040517f08c379a0000000000000000000000000000000000000000000000000000000008152600401610df39061266c565b60405180910390fd5b6000601a60008373ffffffffffffffffffffffffffffffffffffffff1673ffffffffffffffffffffffffffffffffffffffff1681526020019081526020016000206000600654815260200190815260200160002090506000805b8280549050811015610fa95760003073ffffffffffffffffffffffffffffffffffffffff166338c442e3858481548110610e9357610e92612a50565b5b906000526020600020906006020160136040518363ffffffff1660e01b8152600401610ec09291906124cc565b602060405180830381600087803b158015610eda57600080fd5b505af1158015610eee573d6000803e3d6000fd5b505050506040513d601f19601f82011682018060405250810190610f12919061204f565b9050600454811415610f86576019859080600181540180825580915050600190039060005260206000200160009091909190916101000a81548173ffffffffffffffffffffffffffffffffffffffff021916908373ffffffffffffffffffffffffffffffffffffffff160217905550610f95565b8083610f929190612796565b92505b508080610fa190612978565b915050610e56565b50600081111561106457600160009054906101000a900473ffffffffffffffffffffffffffffffffffffffff1673ffffffffffffffffffffffffffffffffffffffff1663a9059cbb84836040518363ffffffff1660e01b8152600401611010929190612466565b602060405180830381600087803b15801561102a57600080fd5b505af115801561103e573d6000803e3d6000fd5b505050506040513d601f19601f820116820180604052508101906110629190611ff5565b505b6001601b60008573ffffffffffffffffffffffffffffffffffffffff1673ffffffffffffffffffffffffffffffffffffffff1681526020019081526020016000206000600654815260200190815260200160002060006101000a81548160ff021916908315150217905550505050565b6060601a60003373ffffffffffffffffffffffffffffffffffffffff1673ffffffffffffffffffffffffffffffffffffffff16815260200190815260200160002060006006548152602001908152602001600020805480602002602001604051908101604052809291908181526020016000905b828210156111ab5783829060005260206000209060060201600680602002604051908101604052809291908260068015611197576020028201915b815481526020019060010190808311611183575b505050505081526020019060010190611148565b50505050905090565b6111bc611b3c565b6111c66000611bba565b565b6111d0611cc6565b6111d8611cc6565b60005b600681101561122957601381600681106111f8576111f7612a50565b5b015482826006811061120d5761120c612a50565b5b602002018181525050808061122190612978565b9150506111db565b508091505090565b611239611b3c565b8060118190555050565b60008060009054906101000a900473ffffffffffffffffffffffffffffffffffffffff16905090565b611274611b3c565b8060078190555050565b6000601154905090565b611290611b3c565b8173ffffffffffffffffffffffffffffffffffffffff16632465f8f533836040518363ffffffff1660e01b81526004016112cb929190612466565b600060405180830381600087803b1580156112e557600080fd5b505af11580156112f9573d6000803e3d6000fd5b505050505050565b611309611b3c565b6000600260009054906101000a900473ffffffffffffffffffffffffffffffffffffffff1673ffffffffffffffffffffffffffffffffffffffff1663d845a4b3620f42406040518263ffffffff1660e01b81526004016113699190612511565b602060405180830381600087803b15801561138357600080fd5b505af1158015611397573d6000803e3d6000fd5b505050506040513d601f19601f820116820180604052508101906113bb919061204f565b9050807ffc25ee6cef1e5b8c4e7a2f8d3bbb15ca76bb693b8b5644b3b481e1831c09530b60405160405180910390a250565b6113f5611b3c565b8060128190555050565b6060611409611b3c565b601a60008473ffffffffffffffffffffffffffffffffffffffff1673ffffffffffffffffffffffffffffffffffffffff1681526020019081526020016000206000838152602001908152602001600020805480602002602001604051908101604052809291908181526020016000905b828210156114dc57838290600052602060002090600602016006806020026040519081016040528092919082600680156114c8576020028201915b8154815260200190600101908083116114b4575b505050505081526020019060010190611479565b50505050905092915050565b6114f0611b3c565b80600560006101000a81548173ffffffffffffffffffffffffffffffffffffffff021916908373ffffffffffffffffffffffffffffffffffffffff16021790555050565b3373ffffffffffffffffffffffffffffffffffffffff16600260009054906101000a900473ffffffffffffffffffffffffffffffffffffffff1673ffffffffffffffffffffffffffffffffffffffff16146115c4576040517f08c379a00000000000000000000000000000000000000000000000000000000081526004016115bb9061264c565b60405180910390fd5b6000600160009054906101000a900473ffffffffffffffffffffffffffffffffffffffff1673ffffffffffffffffffffffffffffffffffffffff166370a08231306040518263ffffffff1660e01b81526004016116219190612422565b60206040518083038186803b15801561163957600080fd5b505afa15801561164d573d6000803e3d6000fd5b505050506040513d601f19601f82011682018060405250810190611671919061204f565b90506012548110156116b8576040517f08c379a00000000000000000000000000000000000000000000000000000000081526004016116af9061262c565b60405180910390fd5b6000601154146116fd576040517f08c379a00000000000000000000000000000000000000000000000000000000081526004016116f49061260c565b60405180910390fd5b827f987867a7321bbfcd6e0481b5db1ba3b9c6f8ea97e988708a6f91ea2b27bce2458360001c604051611730919061268c565b60405180910390a260003073ffffffffffffffffffffffffffffffffffffffff1663f04a9dca8460001c6040518263ffffffff1660e01b8152600401611776919061268c565b60c06040518083038186803b15801561178e57600080fd5b505afa1580156117a2573d6000803e3d6000fd5b505050506040513d601f19601f820116820180604052508101906117c69190611fc8565b905060005b6006811015611818578181600681106117e7576117e6612a50565b5b602002015160138260068110611800576117ff612a50565b5b0181905550808061181090612978565b9150506117cb565b506000600560105461182a91906127ec565b9050600160009054906101000a900473ffffffffffffffffffffffffffffffffffffffff1673ffffffffffffffffffffffffffffffffffffffff1663a9059cbb600560009054906101000a900473ffffffffffffffffffffffffffffffffffffffff16836040518363ffffffff1660e01b81526004016118ab929190612466565b602060405180830381600087803b1580156118c557600080fd5b505af11580156118d9573d6000803e3d6000fd5b505050506040513d601f19601f820116820180604052508101906118fd9190611ff5565b50600160009054906101000a900473ffffffffffffffffffffffffffffffffffffffff1673ffffffffffffffffffffffffffffffffffffffff166370a08231306040518263ffffffff1660e01b81526004016119599190612422565b60206040518083038186803b15801561197157600080fd5b505afa158015611985573d6000803e3d6000fd5b505050506040513d601f19601f820116820180604052508101906119a9919061204f565b60108190555060016011819055505050505050565b6119c6611cc6565b6119ce611cc6565b6000600354846119de91906129c1565b905060016019826119ef91906129c1565b6119f99190612796565b82600560068110611a0d57611a0c612a50565b5b602002018181525050601981611a2391906127ec565b905060005b60048111611a87576001604683611a3f91906129c1565b611a499190612796565b838260068110611a5c57611a5b612a50565b5b602002018181525050604682611a7291906127ec565b91508080611a7f90612978565b915050611a28565b508192505050919050565b600260009054906101000a900473ffffffffffffffffffffffffffffffffffffffff1681565b611ac0611b3c565b600073ffffffffffffffffffffffffffffffffffffffff168173ffffffffffffffffffffffffffffffffffffffff161415611b30576040517f08c379a0000000000000000000000000000000000000000000000000000000008152600401611b279061254c565b60405180910390fd5b611b3981611bba565b50565b611b44611c7e565b73ffffffffffffffffffffffffffffffffffffffff16611b62611243565b73ffffffffffffffffffffffffffffffffffffffff1614611bb8576040517f08c379a0000000000000000000000000000000000000000000000000000000008152600401611baf906125ec565b60405180910390fd5b565b60008060009054906101000a900473ffffffffffffffffffffffffffffffffffffffff169050816000806101000a81548173ffffffffffffffffffffffffffffffffffffffff021916908373ffffffffffffffffffffffffffffffffffffffff1602179055508173ffffffffffffffffffffffffffffffffffffffff168173ffffffffffffffffffffffffffffffffffffffff167f8be0079c531659141344cd1fd0a4f28419497f9722a3daafe3b4186f6b6457e060405160405180910390a35050565b600033905090565b8260068101928215611cb5579160200282015b82811115611cb4578251825591602001919060010190611c99565b5b509050611cc29190611ce8565b5090565b6040518060c00160405280600690602082028036833780820191505090505090565b5b80821115611d01576000816000905550600101611ce9565b5090565b6000611d18611d13846126cc565b6126a7565b90508082856020860282011115611d3257611d31612acb565b5b60005b85811015611d625781611d488882611e78565b845260208401935060208301925050600181019050611d35565b5050509392505050565b600081359050611d7b81612d53565b92915050565b600081359050611d9081612d6a565b92915050565b60008083601f840112611dac57611dab612ac6565b5b8235905067ffffffffffffffff811115611dc957611dc8612ac1565b5b6020830191508360c0820283011115611de557611de4612acb565b5b9250929050565b600081905082602060060282011115611e0857611e07612acb565b5b92915050565b600082601f830112611e2357611e22612ac6565b5b6006611e30848285611d05565b91505092915050565b600081519050611e4881612d81565b92915050565b600081359050611e5d81612d98565b92915050565b600081359050611e7281612daf565b92915050565b600081519050611e8781612daf565b92915050565b600060208284031215611ea357611ea2612ad5565b5b6000611eb184828501611d6c565b91505092915050565b600060208284031215611ed057611ecf612ad5565b5b6000611ede84828501611d81565b91505092915050565b60008060408385031215611efe57611efd612ad5565b5b6000611f0c85828601611d6c565b9250506020611f1d85828601611e63565b9150509250929050565b600080600060408486031215611f4057611f3f612ad5565b5b600084013567ffffffffffffffff811115611f5e57611f5d612ad0565b5b611f6a86828701611d96565b93509350506020611f7d86828701611e63565b9150509250925092565b6000806101808385031215611f9f57611f9e612ad5565b5b6000611fad85828601611dec565b92505060c0611fbe85828601611dec565b9150509250929050565b600060c08284031215611fde57611fdd612ad5565b5b6000611fec84828501611e0e565b91505092915050565b60006020828403121561200b5761200a612ad5565b5b600061201984828501611e39565b91505092915050565b60006020828403121561203857612037612ad5565b5b600061204684828501611e63565b91505092915050565b60006020828403121561206557612064612ad5565b5b600061207384828501611e78565b91505092915050565b6000806040838503121561209357612092612ad5565b5b60006120a185828601611e63565b92505060206120b285828601611e4e565b9150509250929050565b60006120c88383612159565b60c08301905092915050565b60006120e08383612404565b60208301905092915050565b6120f581612881565b82525050565b600061210682612716565b612110818561275e565b935061211b836126f2565b8060005b8381101561214c57815161213388826120bc565b975061213e83612737565b92505060018101905061211f565b5085935050505092915050565b61216281612721565b61216c818461276f565b925061217782612702565b8060005b838110156121a857815161218f87826120d4565b965061219a83612744565b92505060018101905061217b565b505050505050565b6121b981612721565b6121c3818461277a565b92506121ce82612702565b8060005b838110156121ff5781516121e687826120d4565b96506121f183612744565b9250506001810190506121d2565b505050505050565b6122108161272c565b61221a818461277a565b92506122258261270c565b8060005b8381101561225d5761223a82612aae565b61224487826120d4565b965061224f83612751565b925050600181019050612229565b505050505050565b61226e816128e5565b82525050565b61227d816128f7565b82525050565b6000612290601483612785565b915061229b82612af8565b602082019050919050565b60006122b3602683612785565b91506122be82612b21565b604082019050919050565b60006122d6602383612785565b91506122e182612b70565b604082019050919050565b60006122f9602183612785565b915061230482612bbf565b604082019050919050565b600061231c601483612785565b915061232782612c0e565b602082019050919050565b600061233f602b83612785565b915061234a82612c37565b604082019050919050565b6000612362602083612785565b915061236d82612c86565b602082019050919050565b6000612385601983612785565b915061239082612caf565b602082019050919050565b60006123a8601e83612785565b91506123b382612cd8565b602082019050919050565b60006123cb600e83612785565b91506123d682612d01565b602082019050919050565b60006123ee601783612785565b91506123f982612d2a565b602082019050919050565b61240d816128db565b82525050565b61241c816128db565b82525050565b600060208201905061243760008301846120ec565b92915050565b600060408201905061245260008301856120ec565b61245f60208301846120ec565b9392505050565b600060408201905061247b60008301856120ec565b6124886020830184612413565b9392505050565b600060208201905081810360008301526124a981846120fb565b905092915050565b600060c0820190506124c660008301846121b0565b92915050565b6000610180820190506124e26000830185612207565b6124ef60c0830184612207565b9392505050565b600060208201905061250b6000830184612265565b92915050565b60006020820190506125266000830184612274565b92915050565b6000602082019050818103600083015261254581612283565b9050919050565b60006020820190508181036000830152612565816122a6565b9050919050565b60006020820190508181036000830152612585816122c9565b9050919050565b600060208201905081810360008301526125a5816122ec565b9050919050565b600060208201905081810360008301526125c58161230f565b9050919050565b600060208201905081810360008301526125e581612332565b9050919050565b6000602082019050818103600083015261260581612355565b9050919050565b6000602082019050818103600083015261262581612378565b9050919050565b600060208201905081810360008301526126458161239b565b9050919050565b60006020820190508181036000830152612665816123be565b9050919050565b60006020820190508181036000830152612685816123e1565b9050919050565b60006020820190506126a16000830184612413565b92915050565b60006126b16126c2565b90506126bd8282612947565b919050565b6000604051905090565b600067ffffffffffffffff8211156126e7576126e6612a7f565b5b602082029050919050565b6000819050602082019050919050565b6000819050919050565b6000819050919050565b600081519050919050565b600060069050919050565b600060069050919050565b6000602082019050919050565b6000602082019050919050565b6000600182019050919050565b600082825260208201905092915050565b600081905092915050565b600081905092915050565b600082825260208201905092915050565b60006127a1826128db565b91506127ac836128db565b9250827fffffffffffffffffffffffffffffffffffffffffffffffffffffffffffffffff038211156127e1576127e06129f2565b5b828201905092915050565b60006127f7826128db565b9150612802836128db565b92508261281257612811612a21565b5b828204905092915050565b6000612828826128db565b9150612833836128db565b9250817fffffffffffffffffffffffffffffffffffffffffffffffffffffffffffffffff048311821515161561286c5761286b6129f2565b5b828202905092915050565b6000819050919050565b600061288c826128bb565b9050919050565b600061289e826128bb565b9050919050565b60008115159050919050565b6000819050919050565b600073ffffffffffffffffffffffffffffffffffffffff82169050919050565b6000819050919050565b60006128f082612909565b9050919050565b6000612902826128db565b9050919050565b60006129148261291b565b9050919050565b6000612926826128bb565b9050919050565b600061294061293b83612aeb565b612877565b9050919050565b61295082612ada565b810181811067ffffffffffffffff8211171561296f5761296e612a7f565b5b80604052505050565b6000612983826128db565b91507fffffffffffffffffffffffffffffffffffffffffffffffffffffffffffffffff8214156129b6576129b56129f2565b5b600182019050919050565b60006129cc826128db565b91506129d7836128db565b9250826129e7576129e6612a21565b5b828206905092915050565b7f4e487b7100000000000000000000000000000000000000000000000000000000600052601160045260246000fd5b7f4e487b7100000000000000000000000000000000000000000000000000000000600052601260045260246000fd5b7f4e487b7100000000000000000000000000000000000000000000000000000000600052603260045260246000fd5b7f4e487b7100000000000000000000000000000000000000000000000000000000600052604160045260246000fd5b6000612aba825461292d565b9050919050565b600080fd5b600080fd5b600080fd5b600080fd5b600080fd5b6000601f19601f8301169050919050565b60008160001c9050919050565b7f434c41494d5f54494d455f4e4f545f5245414459000000000000000000000000600082015250565b7f4f776e61626c653a206e6577206f776e657220697320746865207a65726f206160008201527f6464726573730000000000000000000000000000000000000000000000000000602082015250565b7f4e6f7420617070726f76656420746f2073656e6420555344432072657175657360008201527f7465640000000000000000000000000000000000000000000000000000000000602082015250565b7f6c617374206e756d626572206d7573742062652066726f6d203120746f20323560008201527f2e00000000000000000000000000000000000000000000000000000000000000602082015250565b7f4e4f545f454e4f5547485f454e5452595f464545000000000000000000000000600082015250565b7f666972737420746f206669667468206e756d626572206d75737420626520667260008201527f6f6d203120746f2037302e000000000000000000000000000000000000000000602082015250565b7f4f776e61626c653a2063616c6c6572206973206e6f7420746865206f776e6572600082015250565b7f416e6f7468657220636c61696d20697320676f696e67206f6e00000000000000600082015250565b7f446f6e2774206861766520656e6f756768205553444320626c616e6163650000600082015250565b7f6e6f742d72616e646f6d697a6572000000000000000000000000000000000000600082015250565b7f414c52454144595f434c41494d45445f4c4f5454455259000000000000000000600082015250565b612d5c81612881565b8114612d6757600080fd5b50565b612d7381612893565b8114612d7e57600080fd5b50565b612d8a816128a5565b8114612d9557600080fd5b50565b612da1816128b1565b8114612dac57600080fd5b50565b612db8816128db565b8114612dc357600080fd5b5056fea26469706673582212208f078726ae867352ab212d573a94ed01d3264b4c7269d5c48da933da6175b0c664736f6c63430008070033",
  "linkReferences": {},
  "deployedLinkReferences": {}
}