{
  "_format": "hh-sol-artifact-1",
  "contractName": "VRFv2DirectFundingConsumer",
  "sourceName": "contracts/VRFv2DirectFundingConsumer.sol",
  "abi": [
    {
      "inputs": [
        {
          "internalType": "address",
          "name": "_jackpotContractAddress",
          "type": "address"
        }
      ],
      "stateMutability": "nonpayable",
      "type": "constructor"
    },
    {
      "anonymous": false,
      "inputs": [
        {
          "indexed": true,
          "internalType": "address",
          "name": "from",
          "type": "address"
        },
        {
          "indexed": true,
          "internalType": "address",
          "name": "to",
          "type": "address"
        }
      ],
      "name": "OwnershipTransferRequested",
      "type": "event"
    },
    {
      "anonymous": false,
      "inputs": [
        {
          "indexed": true,
          "internalType": "address",
          "name": "from",
          "type": "address"
        },
        {
          "indexed": true,
          "internalType": "address",
          "name": "to",
          "type": "address"
        }
      ],
      "name": "OwnershipTransferred",
      "type": "event"
    },
    {
      "anonymous": false,
      "inputs": [
        {
          "indexed": false,
          "internalType": "uint256",
          "name": "requestId",
          "type": "uint256"
        },
        {
          "indexed": false,
          "internalType": "uint256[]",
          "name": "randomWords",
          "type": "uint256[]"
        },
        {
          "indexed": false,
          "internalType": "uint256",
          "name": "payment",
          "type": "uint256"
        }
      ],
      "name": "RequestFulfilled",
      "type": "event"
    },
    {
      "anonymous": false,
      "inputs": [
        {
          "indexed": false,
          "internalType": "uint256",
          "name": "requestId",
          "type": "uint256"
        },
        {
          "indexed": false,
          "internalType": "uint32",
          "name": "numWords",
          "type": "uint32"
        }
      ],
      "name": "RequestSent",
      "type": "event"
    },
    {
      "inputs": [],
      "name": "acceptOwnership",
      "outputs": [],
      "stateMutability": "nonpayable",
      "type": "function"
    },
    {
      "inputs": [
        {
          "internalType": "uint256",
          "name": "_requestId",
          "type": "uint256"
        }
      ],
      "name": "getRequestStatus",
      "outputs": [
        {
          "internalType": "uint256",
          "name": "paid",
          "type": "uint256"
        },
        {
          "internalType": "bool",
          "name": "fulfilled",
          "type": "bool"
        },
        {
          "internalType": "uint256[]",
          "name": "randomWords",
          "type": "uint256[]"
        }
      ],
      "stateMutability": "view",
      "type": "function"
    },
    {
      "inputs": [],
      "name": "lastRequestId",
      "outputs": [
        {
          "internalType": "uint256",
          "name": "",
          "type": "uint256"
        }
      ],
      "stateMutability": "view",
      "type": "function"
    },
    {
      "inputs": [],
      "name": "owner",
      "outputs": [
        {
          "internalType": "address",
          "name": "",
          "type": "address"
        }
      ],
      "stateMutability": "view",
      "type": "function"
    },
    {
      "inputs": [
        {
          "internalType": "uint256",
          "name": "_requestId",
          "type": "uint256"
        },
        {
          "internalType": "uint256[]",
          "name": "_randomWords",
          "type": "uint256[]"
        }
      ],
      "name": "rawFulfillRandomWords",
      "outputs": [],
      "stateMutability": "nonpayable",
      "type": "function"
    },
    {
      "inputs": [
        {
          "internalType": "uint256",
          "name": "",
          "type": "uint256"
        }
      ],
      "name": "requestIds",
      "outputs": [
        {
          "internalType": "uint256",
          "name": "",
          "type": "uint256"
        }
      ],
      "stateMutability": "view",
      "type": "function"
    },
    {
      "inputs": [],
      "name": "requestRandomWords",
      "outputs": [
        {
          "internalType": "uint256",
          "name": "requestId",
          "type": "uint256"
        }
      ],
      "stateMutability": "nonpayable",
      "type": "function"
    },
    {
      "inputs": [
        {
          "internalType": "uint256",
          "name": "",
          "type": "uint256"
        }
      ],
      "name": "s_requests",
      "outputs": [
        {
          "internalType": "uint256",
          "name": "paid",
          "type": "uint256"
        },
        {
          "internalType": "bool",
          "name": "fulfilled",
          "type": "bool"
        }
      ],
      "stateMutability": "view",
      "type": "function"
    },
    {
      "inputs": [
        {
          "internalType": "address",
          "name": "to",
          "type": "address"
        }
      ],
      "name": "transferOwnership",
      "outputs": [],
      "stateMutability": "nonpayable",
      "type": "function"
    },
    {
      "inputs": [],
      "name": "withdrawLink",
      "outputs": [],
      "stateMutability": "nonpayable",
      "type": "function"
    }
  ],
  "bytecode": "0x60c0604052620186a0600560146101000a81548163ffffffff021916908363ffffffff1602179055506003600560186101000a81548161ffff021916908361ffff16021790555060066005601a6101000a81548163ffffffff021916908363ffffffff1602179055507384b9b910527ad5c03a9ca831909e21e236ea7b06600660006101000a81548173ffffffffffffffffffffffffffffffffffffffff021916908373ffffffffffffffffffffffffffffffffffffffff16021790555073699d428ee890d55d56d5fc6e26290f3247a762bd600760006101000a81548173ffffffffffffffffffffffffffffffffffffffff021916908373ffffffffffffffffffffffffffffffffffffffff1602179055503480156200011f57600080fd5b5060405162001f9b38038062001f9b83398181016040528101906200014591906200048b565b33806000600660009054906101000a900473ffffffffffffffffffffffffffffffffffffffff16600760009054906101000a900473ffffffffffffffffffffffffffffffffffffffff168173ffffffffffffffffffffffffffffffffffffffff1660808173ffffffffffffffffffffffffffffffffffffffff1660601b815250508073ffffffffffffffffffffffffffffffffffffffff1660a08173ffffffffffffffffffffffffffffffffffffffff1660601b815250505050600073ffffffffffffffffffffffffffffffffffffffff168273ffffffffffffffffffffffffffffffffffffffff16141562000272576040517f08c379a000000000000000000000000000000000000000000000000000000000815260040162000269906200050b565b60405180910390fd5b816000806101000a81548173ffffffffffffffffffffffffffffffffffffffff021916908373ffffffffffffffffffffffffffffffffffffffff160217905550600073ffffffffffffffffffffffffffffffffffffffff168173ffffffffffffffffffffffffffffffffffffffff1614620002f957620002f8816200034460201b60201c565b5b50505080600560006101000a81548173ffffffffffffffffffffffffffffffffffffffff021916908373ffffffffffffffffffffffffffffffffffffffff1602179055505062000605565b3373ffffffffffffffffffffffffffffffffffffffff168173ffffffffffffffffffffffffffffffffffffffff161415620003b6576040517f08c379a0000000000000000000000000000000000000000000000000000000008152600401620003ad906200052d565b60405180910390fd5b80600160006101000a81548173ffffffffffffffffffffffffffffffffffffffff021916908373ffffffffffffffffffffffffffffffffffffffff1602179055508073ffffffffffffffffffffffffffffffffffffffff1660008054906101000a900473ffffffffffffffffffffffffffffffffffffffff1673ffffffffffffffffffffffffffffffffffffffff167fed8889f560326eb138920d842192f0eb3dd22b4f139c87a2c57538e05bae127860405160405180910390a350565b6000815190506200048581620005eb565b92915050565b600060208284031215620004a457620004a362000594565b5b6000620004b48482850162000474565b91505092915050565b6000620004cc6018836200054f565b9150620004d98262000599565b602082019050919050565b6000620004f36017836200054f565b91506200050082620005c2565b602082019050919050565b600060208201905081810360008301526200052681620004bd565b9050919050565b600060208201905081810360008301526200054881620004e4565b9050919050565b600082825260208201905092915050565b60006200056d8262000574565b9050919050565b600073ffffffffffffffffffffffffffffffffffffffff82169050919050565b600080fd5b7f43616e6e6f7420736574206f776e657220746f207a65726f0000000000000000600082015250565b7f43616e6e6f74207472616e7366657220746f2073656c66000000000000000000600082015250565b620005f68162000560565b81146200060257600080fd5b50565b60805160601c60a05160601c61194e6200064d600039600081816101de0152818161078301528181610bf101528181610c120152610d5001526000610bb5015261194e6000f3fe608060405234801561001057600080fd5b506004361061009e5760003560e01c8063a168fa8911610066578063a168fa8914610121578063d8a4676f14610152578063e0c8628914610184578063f2fde38b146101a2578063fc2a88c3146101be5761009e565b80631fe543e3146100a357806379ba5097146100bf5780638796ba8c146100c95780638da5cb5b146100f95780638dc654a214610117575b600080fd5b6100bd60048036038101906100b89190611132565b6101dc565b005b6100c7610278565b005b6100e360048036038101906100de91906110d8565b61040d565b6040516100f091906114cd565b60405180910390f35b610101610431565b60405161010e9190611369565b60405180910390f35b61011f61045a565b005b61013b600480360381019061013691906110d8565b6105e0565b604051610149929190611526565b60405180910390f35b61016c600480360381019061016791906110d8565b610611565b60405161017b9392919061154f565b60405180910390f35b61018c61072b565b60405161019991906114cd565b60405180910390f35b6101bc60048036038101906101b7919061107e565b610972565b005b6101c6610986565b6040516101d391906114cd565b60405180910390f35b7f000000000000000000000000000000000000000000000000000000000000000073ffffffffffffffffffffffffffffffffffffffff163373ffffffffffffffffffffffffffffffffffffffff161461026a576040517f08c379a0000000000000000000000000000000000000000000000000000000008152600401610261906114ad565b60405180910390fd5b610274828261098c565b5050565b600160009054906101000a900473ffffffffffffffffffffffffffffffffffffffff1673ffffffffffffffffffffffffffffffffffffffff163373ffffffffffffffffffffffffffffffffffffffff1614610308576040517f08c379a00000000000000000000000000000000000000000000000000000000081526004016102ff9061142d565b60405180910390fd5b60008060009054906101000a900473ffffffffffffffffffffffffffffffffffffffff169050336000806101000a81548173ffffffffffffffffffffffffffffffffffffffff021916908373ffffffffffffffffffffffffffffffffffffffff1602179055506000600160006101000a81548173ffffffffffffffffffffffffffffffffffffffff021916908373ffffffffffffffffffffffffffffffffffffffff1602179055503373ffffffffffffffffffffffffffffffffffffffff168173ffffffffffffffffffffffffffffffffffffffff167f8be0079c531659141344cd1fd0a4f28419497f9722a3daafe3b4186f6b6457e060405160405180910390a350565b6003818154811061041d57600080fd5b906000526020600020016000915090505481565b60008060009054906101000a900473ffffffffffffffffffffffffffffffffffffffff16905090565b610462610b21565b6000600660009054906101000a900473ffffffffffffffffffffffffffffffffffffffff1690508073ffffffffffffffffffffffffffffffffffffffff1663a9059cbb338373ffffffffffffffffffffffffffffffffffffffff166370a08231306040518263ffffffff1660e01b81526004016104df9190611369565b60206040518083038186803b1580156104f757600080fd5b505afa15801561050b573d6000803e3d6000fd5b505050506040513d601f19601f8201168201806040525081019061052f9190611105565b6040518363ffffffff1660e01b815260040161054c929190611384565b602060405180830381600087803b15801561056657600080fd5b505af115801561057a573d6000803e3d6000fd5b505050506040513d601f19601f8201168201806040525081019061059e91906110ab565b6105dd576040517f08c379a00000000000000000000000000000000000000000000000000000000081526004016105d49061146d565b60405180910390fd5b50565b60026020528060005260406000206000915090508060000154908060010160009054906101000a900460ff16905082565b6000806060600060026000868152602001908152602001600020600001541161066f576040517f08c379a00000000000000000000000000000000000000000000000000000000081526004016106669061140d565b60405180910390fd5b600060026000868152602001908152602001600020604051806060016040529081600082015481526020016001820160009054906101000a900460ff161515151581526020016002820180548060200260200160405190810160405280929190818152602001828054801561070357602002820191906000526020600020905b8154815260200190600101908083116106ef575b5050505050815250509050806000015181602001518260400151935093509350509193909250565b6000610735610b21565b610774600560149054906101000a900463ffffffff16600560189054906101000a900461ffff166005601a9054906101000a900463ffffffff16610bb1565b905060405180606001604052807f000000000000000000000000000000000000000000000000000000000000000073ffffffffffffffffffffffffffffffffffffffff16634306d354600560149054906101000a900463ffffffff166040518263ffffffff1660e01b81526004016107ec91906115b6565b60206040518083038186803b15801561080457600080fd5b505afa158015610818573d6000803e3d6000fd5b505050506040513d601f19601f8201168201806040525081019061083c9190611105565b8152602001600015158152602001600067ffffffffffffffff81111561086557610864611789565b5b6040519080825280602002602001820160405280156108935781602001602082028036833780820191505090505b50815250600260008381526020019081526020016000206000820151816000015560208201518160010160006101000a81548160ff02191690831515021790555060408201518160020190805190602001906108f0929190610f22565b509050506003819080600181540180825580915050600190039060005260206000200160009091909190915055806004819055507fcc58b13ad3eab50626c6a6300b1d139cd6ebb1688a7cced9461c2f7e762665ee816005601a9054906101000a900463ffffffff1660405161096792919061158d565b60405180910390a190565b61097a610b21565b61098381610df5565b50565b60045481565b60006002600084815260200190815260200160002060000154116109e5576040517f08c379a00000000000000000000000000000000000000000000000000000000081526004016109dc9061140d565b60405180910390fd5b60016002600084815260200190815260200160002060010160006101000a81548160ff02191690831515021790555080600260008481526020019081526020016000206002019080519060200190610a3e929190610f22565b50600560009054906101000a900473ffffffffffffffffffffffffffffffffffffffff1673ffffffffffffffffffffffffffffffffffffffff1663e8e31e03826040518263ffffffff1660e01b8152600401610a9a91906113eb565b600060405180830381600087803b158015610ab457600080fd5b505af1158015610ac8573d6000803e3d6000fd5b505050507f147eb1ff0c82f87f2b03e2c43f5a36488ff63ec6b730195fde4605f612f8db5182826002600086815260200190815260200160002060000154604051610b15939291906114e8565b60405180910390a15050565b60008054906101000a900473ffffffffffffffffffffffffffffffffffffffff1673ffffffffffffffffffffffffffffffffffffffff163373ffffffffffffffffffffffffffffffffffffffff1614610baf576040517f08c379a0000000000000000000000000000000000000000000000000000000008152600401610ba69061144d565b60405180910390fd5b565b60007f000000000000000000000000000000000000000000000000000000000000000073ffffffffffffffffffffffffffffffffffffffff16634000aea07f00000000000000000000000000000000000000000000000000000000000000007f000000000000000000000000000000000000000000000000000000000000000073ffffffffffffffffffffffffffffffffffffffff16634306d354886040518263ffffffff1660e01b8152600401610c6991906115b6565b60206040518083038186803b158015610c8157600080fd5b505afa158015610c95573d6000803e3d6000fd5b505050506040513d601f19601f82011682018060405250810190610cb99190611105565b878787604051602001610cce939291906115d1565b6040516020818303038152906040526040518463ffffffff1660e01b8152600401610cfb939291906113ad565b602060405180830381600087803b158015610d1557600080fd5b505af1158015610d29573d6000803e3d6000fd5b505050506040513d601f19601f82011682018060405250810190610d4d91906110ab565b507f000000000000000000000000000000000000000000000000000000000000000073ffffffffffffffffffffffffffffffffffffffff1663fc2a88c36040518163ffffffff1660e01b815260040160206040518083038186803b158015610db457600080fd5b505afa158015610dc8573d6000803e3d6000fd5b505050506040513d601f19601f82011682018060405250810190610dec9190611105565b90509392505050565b3373ffffffffffffffffffffffffffffffffffffffff168173ffffffffffffffffffffffffffffffffffffffff161415610e64576040517f08c379a0000000000000000000000000000000000000000000000000000000008152600401610e5b9061148d565b60405180910390fd5b80600160006101000a81548173ffffffffffffffffffffffffffffffffffffffff021916908373ffffffffffffffffffffffffffffffffffffffff1602179055508073ffffffffffffffffffffffffffffffffffffffff1660008054906101000a900473ffffffffffffffffffffffffffffffffffffffff1673ffffffffffffffffffffffffffffffffffffffff167fed8889f560326eb138920d842192f0eb3dd22b4f139c87a2c57538e05bae127860405160405180910390a350565b828054828255906000526020600020908101928215610f5e579160200282015b82811115610f5d578251825591602001919060010190610f42565b5b509050610f6b9190610f6f565b5090565b5b80821115610f88576000816000905550600101610f70565b5090565b6000610f9f610f9a8461162d565b611608565b90508083825260208201905082856020860282011115610fc257610fc16117bd565b5b60005b85811015610ff25781610fd88882611054565b845260208401935060208301925050600181019050610fc5565b5050509392505050565b60008135905061100b816118d3565b92915050565b600082601f830112611026576110256117b8565b5b8135611036848260208601610f8c565b91505092915050565b60008151905061104e816118ea565b92915050565b60008135905061106381611901565b92915050565b60008151905061107881611901565b92915050565b600060208284031215611094576110936117c7565b5b60006110a284828501610ffc565b91505092915050565b6000602082840312156110c1576110c06117c7565b5b60006110cf8482850161103f565b91505092915050565b6000602082840312156110ee576110ed6117c7565b5b60006110fc84828501611054565b91505092915050565b60006020828403121561111b5761111a6117c7565b5b600061112984828501611069565b91505092915050565b60008060408385031215611149576111486117c7565b5b600061115785828601611054565b925050602083013567ffffffffffffffff811115611178576111776117c2565b5b61118485828601611011565b9150509250929050565b600061119a838361133c565b60208301905092915050565b6111af816116bf565b82525050565b60006111c082611669565b6111ca818561168c565b93506111d583611659565b8060005b838110156112065781516111ed888261118e565b97506111f88361167f565b9250506001810190506111d9565b5085935050505092915050565b61121c816116d1565b82525050565b600061122d82611674565b611237818561169d565b9350611247818560208601611725565b611250816117cc565b840191505092915050565b60006112686011836116ae565b9150611273826117dd565b602082019050919050565b600061128b6016836116ae565b915061129682611806565b602082019050919050565b60006112ae6016836116ae565b91506112b98261182f565b602082019050919050565b60006112d16012836116ae565b91506112dc82611858565b602082019050919050565b60006112f46017836116ae565b91506112ff82611881565b602082019050919050565b6000611317601f836116ae565b9150611322826118aa565b602082019050919050565b611336816116dd565b82525050565b6113458161170b565b82525050565b6113548161170b565b82525050565b61136381611715565b82525050565b600060208201905061137e60008301846111a6565b92915050565b600060408201905061139960008301856111a6565b6113a6602083018461134b565b9392505050565b60006060820190506113c260008301866111a6565b6113cf602083018561134b565b81810360408301526113e18184611222565b9050949350505050565b6000602082019050818103600083015261140581846111b5565b905092915050565b600060208201905081810360008301526114268161125b565b9050919050565b600060208201905081810360008301526114468161127e565b9050919050565b60006020820190508181036000830152611466816112a1565b9050919050565b60006020820190508181036000830152611486816112c4565b9050919050565b600060208201905081810360008301526114a6816112e7565b9050919050565b600060208201905081810360008301526114c68161130a565b9050919050565b60006020820190506114e2600083018461134b565b92915050565b60006060820190506114fd600083018661134b565b818103602083015261150f81856111b5565b905061151e604083018461134b565b949350505050565b600060408201905061153b600083018561134b565b6115486020830184611213565b9392505050565b6000606082019050611564600083018661134b565b6115716020830185611213565b818103604083015261158381846111b5565b9050949350505050565b60006040820190506115a2600083018561134b565b6115af602083018461135a565b9392505050565b60006020820190506115cb600083018461135a565b92915050565b60006060820190506115e6600083018661135a565b6115f3602083018561132d565b611600604083018461135a565b949350505050565b6000611612611623565b905061161e8282611758565b919050565b6000604051905090565b600067ffffffffffffffff82111561164857611647611789565b5b602082029050602081019050919050565b6000819050602082019050919050565b600081519050919050565b600081519050919050565b6000602082019050919050565b600082825260208201905092915050565b600082825260208201905092915050565b600082825260208201905092915050565b60006116ca826116eb565b9050919050565b60008115159050919050565b600061ffff82169050919050565b600073ffffffffffffffffffffffffffffffffffffffff82169050919050565b6000819050919050565b600063ffffffff82169050919050565b60005b83811015611743578082015181840152602081019050611728565b83811115611752576000848401525b50505050565b611761826117cc565b810181811067ffffffffffffffff821117156117805761177f611789565b5b80604052505050565b7f4e487b7100000000000000000000000000000000000000000000000000000000600052604160045260246000fd5b600080fd5b600080fd5b600080fd5b600080fd5b6000601f19601f8301169050919050565b7f72657175657374206e6f7420666f756e64000000000000000000000000000000600082015250565b7f4d7573742062652070726f706f736564206f776e657200000000000000000000600082015250565b7f4f6e6c792063616c6c61626c65206279206f776e657200000000000000000000600082015250565b7f556e61626c6520746f207472616e736665720000000000000000000000000000600082015250565b7f43616e6e6f74207472616e7366657220746f2073656c66000000000000000000600082015250565b7f6f6e6c792056524620563220777261707065722063616e2066756c66696c6c00600082015250565b6118dc816116bf565b81146118e757600080fd5b50565b6118f3816116d1565b81146118fe57600080fd5b50565b61190a8161170b565b811461191557600080fd5b5056fea264697066735822122025af8be4295840cec2e7ab63276606de0403b1cecada450d15e1def62897e3da64736f6c63430008070033",
  "linkReferences": {},
  "deployedLinkReferences": {}
}