{
  "_format": "hh-sol-artifact-1",
  "contractName": "Bet",
  "sourceName": "contracts/Bet.sol",
  "abi": [
    {
      "inputs": [
        {
          "internalType": "address payable",
          "name": "_admin",
          "type": "address"
        }
      ],
      "stateMutability": "nonpayable",
      "type": "constructor"
    },
    {
      "inputs": [],
      "name": "admin",
      "outputs": [
        {
          "internalType": "address payable",
          "name": "",
          "type": "address"
        }
      ],
      "stateMutability": "view",
      "type": "function"
    },
    {
      "inputs": [
        {
          "internalType": "string",
          "name": "_result",
          "type": "string"
        }
      ],
      "name": "declareResult",
      "outputs": [],
      "stateMutability": "nonpayable",
      "type": "function"
    },
    {
      "inputs": [],
      "name": "distributeWinnings",
      "outputs": [],
      "stateMutability": "payable",
      "type": "function"
    },
    {
      "inputs": [
        {
          "internalType": "address",
          "name": "account",
          "type": "address"
        }
      ],
      "name": "getResult",
      "outputs": [
        {
          "internalType": "string",
          "name": "",
          "type": "string"
        }
      ],
      "stateMutability": "view",
      "type": "function"
    },
    {
      "inputs": [
        {
          "internalType": "bool",
          "name": "_paused",
          "type": "bool"
        }
      ],
      "name": "pauseBetting",
      "outputs": [],
      "stateMutability": "nonpayable",
      "type": "function"
    },
    {
      "inputs": [],
      "name": "paused",
      "outputs": [
        {
          "internalType": "bool",
          "name": "",
          "type": "bool"
        }
      ],
      "stateMutability": "view",
      "type": "function"
    },
    {
      "inputs": [
        {
          "internalType": "string",
          "name": "guess",
          "type": "string"
        }
      ],
      "name": "placeBet",
      "outputs": [],
      "stateMutability": "payable",
      "type": "function"
    },
    {
      "inputs": [],
      "name": "result",
      "outputs": [
        {
          "internalType": "string",
          "name": "",
          "type": "string"
        }
      ],
      "stateMutability": "view",
      "type": "function"
    }
  ],
  "bytecode": "0x60806040523480156200001157600080fd5b506040516200179b3803806200179b8339818101604052810190620000379190620000e8565b806000806101000a81548173ffffffffffffffffffffffffffffffffffffffff021916908373ffffffffffffffffffffffffffffffffffffffff160217905550506200011a565b600080fd5b600073ffffffffffffffffffffffffffffffffffffffff82169050919050565b6000620000b08262000083565b9050919050565b620000c281620000a3565b8114620000ce57600080fd5b50565b600081519050620000e281620000b7565b92915050565b6000602082840312156200010157620001006200007e565b5b60006200011184828501620000d1565b91505092915050565b611671806200012a6000396000f3fe60806040526004361061007b5760003560e01c80637d2026cd1161004e5780637d2026cd1461013c5780638c5358d81461014657806397bfeb881461016f578063f851a4401461018b5761007b565b80631c5399b114610080578063446a37e0146100a95780635c975abb146100e65780636537214714610111575b600080fd5b34801561008c57600080fd5b506100a760048036038101906100a29190610b9d565b6101b6565b005b3480156100b557600080fd5b506100d060048036038101906100cb9190610c28565b610261565b6040516100dd9190610ce5565b60405180910390f35b3480156100f257600080fd5b506100fb610332565b6040516101089190610d16565b60405180910390f35b34801561011d57600080fd5b50610126610345565b6040516101339190610ce5565b60405180910390f35b6101446103d3565b005b34801561015257600080fd5b5061016d60048036038101906101689190610d96565b6105cf565b005b61018960048036038101906101849190610d96565b610673565b005b34801561019757600080fd5b506101a0610946565b6040516101ad9190610e04565b60405180910390f35b60008054906101000a900473ffffffffffffffffffffffffffffffffffffffff1673ffffffffffffffffffffffffffffffffffffffff163373ffffffffffffffffffffffffffffffffffffffff1614610244576040517f08c379a000000000000000000000000000000000000000000000000000000000815260040161023b90610e6b565b60405180910390fd5b80600060146101000a81548160ff02191690831515021790555050565b6060600260008373ffffffffffffffffffffffffffffffffffffffff1673ffffffffffffffffffffffffffffffffffffffff16815260200190815260200160002080546102ad90610eba565b80601f01602080910402602001604051908101604052809291908181526020018280546102d990610eba565b80156103265780601f106102fb57610100808354040283529160200191610326565b820191906000526020600020905b81548152906001019060200180831161030957829003601f168201915b50505050509050919050565b600060149054906101000a900460ff1681565b6001805461035290610eba565b80601f016020809104026020016040519081016040528092919081815260200182805461037e90610eba565b80156103cb5780601f106103a0576101008083540402835291602001916103cb565b820191906000526020600020905b8154815290600101906020018083116103ae57829003601f168201915b505050505081565b60008054906101000a900473ffffffffffffffffffffffffffffffffffffffff1673ffffffffffffffffffffffffffffffffffffffff163373ffffffffffffffffffffffffffffffffffffffff1614610461576040517f08c379a000000000000000000000000000000000000000000000000000000000815260040161045890610e6b565b60405180910390fd5b60006001805461047090610eba565b9050116104b2576040517f08c379a00000000000000000000000000000000000000000000000000000000081526004016104a990610f37565b60405180910390fd5b600067016345785d8a0000476104c89190610f90565b90506104d261096a565b6000600360016040516104e59190611067565b90815260200160405180910390208054905090506000818361050791906110ad565b905060005b828110156105c957600360016040516105259190611067565b90815260200160405180910390208181548110610545576105446110de565b5b9060005260206000200160009054906101000a900473ffffffffffffffffffffffffffffffffffffffff1673ffffffffffffffffffffffffffffffffffffffff166108fc839081150290604051600060405180830381858888f193505050501580156105b5573d6000803e3d6000fd5b5080806105c19061110d565b91505061050c565b50505050565b60008054906101000a900473ffffffffffffffffffffffffffffffffffffffff1673ffffffffffffffffffffffffffffffffffffffff163373ffffffffffffffffffffffffffffffffffffffff161461065d576040517f08c379a000000000000000000000000000000000000000000000000000000000815260040161065490610e6b565b60405180910390fd5b81816001918261066e929190611326565b505050565b600082829050116106b9576040517f08c379a00000000000000000000000000000000000000000000000000000000081526004016106b090611442565b60405180910390fd5b66470de4df820000341015610703576040517f08c379a00000000000000000000000000000000000000000000000000000000081526004016106fa906114ae565b60405180910390fd5b600060149054906101000a900460ff1615610753576040517f08c379a000000000000000000000000000000000000000000000000000000000815260040161074a9061151a565b60405180910390fd5b610833600260003373ffffffffffffffffffffffffffffffffffffffff1673ffffffffffffffffffffffffffffffffffffffff16815260200190815260200160002080546107a090610eba565b80601f01602080910402602001604051908101604052809291908181526020018280546107cc90610eba565b80156108195780601f106107ee57610100808354040283529160200191610819565b820191906000526020600020905b8154815290600101906020018083116107fc57829003601f168201915b505050505060405180602001604052806000815250610b02565b610872576040517f08c379a000000000000000000000000000000000000000000000000000000000815260040161086990611586565b60405180910390fd5b8181600260003373ffffffffffffffffffffffffffffffffffffffff1673ffffffffffffffffffffffffffffffffffffffff16815260200190815260200160002091826108c0929190611326565b50600382826040516108d39291906115da565b9081526020016040518091039020339080600181540180825580915050600190039060005260206000200160009091909190916101000a81548173ffffffffffffffffffffffffffffffffffffffff021916908373ffffffffffffffffffffffffffffffffffffffff1602179055505050565b60008054906101000a900473ffffffffffffffffffffffffffffffffffffffff1681565b60005b6003600160405161097e9190611067565b908152602001604051809103902080549050811015610a5e5760008054906101000a900473ffffffffffffffffffffffffffffffffffffffff1673ffffffffffffffffffffffffffffffffffffffff16600360016040516109df9190611067565b908152602001604051809103902082815481106109ff576109fe6110de565b5b9060005260206000200160009054906101000a900473ffffffffffffffffffffffffffffffffffffffff1673ffffffffffffffffffffffffffffffffffffffff1603610a4b5750610b00565b8080610a569061110d565b91505061096d565b5060036001604051610a709190611067565b908152602001604051809103902060008054906101000a900473ffffffffffffffffffffffffffffffffffffffff169080600181540180825580915050600190039060005260206000200160009091909190916101000a81548173ffffffffffffffffffffffffffffffffffffffff021916908373ffffffffffffffffffffffffffffffffffffffff1602179055505b565b600081604051602001610b159190611624565b6040516020818303038152906040528051906020012083604051602001610b3c9190611624565b6040516020818303038152906040528051906020012014905092915050565b600080fd5b600080fd5b60008115159050919050565b610b7a81610b65565b8114610b8557600080fd5b50565b600081359050610b9781610b71565b92915050565b600060208284031215610bb357610bb2610b5b565b5b6000610bc184828501610b88565b91505092915050565b600073ffffffffffffffffffffffffffffffffffffffff82169050919050565b6000610bf582610bca565b9050919050565b610c0581610bea565b8114610c1057600080fd5b50565b600081359050610c2281610bfc565b92915050565b600060208284031215610c3e57610c3d610b5b565b5b6000610c4c84828501610c13565b91505092915050565b600081519050919050565b600082825260208201905092915050565b60005b83811015610c8f578082015181840152602081019050610c74565b60008484015250505050565b6000601f19601f8301169050919050565b6000610cb782610c55565b610cc18185610c60565b9350610cd1818560208601610c71565b610cda81610c9b565b840191505092915050565b60006020820190508181036000830152610cff8184610cac565b905092915050565b610d1081610b65565b82525050565b6000602082019050610d2b6000830184610d07565b92915050565b600080fd5b600080fd5b600080fd5b60008083601f840112610d5657610d55610d31565b5b8235905067ffffffffffffffff811115610d7357610d72610d36565b5b602083019150836001820283011115610d8f57610d8e610d3b565b5b9250929050565b60008060208385031215610dad57610dac610b5b565b5b600083013567ffffffffffffffff811115610dcb57610dca610b60565b5b610dd785828601610d40565b92509250509250929050565b6000610dee82610bca565b9050919050565b610dfe81610de3565b82525050565b6000602082019050610e196000830184610df5565b92915050565b7f50415553455f4e4f5f5045524d495353494f4e00000000000000000000000000600082015250565b6000610e55601383610c60565b9150610e6082610e1f565b602082019050919050565b60006020820190508181036000830152610e8481610e48565b9050919050565b7f4e487b7100000000000000000000000000000000000000000000000000000000600052602260045260246000fd5b60006002820490506001821680610ed257607f821691505b602082108103610ee557610ee4610e8b565b5b50919050565b7f524553554c545f4e4f545f534554000000000000000000000000000000000000600082015250565b6000610f21600e83610c60565b9150610f2c82610eeb565b602082019050919050565b60006020820190508181036000830152610f5081610f14565b9050919050565b6000819050919050565b7f4e487b7100000000000000000000000000000000000000000000000000000000600052601160045260246000fd5b6000610f9b82610f57565b9150610fa683610f57565b9250828203905081811115610fbe57610fbd610f61565b5b92915050565b600081905092915050565b60008190508160005260206000209050919050565b60008154610ff181610eba565b610ffb8186610fc4565b94506001821660008114611016576001811461102b5761105e565b60ff198316865281151582028601935061105e565b61103485610fcf565b60005b8381101561105657815481890152600182019150602081019050611037565b838801955050505b50505092915050565b60006110738284610fe4565b915081905092915050565b7f4e487b7100000000000000000000000000000000000000000000000000000000600052601260045260246000fd5b60006110b882610f57565b91506110c383610f57565b9250826110d3576110d261107e565b5b828204905092915050565b7f4e487b7100000000000000000000000000000000000000000000000000000000600052603260045260246000fd5b600061111882610f57565b91507fffffffffffffffffffffffffffffffffffffffffffffffffffffffffffffffff820361114a57611149610f61565b5b600182019050919050565b600082905092915050565b7f4e487b7100000000000000000000000000000000000000000000000000000000600052604160045260246000fd5b60006020601f8301049050919050565b600082821b905092915050565b6000600883026111dc7fffffffffffffffffffffffffffffffffffffffffffffffffffffffffffffffff8261119f565b6111e6868361119f565b95508019841693508086168417925050509392505050565b6000819050919050565b600061122361121e61121984610f57565b6111fe565b610f57565b9050919050565b6000819050919050565b61123d83611208565b6112516112498261122a565b8484546111ac565b825550505050565b600090565b611266611259565b611271818484611234565b505050565b5b818110156112955761128a60008261125e565b600181019050611277565b5050565b601f8211156112da576112ab81610fcf565b6112b48461118f565b810160208510156112c3578190505b6112d76112cf8561118f565b830182611276565b50505b505050565b600082821c905092915050565b60006112fd600019846008026112df565b1980831691505092915050565b600061131683836112ec565b9150826002028217905092915050565b6113308383611155565b67ffffffffffffffff81111561134957611348611160565b5b6113538254610eba565b61135e828285611299565b6000601f83116001811461138d576000841561137b578287013590505b611385858261130a565b8655506113ed565b601f19841661139b86610fcf565b60005b828110156113c35784890135825560018201915060208501945060208101905061139e565b868310156113e057848901356113dc601f8916826112ec565b8355505b6001600288020188555050505b50505050505050565b7f42455454494e475f454d50545900000000000000000000000000000000000000600082015250565b600061142c600d83610c60565b9150611437826113f6565b602082019050919050565b6000602082019050818103600083015261145b8161141f565b9050919050565b7f42455454494e475f4645455f4e4f545f454e4f55474800000000000000000000600082015250565b6000611498601683610c60565b91506114a382611462565b602082019050919050565b600060208201905081810360008301526114c78161148b565b9050919050565b7f42455454494e475f504155534544000000000000000000000000000000000000600082015250565b6000611504600e83610c60565b915061150f826114ce565b602082019050919050565b60006020820190508181036000830152611533816114f7565b9050919050565b7f42455454494e475f504c414345445f414c524541445900000000000000000000600082015250565b6000611570601683610c60565b915061157b8261153a565b602082019050919050565b6000602082019050818103600083015261159f81611563565b9050919050565b82818337600083830152505050565b60006115c18385610fc4565b93506115ce8385846115a6565b82840190509392505050565b60006115e78284866115b5565b91508190509392505050565b60006115fe82610c55565b6116088185610fc4565b9350611618818560208601610c71565b80840191505092915050565b600061163082846115f3565b91508190509291505056fea264697066735822122082689116cd3314eb6df3f02b1795f57d425ce53f65b0a7a9961c6baa4425965964736f6c63430008110033",
  "linkReferences": {},
  "deployedLinkReferences": {}
}